{
  "_format": "hh-sol-artifact-1",
  "contractName": "RenPool",
  "sourceName": "contracts/RenPool.sol",
  "abi": [
    {
      "inputs": [
        {
          "internalType": "address",
          "name": "_renTokenAddr",
          "type": "address"
        },
        {
          "internalType": "address",
          "name": "_darknodeRegistryAddr",
          "type": "address"
        },
        {
          "internalType": "address",
          "name": "_darknodePaymentAddr",
          "type": "address"
        },
        {
          "internalType": "address",
          "name": "_claimRewardsAddr",
          "type": "address"
        },
        {
          "internalType": "address",
          "name": "_gatewayRegistryAddr",
          "type": "address"
        },
        {
          "internalType": "address",
          "name": "_owner",
          "type": "address"
        },
        {
          "internalType": "address",
          "name": "_nodeOperator",
          "type": "address"
        },
        {
          "internalType": "uint256",
          "name": "_bond",
          "type": "uint256"
        }
      ],
      "stateMutability": "nonpayable",
      "type": "constructor"
    },
    {
      "anonymous": false,
      "inputs": [
        {
          "indexed": true,
          "internalType": "address",
          "name": "_from",
          "type": "address"
        },
        {
          "indexed": false,
          "internalType": "uint256",
          "name": "_amount",
          "type": "uint256"
        }
      ],
      "name": "EthDeposited",
      "type": "event"
    },
    {
      "anonymous": false,
      "inputs": [
        {
          "indexed": true,
          "internalType": "address",
          "name": "_from",
          "type": "address"
        },
        {
          "indexed": false,
          "internalType": "uint256",
          "name": "_amount",
          "type": "uint256"
        }
      ],
      "name": "EthWithdrawn",
      "type": "event"
    },
    {
      "anonymous": false,
      "inputs": [],
      "name": "PoolLocked",
      "type": "event"
    },
    {
      "anonymous": false,
      "inputs": [],
      "name": "PoolUnlocked",
      "type": "event"
    },
    {
      "anonymous": false,
      "inputs": [
        {
          "indexed": true,
          "internalType": "address",
          "name": "_from",
          "type": "address"
        },
        {
          "indexed": false,
          "internalType": "uint256",
          "name": "_amount",
          "type": "uint256"
        }
      ],
      "name": "RenDeposited",
      "type": "event"
    },
    {
      "anonymous": false,
      "inputs": [
        {
          "indexed": true,
          "internalType": "address",
          "name": "_from",
          "type": "address"
        },
        {
          "indexed": false,
          "internalType": "uint256",
          "name": "_amount",
          "type": "uint256"
        }
      ],
      "name": "RenWithdrawalRequestCancelled",
      "type": "event"
    },
    {
      "anonymous": false,
      "inputs": [
        {
          "indexed": true,
          "internalType": "address",
          "name": "_from",
          "type": "address"
        },
        {
          "indexed": false,
          "internalType": "uint256",
          "name": "_amount",
          "type": "uint256"
        }
      ],
      "name": "RenWithdrawalRequestFulfilled",
      "type": "event"
    },
    {
      "anonymous": false,
      "inputs": [
        {
          "indexed": true,
          "internalType": "address",
          "name": "_from",
          "type": "address"
        },
        {
          "indexed": false,
          "internalType": "uint256",
          "name": "_amount",
          "type": "uint256"
        }
      ],
      "name": "RenWithdrawalRequested",
      "type": "event"
    },
    {
      "anonymous": false,
      "inputs": [
        {
          "indexed": true,
          "internalType": "address",
          "name": "_from",
          "type": "address"
        },
        {
          "indexed": false,
          "internalType": "uint256",
          "name": "_amount",
          "type": "uint256"
        }
      ],
      "name": "RenWithdrawn",
      "type": "event"
    },
    {
      "anonymous": false,
      "inputs": [
        {
          "indexed": true,
          "internalType": "address",
          "name": "_from",
          "type": "address"
        },
        {
          "indexed": false,
          "internalType": "uint256",
          "name": "_amount",
          "type": "uint256"
        },
        {
          "indexed": false,
          "internalType": "uint256",
          "name": "_nonce",
          "type": "uint256"
        }
      ],
      "name": "RewardsClaimed",
      "type": "event"
    },
    {
      "anonymous": false,
      "inputs": [
        {
          "indexed": true,
          "internalType": "address",
          "name": "_from",
          "type": "address"
        },
        {
          "indexed": false,
          "internalType": "uint256",
          "name": "_mintedAmount",
          "type": "uint256"
        }
      ],
      "name": "RewardsMinted",
      "type": "event"
    },
    {
      "inputs": [],
      "name": "DECIMALS",
      "outputs": [
        {
          "internalType": "uint8",
          "name": "",
          "type": "uint8"
        }
      ],
      "stateMutability": "view",
      "type": "function"
    },
    {
      "inputs": [],
      "name": "approveBondTransfer",
      "outputs": [],
      "stateMutability": "nonpayable",
      "type": "function"
    },
    {
      "inputs": [
        {
          "internalType": "address",
          "name": "_target",
          "type": "address"
        }
      ],
      "name": "balanceOf",
      "outputs": [
        {
          "internalType": "uint256",
          "name": "",
          "type": "uint256"
        }
      ],
      "stateMutability": "view",
      "type": "function"
    },
    {
      "inputs": [
        {
          "internalType": "address",
          "name": "",
          "type": "address"
        }
      ],
      "name": "balances",
      "outputs": [
        {
          "internalType": "uint256",
          "name": "",
          "type": "uint256"
        }
      ],
      "stateMutability": "view",
      "type": "function"
    },
    {
      "inputs": [],
      "name": "bond",
      "outputs": [
        {
          "internalType": "uint256",
          "name": "",
          "type": "uint256"
        }
      ],
      "stateMutability": "view",
      "type": "function"
    },
    {
      "inputs": [],
      "name": "cancelWithdrawalRequest",
      "outputs": [],
      "stateMutability": "nonpayable",
      "type": "function"
    },
    {
      "inputs": [],
      "name": "claimRewards",
      "outputs": [
        {
          "internalType": "contract IClaimRewardsV1",
          "name": "",
          "type": "address"
        }
      ],
      "stateMutability": "view",
      "type": "function"
    },
    {
      "inputs": [
        {
          "internalType": "string",
          "name": "_assetSymbol",
          "type": "string"
        },
        {
          "internalType": "address",
          "name": "_recipientAddress",
          "type": "address"
        },
        {
          "internalType": "uint256",
          "name": "_amount",
          "type": "uint256"
        }
      ],
      "name": "claimRewardsToChain",
      "outputs": [
        {
          "internalType": "uint256",
          "name": "",
          "type": "uint256"
        }
      ],
      "stateMutability": "nonpayable",
      "type": "function"
    },
    {
      "inputs": [],
      "name": "darknodeID",
      "outputs": [
        {
          "internalType": "address",
          "name": "",
          "type": "address"
        }
      ],
      "stateMutability": "view",
      "type": "function"
    },
    {
      "inputs": [],
      "name": "darknodePayment",
      "outputs": [
        {
          "internalType": "contract IDarknodePayment",
          "name": "",
          "type": "address"
        }
      ],
      "stateMutability": "view",
      "type": "function"
    },
    {
      "inputs": [],
      "name": "darknodeRegistry",
      "outputs": [
        {
          "internalType": "contract IDarknodeRegistry",
          "name": "",
          "type": "address"
        }
      ],
      "stateMutability": "view",
      "type": "function"
    },
    {
      "inputs": [
        {
          "internalType": "uint256",
          "name": "_amount",
          "type": "uint256"
        }
      ],
      "name": "deposit",
      "outputs": [],
      "stateMutability": "nonpayable",
      "type": "function"
    },
    {
      "inputs": [],
      "name": "deregisterDarknode",
      "outputs": [],
      "stateMutability": "nonpayable",
      "type": "function"
    },
    {
      "inputs": [
        {
          "internalType": "address",
          "name": "_target",
          "type": "address"
        }
      ],
      "name": "fulfillWithdrawalRequest",
      "outputs": [],
      "stateMutability": "nonpayable",
      "type": "function"
    },
    {
      "inputs": [],
      "name": "gatewayRegistry",
      "outputs": [
        {
          "internalType": "contract IGatewayRegistry",
          "name": "",
          "type": "address"
        }
      ],
      "stateMutability": "view",
      "type": "function"
    },
    {
      "inputs": [
        {
          "internalType": "string",
          "name": "_assetSymbol",
          "type": "string"
        }
      ],
      "name": "getDarknodeBalance",
      "outputs": [
        {
          "internalType": "uint256",
          "name": "",
          "type": "uint256"
        }
      ],
      "stateMutability": "view",
      "type": "function"
    },
    {
      "inputs": [],
      "name": "isLocked",
      "outputs": [
        {
          "internalType": "bool",
          "name": "",
          "type": "bool"
        }
      ],
      "stateMutability": "view",
      "type": "function"
    },
    {
      "inputs": [],
      "name": "isRegistered",
      "outputs": [
        {
          "internalType": "bool",
          "name": "",
          "type": "bool"
        }
      ],
      "stateMutability": "view",
      "type": "function"
    },
    {
      "inputs": [
        {
          "internalType": "string",
          "name": "_assetSymbol",
          "type": "string"
        },
        {
          "internalType": "address",
          "name": "_recipientAddress",
          "type": "address"
        },
        {
          "internalType": "uint256",
          "name": "_amount",
          "type": "uint256"
        },
        {
          "internalType": "uint256",
          "name": "_nonce",
          "type": "uint256"
        },
        {
          "internalType": "bytes",
          "name": "_sig",
          "type": "bytes"
        }
      ],
      "name": "mintRewards",
      "outputs": [],
      "stateMutability": "nonpayable",
      "type": "function"
    },
    {
      "inputs": [],
      "name": "nodeOperator",
      "outputs": [
        {
          "internalType": "address",
          "name": "",
          "type": "address"
        }
      ],
      "stateMutability": "view",
      "type": "function"
    },
    {
      "inputs": [],
      "name": "nodeOperatorFee",
      "outputs": [
        {
          "internalType": "uint256",
          "name": "",
          "type": "uint256"
        }
      ],
      "stateMutability": "view",
      "type": "function"
    },
    {
      "inputs": [
        {
          "internalType": "address",
          "name": "",
          "type": "address"
        }
      ],
      "name": "nonces",
      "outputs": [
        {
          "internalType": "uint256",
          "name": "",
          "type": "uint256"
        }
      ],
      "stateMutability": "view",
      "type": "function"
    },
    {
      "inputs": [],
      "name": "owner",
      "outputs": [
        {
          "internalType": "address",
          "name": "",
          "type": "address"
        }
      ],
      "stateMutability": "view",
      "type": "function"
    },
    {
      "inputs": [],
      "name": "ownerFee",
      "outputs": [
        {
          "internalType": "uint256",
          "name": "",
          "type": "uint256"
        }
      ],
      "stateMutability": "view",
      "type": "function"
    },
    {
      "inputs": [],
      "name": "publicKey",
      "outputs": [
        {
          "internalType": "bytes",
          "name": "",
          "type": "bytes"
        }
      ],
      "stateMutability": "view",
      "type": "function"
    },
    {
      "inputs": [],
      "name": "refundBond",
      "outputs": [],
      "stateMutability": "nonpayable",
      "type": "function"
    },
    {
      "inputs": [
        {
          "internalType": "address",
          "name": "_darknodeID",
          "type": "address"
        },
        {
          "internalType": "bytes",
          "name": "_publicKey",
          "type": "bytes"
        }
      ],
      "name": "registerDarknode",
      "outputs": [],
      "stateMutability": "nonpayable",
      "type": "function"
    },
    {
      "inputs": [],
      "name": "renToken",
      "outputs": [
        {
          "internalType": "contract IERC20",
          "name": "",
          "type": "address"
        }
      ],
      "stateMutability": "view",
      "type": "function"
    },
    {
      "inputs": [
        {
          "internalType": "uint256",
          "name": "_amount",
          "type": "uint256"
        }
      ],
      "name": "requestWithdrawal",
      "outputs": [],
      "stateMutability": "nonpayable",
      "type": "function"
    },
    {
      "inputs": [],
      "name": "totalPooled",
      "outputs": [
        {
          "internalType": "uint256",
          "name": "",
          "type": "uint256"
        }
      ],
      "stateMutability": "view",
      "type": "function"
    },
    {
      "inputs": [],
      "name": "totalWithdrawalRequested",
      "outputs": [
        {
          "internalType": "uint256",
          "name": "",
          "type": "uint256"
        }
      ],
      "stateMutability": "view",
      "type": "function"
    },
    {
      "inputs": [],
      "name": "unlockPool",
      "outputs": [],
      "stateMutability": "nonpayable",
      "type": "function"
    },
    {
      "inputs": [
        {
          "internalType": "uint256",
          "name": "_amount",
          "type": "uint256"
        }
      ],
      "name": "withdraw",
      "outputs": [],
      "stateMutability": "nonpayable",
      "type": "function"
    },
    {
      "inputs": [],
      "name": "withdrawGas",
      "outputs": [],
      "stateMutability": "nonpayable",
      "type": "function"
    },
    {
      "inputs": [
        {
          "internalType": "address",
          "name": "",
          "type": "address"
        }
      ],
      "name": "withdrawalRequests",
      "outputs": [
        {
          "internalType": "uint256",
          "name": "",
          "type": "uint256"
        }
      ],
      "stateMutability": "view",
      "type": "function"
    },
    {
      "stateMutability": "payable",
      "type": "receive"
    }
  ],
  "bytecode": "0x60806040523480156200001157600080fd5b5060405162003e6638038062003e66833981810160405281019062000037919062000296565b826000806101000a81548173ffffffffffffffffffffffffffffffffffffffff021916908373ffffffffffffffffffffffffffffffffffffffff16021790555081600160006101000a81548173ffffffffffffffffffffffffffffffffffffffff021916908373ffffffffffffffffffffffffffffffffffffffff16021790555087600d60006101000a81548173ffffffffffffffffffffffffffffffffffffffff021916908373ffffffffffffffffffffffffffffffffffffffff16021790555086600e60006101000a81548173ffffffffffffffffffffffffffffffffffffffff021916908373ffffffffffffffffffffffffffffffffffffffff16021790555085600f60006101000a81548173ffffffffffffffffffffffffffffffffffffffff021916908373ffffffffffffffffffffffffffffffffffffffff16021790555084601060006101000a81548173ffffffffffffffffffffffffffffffffffffffff021916908373ffffffffffffffffffffffffffffffffffffffff16021790555083601160006101000a81548173ffffffffffffffffffffffffffffffffffffffff021916908373ffffffffffffffffffffffffffffffffffffffff160217905550806004819055506000600960006101000a81548160ff0219169083151502179055506000600960016101000a81548160ff02191690831515021790555060006005819055506000600681905550600560078190555060056008819055505050505050505050620003d6565b6000815190506200027981620003a2565b92915050565b6000815190506200029081620003bc565b92915050565b600080600080600080600080610100898b031215620002ba57620002b96200039d565b5b6000620002ca8b828c0162000268565b9850506020620002dd8b828c0162000268565b9750506040620002f08b828c0162000268565b9650506060620003038b828c0162000268565b9550506080620003168b828c0162000268565b94505060a0620003298b828c0162000268565b93505060c06200033c8b828c0162000268565b92505060e06200034f8b828c016200027f565b9150509295985092959890939650565b60006200036c8262000373565b9050919050565b600073ffffffffffffffffffffffffffffffffffffffff82169050919050565b6000819050919050565b600080fd5b620003ad816200035f565b8114620003b957600080fd5b50565b620003c78162000393565b8114620003d357600080fd5b50565b613a8080620003e66000396000f3fe6080604052600436106102085760003560e01c80637ecebe0011610118578063b6b34c67116100a0578063d693452e1161006f578063d693452e1461077e578063e39f6101146107a9578063e438a77d146107d4578063e714a028146107eb578063e7585aea146108025761025d565b8063b6b34c67146106e8578063b6b55f2514610713578063b7eb85c41461073c578063d5b2a01a146107535761025d565b80639e45e0d0116100e75780639e45e0d0146106015780639ee679e81461062c578063a4e2d63414610655578063aaaa0c4b14610680578063ac347987146106ab5761025d565b80637ecebe001461055757806389026538146105945780638da5cb5b146105ab578063901a6498146105d65761025d565b80632e1a7d4d1161019b57806364c9ec6f1161016a57806364c9ec6f1461045e5780636664e42e146104895780636ec21cc8146104b257806370a08231146104dd57806371bbef361461051a5761025d565b80632e1a7d4d146103b457806334246f9b146103dd578063372500ab1461040857806363ffab31146104335761025d565b8063270016fb116101d7578063270016fb146102e657806327b380f31461030f57806327e235e31461034c5780632e0f2625146103895761025d565b8063023c5b08146102625780631261795d1461028d57806313a0ae2b146102a457806322366844146102bb5761025d565b3661025d573373ffffffffffffffffffffffffffffffffffffffff167f66ff7c8f71ccc7c36152a41920d0d3b46ef3034359f76aa1498ed4478c204b5c34604051610253919061334a565b60405180910390a2005b600080fd5b34801561026e57600080fd5b5061027761082b565b6040516102849190612f4d565b60405180910390f35b34801561029957600080fd5b506102a2610851565b005b3480156102b057600080fd5b506102b96109c2565b005b3480156102c757600080fd5b506102d0610a73565b6040516102dd9190612ffa565b60405180910390f35b3480156102f257600080fd5b5061030d6004803603810190610308919061299b565b610a86565b005b34801561031b57600080fd5b506103366004803603810190610331919061299b565b610e9a565b604051610343919061334a565b60405180910390f35b34801561035857600080fd5b50610373600480360381019061036e919061299b565b610eb2565b604051610380919061334a565b60405180910390f35b34801561039557600080fd5b5061039e610eca565b6040516103ab91906133c5565b60405180910390f35b3480156103c057600080fd5b506103db60048036038101906103d69190612c1a565b610ecf565b005b3480156103e957600080fd5b506103f261119e565b6040516103ff91906130d4565b60405180910390f35b34801561041457600080fd5b5061041d6111c4565b60405161042a9190613083565b60405180910390f35b34801561043f57600080fd5b506104486111ea565b6040516104559190613061565b60405180910390f35b34801561046a57600080fd5b50610473611278565b604051610480919061334a565b60405180910390f35b34801561049557600080fd5b506104b060048036038101906104ab9190612b67565b61127e565b005b3480156104be57600080fd5b506104c76114b0565b6040516104d4919061334a565b60405180910390f35b3480156104e957600080fd5b5061050460048036038101906104ff919061299b565b6114b6565b604051610511919061334a565b60405180910390f35b34801561052657600080fd5b50610541600480360381019061053c9190612af8565b6114ff565b60405161054e919061334a565b60405180910390f35b34801561056357600080fd5b5061057e6004803603810190610579919061299b565b611662565b60405161058b919061334a565b60405180910390f35b3480156105a057600080fd5b506105a961167a565b005b3480156105b757600080fd5b506105c0611896565b6040516105cd9190612f4d565b60405180910390f35b3480156105e257600080fd5b506105eb6118ba565b6040516105f89190612f4d565b60405180910390f35b34801561060d57600080fd5b506106166118e0565b60405161062391906130b9565b60405180910390f35b34801561063857600080fd5b50610653600480360381019061064e9190612c1a565b611906565b005b34801561066157600080fd5b5061066a611b0d565b6040516106779190612ffa565b60405180910390f35b34801561068c57600080fd5b50610695611b20565b6040516106a2919061334a565b60405180910390f35b3480156106b757600080fd5b506106d260048036038101906106cd9190612aaf565b611b26565b6040516106df919061334a565b60405180910390f35b3480156106f457600080fd5b506106fd611c62565b60405161070a919061309e565b60405180910390f35b34801561071f57600080fd5b5061073a60048036038101906107359190612c1a565b611c88565b005b34801561074857600080fd5b50610751611f38565b005b34801561075f57600080fd5b5061076861212b565b604051610775919061334a565b60405180910390f35b34801561078a57600080fd5b50610793612131565b6040516107a091906130ef565b60405180910390f35b3480156107b557600080fd5b506107be612157565b6040516107cb919061334a565b60405180910390f35b3480156107e057600080fd5b506107e961215d565b005b3480156107f757600080fd5b5061080061224d565b005b34801561080e57600080fd5b50610829600480360381019061082491906129c8565b612387565b005b600160009054906101000a900473ffffffffffffffffffffffffffffffffffffffff1681565b600160009054906101000a900473ffffffffffffffffffffffffffffffffffffffff1673ffffffffffffffffffffffffffffffffffffffff163373ffffffffffffffffffffffffffffffffffffffff16146108e1576040517f08c379a00000000000000000000000000000000000000000000000000000000081526004016108d8906132ea565b60405180910390fd5b6000479050600160009054906101000a900473ffffffffffffffffffffffffffffffffffffffff1673ffffffffffffffffffffffffffffffffffffffff166108fc829081150290604051600060405180830381858888f1935050505015801561094e573d6000803e3d6000fd5b50600160009054906101000a900473ffffffffffffffffffffffffffffffffffffffff1673ffffffffffffffffffffffffffffffffffffffff167f8455ae6be5d92f1df1c3c1484388e247a36c7e60d72055ae216dbc258f257d4b826040516109b7919061334a565b60405180910390a250565b600e60009054906101000a900473ffffffffffffffffffffffffffffffffffffffff1673ffffffffffffffffffffffffffffffffffffffff1663fa89401a600260009054906101000a900473ffffffffffffffffffffffffffffffffffffffff166040518263ffffffff1660e01b8152600401610a3f9190612f4d565b600060405180830381600087803b158015610a5957600080fd5b505af1158015610a6d573d6000803e3d6000fd5b50505050565b600960019054906101000a900460ff1681565b60003390506000600b60008473ffffffffffffffffffffffffffffffffffffffff1673ffffffffffffffffffffffffffffffffffffffff16815260200190815260200160002054905060008111610b12576040517f08c379a0000000000000000000000000000000000000000000000000000000008152600401610b099061322a565b60405180910390fd5b600960009054906101000a900460ff16610b61576040517f08c379a0000000000000000000000000000000000000000000000000000000008152600401610b589061328a565b60405180910390fd5b80600a60008473ffffffffffffffffffffffffffffffffffffffff1673ffffffffffffffffffffffffffffffffffffffff1681526020019081526020016000206000828254610bb0919061349f565b9250508190555080600a60008573ffffffffffffffffffffffffffffffffffffffff1673ffffffffffffffffffffffffffffffffffffffff1681526020019081526020016000206000828254610c069190613526565b925050819055508060066000828254610c1f9190613526565b92505081905550600b60008473ffffffffffffffffffffffffffffffffffffffff1673ffffffffffffffffffffffffffffffffffffffff16815260200190815260200160002060009055600d60009054906101000a900473ffffffffffffffffffffffffffffffffffffffff1673ffffffffffffffffffffffffffffffffffffffff166323b872dd8330846040518463ffffffff1660e01b8152600401610cc893929190612f68565b602060405180830381600087803b158015610ce257600080fd5b505af1158015610cf6573d6000803e3d6000fd5b505050506040513d601f19601f82011682018060405250810190610d1a9190612a28565b610d59576040517f08c379a0000000000000000000000000000000000000000000000000000000008152600401610d50906131ea565b60405180910390fd5b600d60009054906101000a900473ffffffffffffffffffffffffffffffffffffffff1673ffffffffffffffffffffffffffffffffffffffff1663a9059cbb84836040518363ffffffff1660e01b8152600401610db6929190612fd1565b602060405180830381600087803b158015610dd057600080fd5b505af1158015610de4573d6000803e3d6000fd5b505050506040513d601f19601f82011682018060405250810190610e089190612a28565b610e47576040517f08c379a0000000000000000000000000000000000000000000000000000000008152600401610e3e906132ca565b60405180910390fd5b8173ffffffffffffffffffffffffffffffffffffffff167fc0c6ac36718cda96fac02ecd8ae8aad366fb1ce2b294e1c2de0bee39ddd328af82604051610e8d919061334a565b60405180910390a2505050565b600b6020528060005260406000206000915090505481565b600a6020528060005260406000206000915090505481565b601281565b60003390506000600a60008373ffffffffffffffffffffffffffffffffffffffff1673ffffffffffffffffffffffffffffffffffffffff16815260200190815260200160002054905060008311610f5b576040517f08c379a0000000000000000000000000000000000000000000000000000000008152600401610f529061332a565b60405180910390fd5b82811015610f9e576040517f08c379a0000000000000000000000000000000000000000000000000000000008152600401610f959061324a565b60405180910390fd5b600960009054906101000a900460ff1615610fee576040517f08c379a0000000000000000000000000000000000000000000000000000000008152600401610fe5906132aa565b60405180910390fd5b82600560008282546110009190613526565b9250508190555082600a60008473ffffffffffffffffffffffffffffffffffffffff1673ffffffffffffffffffffffffffffffffffffffff16815260200190815260200160002060008282546110569190613526565b92505081905550600d60009054906101000a900473ffffffffffffffffffffffffffffffffffffffff1673ffffffffffffffffffffffffffffffffffffffff1663a9059cbb83856040518363ffffffff1660e01b81526004016110ba929190612fd1565b602060405180830381600087803b1580156110d457600080fd5b505af11580156110e8573d6000803e3d6000fd5b505050506040513d601f19601f8201168201806040525081019061110c9190612a28565b61114b576040517f08c379a0000000000000000000000000000000000000000000000000000000008152600401611142906131ca565b60405180910390fd5b8173ffffffffffffffffffffffffffffffffffffffff167f315d4ef2c32c6e9b2d2364f5d35c06ffb3427d08357493b104b90799c99c1e3c84604051611191919061334a565b60405180910390a2505050565b600d60009054906101000a900473ffffffffffffffffffffffffffffffffffffffff1681565b601060009054906101000a900473ffffffffffffffffffffffffffffffffffffffff1681565b600380546111f79061369d565b80601f01602080910402602001604051908101604052809291908181526020018280546112239061369d565b80156112705780601f1061124557610100808354040283529160200191611270565b820191906000526020600020905b81548152906001019060200180831161125357829003601f168201915b505050505081565b60045481565b6000858560405160200161129392919061312c565b60405160208183030381529060405280519060200120905060008385836040516020016112c29392919061338e565b6040516020818303038152906040528051906020012090506000601160009054906101000a900473ffffffffffffffffffffffffffffffffffffffff1673ffffffffffffffffffffffffffffffffffffffff166364936b1e896040518263ffffffff1660e01b8152600401611337919061310a565b60206040518083038186803b15801561134f57600080fd5b505afa158015611363573d6000803e3d6000fd5b505050506040513d601f19601f820116820180604052508101906113879190612a82565b73ffffffffffffffffffffffffffffffffffffffff1663159ab14d848885886040518563ffffffff1660e01b81526004016113c59493929190613015565b602060405180830381600087803b1580156113df57600080fd5b505af11580156113f3573d6000803e3d6000fd5b505050506040513d601f19601f820116820180604052508101906114179190612c47565b90506114586040518060400160405280600a81526020017f6d696e74416d6f756e74000000000000000000000000000000000000000000008152508261256a565b3373ffffffffffffffffffffffffffffffffffffffff167f5387ab2b2012a616dcfbc6c0f6c6f7a6ef5b3fc7c7740476f7b20b65f50d59728260405161149e919061334a565b60405180910390a25050505050505050565b60055481565b6000600a60008373ffffffffffffffffffffffffffffffffffffffff1673ffffffffffffffffffffffffffffffffffffffff168152602001908152602001600020549050919050565b600080339050600061271090506000601060009054906101000a900473ffffffffffffffffffffffffffffffffffffffff1673ffffffffffffffffffffffffffffffffffffffff1663a430147f8888856040518463ffffffff1660e01b815260040161156d9392919061315c565b602060405180830381600087803b15801561158757600080fd5b505af115801561159b573d6000803e3d6000fd5b505050506040513d601f19601f820116820180604052508101906115bf9190612c47565b905080600c60008573ffffffffffffffffffffffffffffffffffffffff1673ffffffffffffffffffffffffffffffffffffffff168152602001908152602001600020819055508273ffffffffffffffffffffffffffffffffffffffff167fdacbdde355ba930696a362ea6738feb9f8bd52dfb3d81947558fd3217e23e325868360405161164d929190613365565b60405180910390a28093505050509392505050565b600c6020528060005260406000206000915090505481565b60008054906101000a900473ffffffffffffffffffffffffffffffffffffffff1673ffffffffffffffffffffffffffffffffffffffff163373ffffffffffffffffffffffffffffffffffffffff1614806117215750600160009054906101000a900473ffffffffffffffffffffffffffffffffffffffff1673ffffffffffffffffffffffffffffffffffffffff163373ffffffffffffffffffffffffffffffffffffffff16145b611760576040517f08c379a0000000000000000000000000000000000000000000000000000000008152600401611757906132ea565b60405180910390fd5b6000600d60009054906101000a900473ffffffffffffffffffffffffffffffffffffffff1673ffffffffffffffffffffffffffffffffffffffff166370a08231306040518263ffffffff1660e01b81526004016117bd9190612f4d565b60206040518083038186803b1580156117d557600080fd5b505afa1580156117e9573d6000803e3d6000fd5b505050506040513d601f19601f8201168201806040525081019061180d9190612c47565b1161184d576040517f08c379a00000000000000000000000000000000000000000000000000000000081526004016118449061330a565b60405180910390fd5b6000600960006101000a81548160ff0219169083151502179055507fde17ec5ba6f9b5379a238e2a199366faccaedccf87879284014517333da74e2660405160405180910390a1565b60008054906101000a900473ffffffffffffffffffffffffffffffffffffffff1681565b600260009054906101000a900473ffffffffffffffffffffffffffffffffffffffff1681565b600e60009054906101000a900473ffffffffffffffffffffffffffffffffffffffff1681565b60003390506000600a60008373ffffffffffffffffffffffffffffffffffffffff1673ffffffffffffffffffffffffffffffffffffffff16815260200190815260200160002054905060008311611992576040517f08c379a00000000000000000000000000000000000000000000000000000000081526004016119899061332a565b60405180910390fd5b828110156119d5576040517f08c379a00000000000000000000000000000000000000000000000000000000081526004016119cc9061324a565b60405180910390fd5b600960009054906101000a900460ff16611a24576040517f08c379a0000000000000000000000000000000000000000000000000000000008152600401611a1b9061328a565b60405180910390fd5b82600b60008473ffffffffffffffffffffffffffffffffffffffff1673ffffffffffffffffffffffffffffffffffffffff168152602001908152602001600020819055508260066000828254611a7a919061349f565b92505081905550600960019054906101000a900460ff168015611aac57506002600454611aa791906134f5565b600654115b15611aba57611ab9612606565b5b8173ffffffffffffffffffffffffffffffffffffffff167fd68fb6899f484313a5048f6f882da08bad2e51f156053cb0888c3a0a0c08259084604051611b00919061334a565b60405180910390a2505050565b600960009054906101000a900460ff1681565b60065481565b6000601160009054906101000a900473ffffffffffffffffffffffffffffffffffffffff1673ffffffffffffffffffffffffffffffffffffffff1663efa74f1f836040518263ffffffff1660e01b8152600401611b83919061310a565b60206040518083038186803b158015611b9b57600080fd5b505afa158015611baf573d6000803e3d6000fd5b505050506040513d601f19601f82011682018060405250810190611bd39190612a55565b73ffffffffffffffffffffffffffffffffffffffff166370a08231306040518263ffffffff1660e01b8152600401611c0b9190612f4d565b60206040518083038186803b158015611c2357600080fd5b505afa158015611c37573d6000803e3d6000fd5b505050506040513d601f19601f82011682018060405250810190611c5b9190612c47565b9050919050565b600f60009054906101000a900473ffffffffffffffffffffffffffffffffffffffff1681565b6000339050600960009054906101000a900460ff1615611cdd576040517f08c379a0000000000000000000000000000000000000000000000000000000008152600401611cd4906132aa565b60405180910390fd5b60008211611d20576040517f08c379a0000000000000000000000000000000000000000000000000000000008152600401611d179061332a565b60405180910390fd5b60045460055483611d31919061349f565b1115611d72576040517f08c379a0000000000000000000000000000000000000000000000000000000008152600401611d699061320a565b60405180910390fd5b81600a60008373ffffffffffffffffffffffffffffffffffffffff1673ffffffffffffffffffffffffffffffffffffffff1681526020019081526020016000206000828254611dc1919061349f565b925050819055508160056000828254611dda919061349f565b925050819055508073ffffffffffffffffffffffffffffffffffffffff167f9c4f7a1cc1751ba83a1ddccc2da94b1fcfc4efaa2c546f277e551b2dd9c0500583604051611e27919061334a565b60405180910390a26004546005541415611e4457611e436126d2565b5b600d60009054906101000a900473ffffffffffffffffffffffffffffffffffffffff1673ffffffffffffffffffffffffffffffffffffffff166323b872dd8230856040518463ffffffff1660e01b8152600401611ea393929190612f68565b602060405180830381600087803b158015611ebd57600080fd5b505af1158015611ed1573d6000803e3d6000fd5b505050506040513d601f19601f82011682018060405250810190611ef59190612a28565b611f34576040517f08c379a0000000000000000000000000000000000000000000000000000000008152600401611f2b906131ea565b60405180910390fd5b5050565b600160009054906101000a900473ffffffffffffffffffffffffffffffffffffffff1673ffffffffffffffffffffffffffffffffffffffff163373ffffffffffffffffffffffffffffffffffffffff1614611fc8576040517f08c379a0000000000000000000000000000000000000000000000000000000008152600401611fbf906132ea565b60405180910390fd5b600960009054906101000a900460ff16612017576040517f08c379a000000000000000000000000000000000000000000000000000000000815260040161200e9061328a565b60405180910390fd5b600d60009054906101000a900473ffffffffffffffffffffffffffffffffffffffff1673ffffffffffffffffffffffffffffffffffffffff1663095ea7b3600e60009054906101000a900473ffffffffffffffffffffffffffffffffffffffff166004546040518363ffffffff1660e01b8152600401612098929190612fd1565b602060405180830381600087803b1580156120b257600080fd5b505af11580156120c6573d6000803e3d6000fd5b505050506040513d601f19601f820116820180604052508101906120ea9190612a28565b612129576040517f08c379a00000000000000000000000000000000000000000000000000000000081526004016121209061326a565b60405180910390fd5b565b60075481565b601160009054906101000a900473ffffffffffffffffffffffffffffffffffffffff1681565b60085481565b60008054906101000a900473ffffffffffffffffffffffffffffffffffffffff1673ffffffffffffffffffffffffffffffffffffffff163373ffffffffffffffffffffffffffffffffffffffff1614806122045750600160009054906101000a900473ffffffffffffffffffffffffffffffffffffffff1673ffffffffffffffffffffffffffffffffffffffff163373ffffffffffffffffffffffffffffffffffffffff16145b612243576040517f08c379a000000000000000000000000000000000000000000000000000000000815260040161223a906132ea565b60405180910390fd5b61224b612606565b565b60003390506000600b60008373ffffffffffffffffffffffffffffffffffffffff1673ffffffffffffffffffffffffffffffffffffffff168152602001908152602001600020549050600081116122d9576040517f08c379a00000000000000000000000000000000000000000000000000000000081526004016122d09061322a565b60405180910390fd5b80600660008282546122eb9190613526565b92505081905550600b60008373ffffffffffffffffffffffffffffffffffffffff1673ffffffffffffffffffffffffffffffffffffffff168152602001908152602001600020600090558173ffffffffffffffffffffffffffffffffffffffff167f97470f6911e16b5918a53053f8d1a686e0acaf6a4bfc7b79d064aa24b9f057138260405161237b919061334a565b60405180910390a25050565b600160009054906101000a900473ffffffffffffffffffffffffffffffffffffffff1673ffffffffffffffffffffffffffffffffffffffff163373ffffffffffffffffffffffffffffffffffffffff1614612417576040517f08c379a000000000000000000000000000000000000000000000000000000000815260040161240e906132ea565b60405180910390fd5b600960009054906101000a900460ff16612466576040517f08c379a000000000000000000000000000000000000000000000000000000000815260040161245d9061328a565b60405180910390fd5b600e60009054906101000a900473ffffffffffffffffffffffffffffffffffffffff1673ffffffffffffffffffffffffffffffffffffffff166324b8fbf68484846040518463ffffffff1660e01b81526004016124c593929190612f9f565b600060405180830381600087803b1580156124df57600080fd5b505af11580156124f3573d6000803e3d6000fd5b505050506001600960016101000a81548160ff02191690831515021790555082600260006101000a81548173ffffffffffffffffffffffffffffffffffffffff021916908373ffffffffffffffffffffffffffffffffffffffff160217905550818160039190612564929190612744565b50505050565b612602828260405160240161258092919061319a565b6040516020818303038152906040527f9710a9d0000000000000000000000000000000000000000000000000000000007bffffffffffffffffffffffffffffffffffffffffffffffffffffffff19166020820180517bffffffffffffffffffffffffffffffffffffffffffffffffffffffff838183161783525050505061271b565b5050565b600e60009054906101000a900473ffffffffffffffffffffffffffffffffffffffff1673ffffffffffffffffffffffffffffffffffffffff166384ac33ec600260009054906101000a900473ffffffffffffffffffffffffffffffffffffffff166040518263ffffffff1660e01b81526004016126839190612f4d565b600060405180830381600087803b15801561269d57600080fd5b505af11580156126b1573d6000803e3d6000fd5b505050506000600960016101000a81548160ff021916908315150217905550565b6001600960006101000a81548160ff0219169083151502179055507f2e136745550967f28b779ce8c395ca060a2f844edfb5b06631fe677f66f9e30560405160405180910390a1565b60008151905060006a636f6e736f6c652e6c6f679050602083016000808483855afa5050505050565b8280546127509061369d565b90600052602060002090601f01602090048101928261277257600085556127b9565b82601f1061278b57803560ff19168380011785556127b9565b828001600101855582156127b9579182015b828111156127b857823582559160200191906001019061279d565b5b5090506127c691906127ca565b5090565b5b808211156127e35760008160009055506001016127cb565b5090565b60006127fa6127f584613405565b6133e0565b905082815260208101848484011115612816576128156137cb565b5b61282184828561365b565b509392505050565b600061283c61283784613436565b6133e0565b905082815260208101848484011115612858576128576137cb565b5b61286384828561365b565b509392505050565b60008135905061287a816139d7565b92915050565b60008151905061288f816139ee565b92915050565b60008083601f8401126128ab576128aa6137c1565b5b8235905067ffffffffffffffff8111156128c8576128c76137bc565b5b6020830191508360018202830111156128e4576128e36137c6565b5b9250929050565b600082601f830112612900576128ff6137c1565b5b81356129108482602086016127e7565b91505092915050565b60008151905061292881613a05565b92915050565b60008151905061293d81613a1c565b92915050565b600082601f830112612958576129576137c1565b5b8135612968848260208601612829565b91505092915050565b60008135905061298081613a33565b92915050565b60008151905061299581613a33565b92915050565b6000602082840312156129b1576129b06137d5565b5b60006129bf8482850161286b565b91505092915050565b6000806000604084860312156129e1576129e06137d5565b5b60006129ef8682870161286b565b935050602084013567ffffffffffffffff811115612a1057612a0f6137d0565b5b612a1c86828701612895565b92509250509250925092565b600060208284031215612a3e57612a3d6137d5565b5b6000612a4c84828501612880565b91505092915050565b600060208284031215612a6b57612a6a6137d5565b5b6000612a7984828501612919565b91505092915050565b600060208284031215612a9857612a976137d5565b5b6000612aa68482850161292e565b91505092915050565b600060208284031215612ac557612ac46137d5565b5b600082013567ffffffffffffffff811115612ae357612ae26137d0565b5b612aef84828501612943565b91505092915050565b600080600060608486031215612b1157612b106137d5565b5b600084013567ffffffffffffffff811115612b2f57612b2e6137d0565b5b612b3b86828701612943565b9350506020612b4c8682870161286b565b9250506040612b5d86828701612971565b9150509250925092565b600080600080600060a08688031215612b8357612b826137d5565b5b600086013567ffffffffffffffff811115612ba157612ba06137d0565b5b612bad88828901612943565b9550506020612bbe8882890161286b565b9450506040612bcf88828901612971565b9350506060612be088828901612971565b925050608086013567ffffffffffffffff811115612c0157612c006137d0565b5b612c0d888289016128eb565b9150509295509295909350565b600060208284031215612c3057612c2f6137d5565b5b6000612c3e84828501612971565b91505092915050565b600060208284031215612c5d57612c5c6137d5565b5b6000612c6b84828501612986565b91505092915050565b612c7d8161355a565b82525050565b612c8c8161356c565b82525050565b612c9b81613578565b82525050565b6000612cad838561347d565b9350612cba83858461365b565b612cc3836137da565b840190509392505050565b6000612cd982613467565b612ce3818561347d565b9350612cf381856020860161366a565b612cfc816137da565b840191505092915050565b612d10816135dd565b82525050565b612d1f816135ef565b82525050565b612d2e81613601565b82525050565b612d3d81613613565b82525050565b612d4c81613625565b82525050565b6000612d5d82613472565b612d67818561348e565b9350612d7781856020860161366a565b612d80816137da565b840191505092915050565b6000612d9860188361348e565b9150612da3826137eb565b602082019050919050565b6000612dbb60178361348e565b9150612dc682613814565b602082019050919050565b6000612dde601e8361348e565b9150612de98261383d565b602082019050919050565b6000612e0160178361348e565b9150612e0c82613866565b602082019050919050565b6000612e24601b8361348e565b9150612e2f8261388f565b602082019050919050565b6000612e47601d8361348e565b9150612e52826138b8565b602082019050919050565b6000612e6a601b8361348e565b9150612e75826138e1565b602082019050919050565b6000612e8d60178361348e565b9150612e988261390a565b602082019050919050565b6000612eb060168361348e565b9150612ebb82613933565b602082019050919050565b6000612ed360158361348e565b9150612ede8261395c565b602082019050919050565b6000612ef6601d8361348e565b9150612f0182613985565b602082019050919050565b6000612f1960178361348e565b9150612f24826139ae565b602082019050919050565b612f38816135c6565b82525050565b612f47816135d0565b82525050565b6000602082019050612f626000830184612c74565b92915050565b6000606082019050612f7d6000830186612c74565b612f8a6020830185612c74565b612f976040830184612f2f565b949350505050565b6000604082019050612fb46000830186612c74565b8181036020830152612fc7818486612ca1565b9050949350505050565b6000604082019050612fe66000830185612c74565b612ff36020830184612f2f565b9392505050565b600060208201905061300f6000830184612c83565b92915050565b600060808201905061302a6000830187612c92565b6130376020830186612f2f565b6130446040830185612c92565b81810360608301526130568184612cce565b905095945050505050565b6000602082019050818103600083015261307b8184612cce565b905092915050565b60006020820190506130986000830184612d07565b92915050565b60006020820190506130b36000830184612d16565b92915050565b60006020820190506130ce6000830184612d25565b92915050565b60006020820190506130e96000830184612d34565b92915050565b60006020820190506131046000830184612d43565b92915050565b600060208201905081810360008301526131248184612d52565b905092915050565b600060408201905081810360008301526131468185612d52565b90506131556020830184612c74565b9392505050565b600060608201905081810360008301526131768186612d52565b90506131856020830185612c74565b6131926040830184612f2f565b949350505050565b600060408201905081810360008301526131b48185612d52565b90506131c36020830184612f2f565b9392505050565b600060208201905081810360008301526131e381612d8b565b9050919050565b6000602082019050818103600083015261320381612dae565b9050919050565b6000602082019050818103600083015261322381612dd1565b9050919050565b6000602082019050818103600083015261324381612df4565b9050919050565b6000602082019050818103600083015261326381612e17565b9050919050565b6000602082019050818103600083015261328381612e3a565b9050919050565b600060208201905081810360008301526132a381612e5d565b9050919050565b600060208201905081810360008301526132c381612e80565b9050919050565b600060208201905081810360008301526132e381612ea3565b9050919050565b6000602082019050818103600083015261330381612ec6565b9050919050565b6000602082019050818103600083015261332381612ee9565b9050919050565b6000602082019050818103600083015261334381612f0c565b9050919050565b600060208201905061335f6000830184612f2f565b92915050565b600060408201905061337a6000830185612f2f565b6133876020830184612f2f565b9392505050565b60006060820190506133a36000830186612f2f565b6133b06020830185612f2f565b6133bd6040830184612c92565b949350505050565b60006020820190506133da6000830184612f3e565b92915050565b60006133ea6133fb565b90506133f682826136cf565b919050565b6000604051905090565b600067ffffffffffffffff8211156134205761341f61378d565b5b613429826137da565b9050602081019050919050565b600067ffffffffffffffff8211156134515761345061378d565b5b61345a826137da565b9050602081019050919050565b600081519050919050565b600081519050919050565b600082825260208201905092915050565b600082825260208201905092915050565b60006134aa826135c6565b91506134b5836135c6565b9250827fffffffffffffffffffffffffffffffffffffffffffffffffffffffffffffffff038211156134ea576134e9613700565b5b828201905092915050565b6000613500826135c6565b915061350b836135c6565b92508261351b5761351a61372f565b5b828204905092915050565b6000613531826135c6565b915061353c836135c6565b92508282101561354f5761354e613700565b5b828203905092915050565b6000613565826135a6565b9050919050565b60008115159050919050565b6000819050919050565b600061358d8261355a565b9050919050565b600061359f8261355a565b9050919050565b600073ffffffffffffffffffffffffffffffffffffffff82169050919050565b6000819050919050565b600060ff82169050919050565b60006135e882613637565b9050919050565b60006135fa82613637565b9050919050565b600061360c82613637565b9050919050565b600061361e82613637565b9050919050565b600061363082613637565b9050919050565b600061364282613649565b9050919050565b6000613654826135a6565b9050919050565b82818337600083830152505050565b60005b8381101561368857808201518184015260208101905061366d565b83811115613697576000848401525b50505050565b600060028204905060018216806136b557607f821691505b602082108114156136c9576136c861375e565b5b50919050565b6136d8826137da565b810181811067ffffffffffffffff821117156136f7576136f661378d565b5b80604052505050565b7f4e487b7100000000000000000000000000000000000000000000000000000000600052601160045260246000fd5b7f4e487b7100000000000000000000000000000000000000000000000000000000600052601260045260246000fd5b7f4e487b7100000000000000000000000000000000000000000000000000000000600052602260045260246000fd5b7f4e487b7100000000000000000000000000000000000000000000000000000000600052604160045260246000fd5b600080fd5b600080fd5b600080fd5b600080fd5b600080fd5b600080fd5b6000601f19601f8301169050919050565b7f52656e506f6f6c3a205769746864726177206661696c65640000000000000000600082015250565b7f52656e506f6f6c3a204465706f736974206661696c6564000000000000000000600082015250565b7f52656e506f6f6c3a20416d6f756e742073757270617373657320626f6e640000600082015250565b7f52656e506f6f6c3a20696e76616c696420616d6f756e74000000000000000000600082015250565b7f52656e506f6f6c3a20496e73756666696369656e742066756e64730000000000600082015250565b7f52656e506f6f6c3a20426f6e64207472616e73666572206661696c6564000000600082015250565b7f52656e506f6f6c3a20506f6f6c206973206e6f74206c6f636b65640000000000600082015250565b7f52656e506f6f6c3a20506f6f6c206973206c6f636b6564000000000000000000600082015250565b7f52656e506f6f6c3a20526566756e64206661696c656400000000000000000000600082015250565b7f52656e506f6f6c3a20556e617574686f72697a65640000000000000000000000600082015250565b7f52656e506f6f6c3a20506f6f6c2062616c616e6365206973207a65726f000000600082015250565b7f52656e506f6f6c3a20496e76616c696420616d6f756e74000000000000000000600082015250565b6139e08161355a565b81146139eb57600080fd5b50565b6139f78161356c565b8114613a0257600080fd5b50565b613a0e81613582565b8114613a1957600080fd5b50565b613a2581613594565b8114613a3057600080fd5b50565b613a3c816135c6565b8114613a4757600080fd5b5056fea26469706673582212200d75bb3d56461e8449387630b7f2039001d77c46cf625fab3f151f5223547a2464736f6c63430008070033",
  "linkReferences": {},
  "deployedLinkReferences": {}
}