{
  "_format": "hh-sol-artifact-1",
  "contractName": "RenPool",
  "sourceName": "contracts/RenPool.sol",
  "abi": [
    {
      "inputs": [
        {
          "internalType": "address",
          "name": "_renTokenAddr",
          "type": "address"
        },
        {
          "internalType": "address",
          "name": "_darknodeRegistryAddr",
          "type": "address"
        },
        {
          "internalType": "address",
          "name": "_darknodePaymentAddr",
          "type": "address"
        },
        {
          "internalType": "address",
          "name": "_claimRewardsAddr",
          "type": "address"
        },
        {
          "internalType": "address",
          "name": "_gatewayRegistryAddr",
          "type": "address"
        },
        {
          "internalType": "address",
          "name": "_owner",
          "type": "address"
        },
        {
          "internalType": "address",
          "name": "_nodeOperator",
          "type": "address"
        },
        {
          "internalType": "uint256",
          "name": "_bond",
          "type": "uint256"
        }
      ],
      "stateMutability": "nonpayable",
      "type": "constructor"
    },
    {
      "anonymous": false,
      "inputs": [
        {
          "indexed": true,
          "internalType": "address",
          "name": "_from",
          "type": "address"
        },
        {
          "indexed": false,
          "internalType": "uint256",
          "name": "_amount",
          "type": "uint256"
        }
      ],
      "name": "EthDeposited",
      "type": "event"
    },
    {
      "anonymous": false,
      "inputs": [
        {
          "indexed": true,
          "internalType": "address",
          "name": "_from",
          "type": "address"
        },
        {
          "indexed": false,
          "internalType": "uint256",
          "name": "_amount",
          "type": "uint256"
        }
      ],
      "name": "EthWithdrawn",
      "type": "event"
    },
    {
      "anonymous": false,
      "inputs": [],
      "name": "PoolLocked",
      "type": "event"
    },
    {
      "anonymous": false,
      "inputs": [],
      "name": "PoolUnlocked",
      "type": "event"
    },
    {
      "anonymous": false,
      "inputs": [
        {
          "indexed": true,
          "internalType": "address",
          "name": "_from",
          "type": "address"
        },
        {
          "indexed": false,
          "internalType": "uint256",
          "name": "_amount",
          "type": "uint256"
        }
      ],
      "name": "RenDeposited",
      "type": "event"
    },
    {
      "anonymous": false,
      "inputs": [
        {
          "indexed": true,
          "internalType": "address",
          "name": "_from",
          "type": "address"
        },
        {
          "indexed": false,
          "internalType": "uint256",
          "name": "_amount",
          "type": "uint256"
        }
      ],
      "name": "RenWithdrawalRequestCancelled",
      "type": "event"
    },
    {
      "anonymous": false,
      "inputs": [
        {
          "indexed": true,
          "internalType": "address",
          "name": "_from",
          "type": "address"
        },
        {
          "indexed": false,
          "internalType": "uint256",
          "name": "_amount",
          "type": "uint256"
        }
      ],
      "name": "RenWithdrawalRequestFulfilled",
      "type": "event"
    },
    {
      "anonymous": false,
      "inputs": [
        {
          "indexed": true,
          "internalType": "address",
          "name": "_from",
          "type": "address"
        },
        {
          "indexed": false,
          "internalType": "uint256",
          "name": "_amount",
          "type": "uint256"
        }
      ],
      "name": "RenWithdrawalRequested",
      "type": "event"
    },
    {
      "anonymous": false,
      "inputs": [
        {
          "indexed": true,
          "internalType": "address",
          "name": "_from",
          "type": "address"
        },
        {
          "indexed": false,
          "internalType": "uint256",
          "name": "_amount",
          "type": "uint256"
        }
      ],
      "name": "RenWithdrawn",
      "type": "event"
    },
    {
      "anonymous": false,
      "inputs": [
        {
          "indexed": true,
          "internalType": "address",
          "name": "_from",
          "type": "address"
        },
        {
          "indexed": false,
          "internalType": "uint256",
          "name": "_amount",
          "type": "uint256"
        },
        {
          "indexed": false,
          "internalType": "uint256",
          "name": "_nonce",
          "type": "uint256"
        }
      ],
      "name": "RewardsClaimed",
      "type": "event"
    },
    {
      "anonymous": false,
      "inputs": [
        {
          "indexed": true,
          "internalType": "address",
          "name": "_from",
          "type": "address"
        },
        {
          "indexed": false,
          "internalType": "uint256",
          "name": "_mintedAmount",
          "type": "uint256"
        }
      ],
      "name": "RewardsMinted",
      "type": "event"
    },
    {
      "inputs": [],
      "name": "DECIMALS",
      "outputs": [
        {
          "internalType": "uint8",
          "name": "",
          "type": "uint8"
        }
      ],
      "stateMutability": "view",
      "type": "function"
    },
    {
      "inputs": [],
      "name": "approveBondTransfer",
      "outputs": [],
      "stateMutability": "nonpayable",
      "type": "function"
    },
    {
      "inputs": [
        {
          "internalType": "address",
          "name": "_target",
          "type": "address"
        }
      ],
      "name": "balanceOf",
      "outputs": [
        {
          "internalType": "uint256",
          "name": "",
          "type": "uint256"
        }
      ],
      "stateMutability": "view",
      "type": "function"
    },
    {
      "inputs": [
        {
          "internalType": "address",
          "name": "",
          "type": "address"
        }
      ],
      "name": "balances",
      "outputs": [
        {
          "internalType": "uint256",
          "name": "",
          "type": "uint256"
        }
      ],
      "stateMutability": "view",
      "type": "function"
    },
    {
      "inputs": [],
      "name": "bond",
      "outputs": [
        {
          "internalType": "uint256",
          "name": "",
          "type": "uint256"
        }
      ],
      "stateMutability": "view",
      "type": "function"
    },
    {
      "inputs": [],
      "name": "cancelWithdrawRequest",
      "outputs": [],
      "stateMutability": "nonpayable",
      "type": "function"
    },
    {
      "inputs": [],
      "name": "claimRewards",
      "outputs": [
        {
          "internalType": "contract IClaimRewardsV1",
          "name": "",
          "type": "address"
        }
      ],
      "stateMutability": "view",
      "type": "function"
    },
    {
      "inputs": [
        {
          "internalType": "string",
          "name": "_assetSymbol",
          "type": "string"
        },
        {
          "internalType": "address",
          "name": "_recipientAddress",
          "type": "address"
        },
        {
          "internalType": "uint256",
          "name": "_amount",
          "type": "uint256"
        }
      ],
      "name": "claimRewardsToChain",
      "outputs": [
        {
          "internalType": "uint256",
          "name": "",
          "type": "uint256"
        }
      ],
      "stateMutability": "nonpayable",
      "type": "function"
    },
    {
      "inputs": [],
      "name": "darknodeID",
      "outputs": [
        {
          "internalType": "address",
          "name": "",
          "type": "address"
        }
      ],
      "stateMutability": "view",
      "type": "function"
    },
    {
      "inputs": [],
      "name": "darknodePayment",
      "outputs": [
        {
          "internalType": "contract IDarknodePayment",
          "name": "",
          "type": "address"
        }
      ],
      "stateMutability": "view",
      "type": "function"
    },
    {
      "inputs": [],
      "name": "darknodeRegistry",
      "outputs": [
        {
          "internalType": "contract IDarknodeRegistry",
          "name": "",
          "type": "address"
        }
      ],
      "stateMutability": "view",
      "type": "function"
    },
    {
      "inputs": [
        {
          "internalType": "uint256",
          "name": "_amount",
          "type": "uint256"
        }
      ],
      "name": "deposit",
      "outputs": [],
      "stateMutability": "nonpayable",
      "type": "function"
    },
    {
      "inputs": [],
      "name": "deregisterDarknode",
      "outputs": [],
      "stateMutability": "nonpayable",
      "type": "function"
    },
    {
      "inputs": [
        {
          "internalType": "address",
          "name": "_target",
          "type": "address"
        }
      ],
      "name": "fulfillWithdrawRequest",
      "outputs": [],
      "stateMutability": "nonpayable",
      "type": "function"
    },
    {
      "inputs": [],
      "name": "gatewayRegistry",
      "outputs": [
        {
          "internalType": "contract IGatewayRegistry",
          "name": "",
          "type": "address"
        }
      ],
      "stateMutability": "view",
      "type": "function"
    },
    {
      "inputs": [
        {
          "internalType": "string",
          "name": "_assetSymbol",
          "type": "string"
        }
      ],
      "name": "getDarknodeBalance",
      "outputs": [
        {
          "internalType": "uint256",
          "name": "",
          "type": "uint256"
        }
      ],
      "stateMutability": "view",
      "type": "function"
    },
    {
      "inputs": [],
      "name": "isLocked",
      "outputs": [
        {
          "internalType": "bool",
          "name": "",
          "type": "bool"
        }
      ],
      "stateMutability": "view",
      "type": "function"
    },
    {
      "inputs": [
        {
          "internalType": "string",
          "name": "_assetSymbol",
          "type": "string"
        },
        {
          "internalType": "address",
          "name": "_recipientAddress",
          "type": "address"
        },
        {
          "internalType": "uint256",
          "name": "_amount",
          "type": "uint256"
        },
        {
          "internalType": "uint256",
          "name": "_nonce",
          "type": "uint256"
        },
        {
          "internalType": "bytes",
          "name": "_sig",
          "type": "bytes"
        }
      ],
      "name": "mintRewards",
      "outputs": [],
      "stateMutability": "nonpayable",
      "type": "function"
    },
    {
      "inputs": [],
      "name": "nodeOperator",
      "outputs": [
        {
          "internalType": "address",
          "name": "",
          "type": "address"
        }
      ],
      "stateMutability": "view",
      "type": "function"
    },
    {
      "inputs": [],
      "name": "nodeOperatorFee",
      "outputs": [
        {
          "internalType": "uint256",
          "name": "",
          "type": "uint256"
        }
      ],
      "stateMutability": "view",
      "type": "function"
    },
    {
      "inputs": [
        {
          "internalType": "address",
          "name": "",
          "type": "address"
        }
      ],
      "name": "nonces",
      "outputs": [
        {
          "internalType": "uint256",
          "name": "",
          "type": "uint256"
        }
      ],
      "stateMutability": "view",
      "type": "function"
    },
    {
      "inputs": [],
      "name": "owner",
      "outputs": [
        {
          "internalType": "address",
          "name": "",
          "type": "address"
        }
      ],
      "stateMutability": "view",
      "type": "function"
    },
    {
      "inputs": [],
      "name": "ownerFee",
      "outputs": [
        {
          "internalType": "uint256",
          "name": "",
          "type": "uint256"
        }
      ],
      "stateMutability": "view",
      "type": "function"
    },
    {
      "inputs": [],
      "name": "publicKey",
      "outputs": [
        {
          "internalType": "bytes",
          "name": "",
          "type": "bytes"
        }
      ],
      "stateMutability": "view",
      "type": "function"
    },
    {
      "inputs": [],
      "name": "refundBond",
      "outputs": [],
      "stateMutability": "nonpayable",
      "type": "function"
    },
    {
      "inputs": [
        {
          "internalType": "address",
          "name": "_darknodeID",
          "type": "address"
        },
        {
          "internalType": "bytes",
          "name": "_publicKey",
          "type": "bytes"
        }
      ],
      "name": "registerDarknode",
      "outputs": [],
      "stateMutability": "nonpayable",
      "type": "function"
    },
    {
      "inputs": [],
      "name": "renToken",
      "outputs": [
        {
          "internalType": "contract IERC20",
          "name": "",
          "type": "address"
        }
      ],
      "stateMutability": "view",
      "type": "function"
    },
    {
      "inputs": [
        {
          "internalType": "uint256",
          "name": "_amount",
          "type": "uint256"
        }
      ],
      "name": "requestWithdraw",
      "outputs": [],
      "stateMutability": "nonpayable",
      "type": "function"
    },
    {
      "inputs": [],
      "name": "totalPooled",
      "outputs": [
        {
          "internalType": "uint256",
          "name": "",
          "type": "uint256"
        }
      ],
      "stateMutability": "view",
      "type": "function"
    },
    {
      "inputs": [],
      "name": "totalWithdrawalRequested",
      "outputs": [
        {
          "internalType": "uint256",
          "name": "",
          "type": "uint256"
        }
      ],
      "stateMutability": "view",
      "type": "function"
    },
    {
      "inputs": [],
      "name": "unlockPool",
      "outputs": [],
      "stateMutability": "nonpayable",
      "type": "function"
    },
    {
      "inputs": [
        {
          "internalType": "uint256",
          "name": "_amount",
          "type": "uint256"
        }
      ],
      "name": "withdraw",
      "outputs": [],
      "stateMutability": "nonpayable",
      "type": "function"
    },
    {
      "inputs": [],
      "name": "withdrawGas",
      "outputs": [],
      "stateMutability": "nonpayable",
      "type": "function"
    },
    {
      "inputs": [
        {
          "internalType": "address",
          "name": "",
          "type": "address"
        }
      ],
      "name": "withdrawRequests",
      "outputs": [
        {
          "internalType": "uint256",
          "name": "",
          "type": "uint256"
        }
      ],
      "stateMutability": "view",
      "type": "function"
    },
    {
      "stateMutability": "payable",
      "type": "receive"
    }
  ],
  "bytecode": "0x60806040523480156200001157600080fd5b5060405162003f5e38038062003f5e83398181016040528101906200003791906200027b565b826000806101000a81548173ffffffffffffffffffffffffffffffffffffffff021916908373ffffffffffffffffffffffffffffffffffffffff16021790555081600160006101000a81548173ffffffffffffffffffffffffffffffffffffffff021916908373ffffffffffffffffffffffffffffffffffffffff16021790555087600d60006101000a81548173ffffffffffffffffffffffffffffffffffffffff021916908373ffffffffffffffffffffffffffffffffffffffff16021790555086600e60006101000a81548173ffffffffffffffffffffffffffffffffffffffff021916908373ffffffffffffffffffffffffffffffffffffffff16021790555085600f60006101000a81548173ffffffffffffffffffffffffffffffffffffffff021916908373ffffffffffffffffffffffffffffffffffffffff16021790555084601060006101000a81548173ffffffffffffffffffffffffffffffffffffffff021916908373ffffffffffffffffffffffffffffffffffffffff16021790555083601160006101000a81548173ffffffffffffffffffffffffffffffffffffffff021916908373ffffffffffffffffffffffffffffffffffffffff160217905550806004819055506000600960006101000a81548160ff02191690831515021790555060006005819055506000600681905550600560078190555060056008819055505050505050505050620003bb565b6000815190506200025e8162000387565b92915050565b6000815190506200027581620003a1565b92915050565b600080600080600080600080610100898b0312156200029f576200029e62000382565b5b6000620002af8b828c016200024d565b9850506020620002c28b828c016200024d565b9750506040620002d58b828c016200024d565b9650506060620002e88b828c016200024d565b9550506080620002fb8b828c016200024d565b94505060a06200030e8b828c016200024d565b93505060c0620003218b828c016200024d565b92505060e0620003348b828c0162000264565b9150509295985092959890939650565b6000620003518262000358565b9050919050565b600073ffffffffffffffffffffffffffffffffffffffff82169050919050565b6000819050919050565b600080fd5b620003928162000344565b81146200039e57600080fd5b50565b620003ac8162000378565b8114620003b857600080fd5b50565b613b9380620003cb6000396000f3fe6080604052600436106101fd5760003560e01c8063890265381161010d578063b6b34c67116100a0578063d693452e1161006f578063d693452e14610748578063e19e716814610773578063e39f61011461078a578063e438a77d146107b5578063e7585aea146107cc57610252565b8063b6b34c67146106b2578063b6b55f25146106dd578063b7eb85c414610706578063d5b2a01a1461071d57610252565b8063a4e2d634116100dc578063a4e2d634146105f6578063aaaa0c4b14610621578063ac3479871461064c578063b46ff3c31461068957610252565b8063890265381461055e5780638da5cb5b14610575578063901a6498146105a05780639e45e0d0146105cb57610252565b806352df49ec116101905780636ec21cc81161015f5780636ec21cc81461045357806370a082311461047e57806371bbef36146104bb578063745400c9146104f85780637ecebe001461052157610252565b806352df49ec1461039757806363ffab31146103d457806364c9ec6f146103ff5780636664e42e1461042a57610252565b80632e0f2625116101cc5780632e0f2625146102ed5780632e1a7d4d1461031857806334246f9b14610341578063372500ab1461036c57610252565b8063023c5b08146102575780631261795d1461028257806313a0ae2b1461029957806327e235e3146102b057610252565b36610252573373ffffffffffffffffffffffffffffffffffffffff167f66ff7c8f71ccc7c36152a41920d0d3b46ef3034359f76aa1498ed4478c204b5c346040516102489190613448565b60405180910390a2005b600080fd5b34801561026357600080fd5b5061026c6107f5565b604051610279919061302b565b60405180910390f35b34801561028e57600080fd5b5061029761081b565b005b3480156102a557600080fd5b506102ae61098c565b005b3480156102bc57600080fd5b506102d760048036038101906102d29190612a56565b610a3d565b6040516102e49190613448565b60405180910390f35b3480156102f957600080fd5b50610302610a55565b60405161030f91906134c3565b60405180910390f35b34801561032457600080fd5b5061033f600480360381019061033a9190612cd5565b610a5a565b005b34801561034d57600080fd5b50610356610d35565b60405161036391906131b2565b60405180910390f35b34801561037857600080fd5b50610381610d5b565b60405161038e9190613161565b60405180910390f35b3480156103a357600080fd5b506103be60048036038101906103b99190612a56565b610d81565b6040516103cb9190613448565b60405180910390f35b3480156103e057600080fd5b506103e9610d99565b6040516103f6919061313f565b60405180910390f35b34801561040b57600080fd5b50610414610e27565b6040516104219190613448565b60405180910390f35b34801561043657600080fd5b50610451600480360381019061044c9190612c22565b610e2d565b005b34801561045f57600080fd5b5061046861105f565b6040516104759190613448565b60405180910390f35b34801561048a57600080fd5b506104a560048036038101906104a09190612a56565b611065565b6040516104b29190613448565b60405180910390f35b3480156104c757600080fd5b506104e260048036038101906104dd9190612bb3565b6110ae565b6040516104ef9190613448565b60405180910390f35b34801561050457600080fd5b5061051f600480360381019061051a9190612cd5565b611211565b005b34801561052d57600080fd5b5061054860048036038101906105439190612a56565b6113eb565b6040516105559190613448565b60405180910390f35b34801561056a57600080fd5b50610573611403565b005b34801561058157600080fd5b5061058a61161f565b604051610597919061302b565b60405180910390f35b3480156105ac57600080fd5b506105b5611643565b6040516105c2919061302b565b60405180910390f35b3480156105d757600080fd5b506105e0611669565b6040516105ed9190613197565b60405180910390f35b34801561060257600080fd5b5061060b61168f565b60405161061891906130d8565b60405180910390f35b34801561062d57600080fd5b506106366116a2565b6040516106439190613448565b60405180910390f35b34801561065857600080fd5b50610673600480360381019061066e9190612b6a565b6116a8565b6040516106809190613448565b60405180910390f35b34801561069557600080fd5b506106b060048036038101906106ab9190612a56565b6117e4565b005b3480156106be57600080fd5b506106c7611bf8565b6040516106d4919061317c565b60405180910390f35b3480156106e957600080fd5b5061070460048036038101906106ff9190612cd5565b611c1e565b005b34801561071257600080fd5b5061071b611ece565b005b34801561072957600080fd5b506107326120c1565b60405161073f9190613448565b60405180910390f35b34801561075457600080fd5b5061075d6120c7565b60405161076a91906131cd565b60405180910390f35b34801561077f57600080fd5b506107886120ed565b005b34801561079657600080fd5b5061079f6122e6565b6040516107ac9190613448565b60405180910390f35b3480156107c157600080fd5b506107ca6122ec565b005b3480156107d857600080fd5b506107f360048036038101906107ee9190612a83565b6123dc565b005b600160009054906101000a900473ffffffffffffffffffffffffffffffffffffffff1681565b600160009054906101000a900473ffffffffffffffffffffffffffffffffffffffff1673ffffffffffffffffffffffffffffffffffffffff163373ffffffffffffffffffffffffffffffffffffffff16146108ab576040517f08c379a00000000000000000000000000000000000000000000000000000000081526004016108a2906133c8565b60405180910390fd5b6000479050600160009054906101000a900473ffffffffffffffffffffffffffffffffffffffff1673ffffffffffffffffffffffffffffffffffffffff166108fc829081150290604051600060405180830381858888f19350505050158015610918573d6000803e3d6000fd5b50600160009054906101000a900473ffffffffffffffffffffffffffffffffffffffff1673ffffffffffffffffffffffffffffffffffffffff167f8455ae6be5d92f1df1c3c1484388e247a36c7e60d72055ae216dbc258f257d4b826040516109819190613448565b60405180910390a250565b600e60009054906101000a900473ffffffffffffffffffffffffffffffffffffffff1673ffffffffffffffffffffffffffffffffffffffff1663fa89401a600260009054906101000a900473ffffffffffffffffffffffffffffffffffffffff166040518263ffffffff1660e01b8152600401610a09919061302b565b600060405180830381600087803b158015610a2357600080fd5b505af1158015610a37573d6000803e3d6000fd5b50505050565b600a6020528060005260406000206000915090505481565b601281565b60003390506000600a60008373ffffffffffffffffffffffffffffffffffffffff1673ffffffffffffffffffffffffffffffffffffffff16815260200190815260200160002054905060008311610ae6576040517f08c379a0000000000000000000000000000000000000000000000000000000008152600401610add90613428565b60405180910390fd5b600081118015610af65750828110155b610b35576040517f08c379a0000000000000000000000000000000000000000000000000000000008152600401610b2c90613348565b60405180910390fd5b600960009054906101000a900460ff1615610b85576040517f08c379a0000000000000000000000000000000000000000000000000000000008152600401610b7c906133a8565b60405180910390fd5b8260056000828254610b9791906135f3565b9250508190555082600a60008473ffffffffffffffffffffffffffffffffffffffff1673ffffffffffffffffffffffffffffffffffffffff1681526020019081526020016000206000828254610bed91906135f3565b92505081905550600d60009054906101000a900473ffffffffffffffffffffffffffffffffffffffff1673ffffffffffffffffffffffffffffffffffffffff1663a9059cbb83856040518363ffffffff1660e01b8152600401610c519291906130af565b602060405180830381600087803b158015610c6b57600080fd5b505af1158015610c7f573d6000803e3d6000fd5b505050506040513d601f19601f82011682018060405250810190610ca39190612ae3565b610ce2576040517f08c379a0000000000000000000000000000000000000000000000000000000008152600401610cd9906132c8565b60405180910390fd5b8173ffffffffffffffffffffffffffffffffffffffff167f315d4ef2c32c6e9b2d2364f5d35c06ffb3427d08357493b104b90799c99c1e3c84604051610d289190613448565b60405180910390a2505050565b600d60009054906101000a900473ffffffffffffffffffffffffffffffffffffffff1681565b601060009054906101000a900473ffffffffffffffffffffffffffffffffffffffff1681565b600b6020528060005260406000206000915090505481565b60038054610da69061376a565b80601f0160208091040260200160405190810160405280929190818152602001828054610dd29061376a565b8015610e1f5780601f10610df457610100808354040283529160200191610e1f565b820191906000526020600020905b815481529060010190602001808311610e0257829003601f168201915b505050505081565b60045481565b60008585604051602001610e4292919061320a565b6040516020818303038152906040528051906020012090506000838583604051602001610e719392919061348c565b6040516020818303038152906040528051906020012090506000601160009054906101000a900473ffffffffffffffffffffffffffffffffffffffff1673ffffffffffffffffffffffffffffffffffffffff166364936b1e896040518263ffffffff1660e01b8152600401610ee691906131e8565b60206040518083038186803b158015610efe57600080fd5b505afa158015610f12573d6000803e3d6000fd5b505050506040513d601f19601f82011682018060405250810190610f369190612b3d565b73ffffffffffffffffffffffffffffffffffffffff1663159ab14d848885886040518563ffffffff1660e01b8152600401610f7494939291906130f3565b602060405180830381600087803b158015610f8e57600080fd5b505af1158015610fa2573d6000803e3d6000fd5b505050506040513d601f19601f82011682018060405250810190610fc69190612d02565b90506110076040518060400160405280600a81526020017f6d696e74416d6f756e7400000000000000000000000000000000000000000000815250826125a4565b3373ffffffffffffffffffffffffffffffffffffffff167f5387ab2b2012a616dcfbc6c0f6c6f7a6ef5b3fc7c7740476f7b20b65f50d59728260405161104d9190613448565b60405180910390a25050505050505050565b60055481565b6000600a60008373ffffffffffffffffffffffffffffffffffffffff1673ffffffffffffffffffffffffffffffffffffffff168152602001908152602001600020549050919050565b600080339050600061271090506000601060009054906101000a900473ffffffffffffffffffffffffffffffffffffffff1673ffffffffffffffffffffffffffffffffffffffff1663a430147f8888856040518463ffffffff1660e01b815260040161111c9392919061323a565b602060405180830381600087803b15801561113657600080fd5b505af115801561114a573d6000803e3d6000fd5b505050506040513d601f19601f8201168201806040525081019061116e9190612d02565b905080600c60008573ffffffffffffffffffffffffffffffffffffffff1673ffffffffffffffffffffffffffffffffffffffff168152602001908152602001600020819055508273ffffffffffffffffffffffffffffffffffffffff167fdacbdde355ba930696a362ea6738feb9f8bd52dfb3d81947558fd3217e23e32586836040516111fc929190613463565b60405180910390a28093505050509392505050565b60003390506000600a60008373ffffffffffffffffffffffffffffffffffffffff1673ffffffffffffffffffffffffffffffffffffffff1681526020019081526020016000205490506000831161129d576040517f08c379a000000000000000000000000000000000000000000000000000000000815260040161129490613428565b60405180910390fd5b6000811180156112ad5750828110155b6112ec576040517f08c379a00000000000000000000000000000000000000000000000000000000081526004016112e390613348565b60405180910390fd5b600960009054906101000a900460ff1661133b576040517f08c379a000000000000000000000000000000000000000000000000000000000815260040161133290613388565b60405180910390fd5b82600b60008473ffffffffffffffffffffffffffffffffffffffff1673ffffffffffffffffffffffffffffffffffffffff168152602001908152602001600020819055508260066000828254611391919061359d565b925050819055508173ffffffffffffffffffffffffffffffffffffffff167fd68fb6899f484313a5048f6f882da08bad2e51f156053cb0888c3a0a0c082590846040516113de9190613448565b60405180910390a2505050565b600c6020528060005260406000206000915090505481565b60008054906101000a900473ffffffffffffffffffffffffffffffffffffffff1673ffffffffffffffffffffffffffffffffffffffff163373ffffffffffffffffffffffffffffffffffffffff1614806114aa5750600160009054906101000a900473ffffffffffffffffffffffffffffffffffffffff1673ffffffffffffffffffffffffffffffffffffffff163373ffffffffffffffffffffffffffffffffffffffff16145b6114e9576040517f08c379a00000000000000000000000000000000000000000000000000000000081526004016114e0906132a8565b60405180910390fd5b6000600d60009054906101000a900473ffffffffffffffffffffffffffffffffffffffff1673ffffffffffffffffffffffffffffffffffffffff166370a08231306040518263ffffffff1660e01b8152600401611546919061302b565b60206040518083038186803b15801561155e57600080fd5b505afa158015611572573d6000803e3d6000fd5b505050506040513d601f19601f820116820180604052508101906115969190612d02565b116115d6576040517f08c379a00000000000000000000000000000000000000000000000000000000081526004016115cd90613408565b60405180910390fd5b6000600960006101000a81548160ff0219169083151502179055507fde17ec5ba6f9b5379a238e2a199366faccaedccf87879284014517333da74e2660405160405180910390a1565b60008054906101000a900473ffffffffffffffffffffffffffffffffffffffff1681565b600260009054906101000a900473ffffffffffffffffffffffffffffffffffffffff1681565b600e60009054906101000a900473ffffffffffffffffffffffffffffffffffffffff1681565b600960009054906101000a900460ff1681565b60065481565b6000601160009054906101000a900473ffffffffffffffffffffffffffffffffffffffff1673ffffffffffffffffffffffffffffffffffffffff1663efa74f1f836040518263ffffffff1660e01b815260040161170591906131e8565b60206040518083038186803b15801561171d57600080fd5b505afa158015611731573d6000803e3d6000fd5b505050506040513d601f19601f820116820180604052508101906117559190612b10565b73ffffffffffffffffffffffffffffffffffffffff166370a08231306040518263ffffffff1660e01b815260040161178d919061302b565b60206040518083038186803b1580156117a557600080fd5b505afa1580156117b9573d6000803e3d6000fd5b505050506040513d601f19601f820116820180604052508101906117dd9190612d02565b9050919050565b60003390506000600b60008473ffffffffffffffffffffffffffffffffffffffff1673ffffffffffffffffffffffffffffffffffffffff16815260200190815260200160002054905060008111611870576040517f08c379a000000000000000000000000000000000000000000000000000000000815260040161186790613328565b60405180910390fd5b600960009054906101000a900460ff166118bf576040517f08c379a00000000000000000000000000000000000000000000000000000000081526004016118b690613388565b60405180910390fd5b80600a60008473ffffffffffffffffffffffffffffffffffffffff1673ffffffffffffffffffffffffffffffffffffffff168152602001908152602001600020600082825461190e919061359d565b9250508190555080600a60008573ffffffffffffffffffffffffffffffffffffffff1673ffffffffffffffffffffffffffffffffffffffff168152602001908152602001600020600082825461196491906135f3565b92505081905550806006600082825461197d91906135f3565b92505081905550600b60008473ffffffffffffffffffffffffffffffffffffffff1673ffffffffffffffffffffffffffffffffffffffff16815260200190815260200160002060009055600d60009054906101000a900473ffffffffffffffffffffffffffffffffffffffff1673ffffffffffffffffffffffffffffffffffffffff166323b872dd8330846040518463ffffffff1660e01b8152600401611a2693929190613046565b602060405180830381600087803b158015611a4057600080fd5b505af1158015611a54573d6000803e3d6000fd5b505050506040513d601f19601f82011682018060405250810190611a789190612ae3565b611ab7576040517f08c379a0000000000000000000000000000000000000000000000000000000008152600401611aae906132e8565b60405180910390fd5b600d60009054906101000a900473ffffffffffffffffffffffffffffffffffffffff1673ffffffffffffffffffffffffffffffffffffffff1663a9059cbb84836040518363ffffffff1660e01b8152600401611b149291906130af565b602060405180830381600087803b158015611b2e57600080fd5b505af1158015611b42573d6000803e3d6000fd5b505050506040513d601f19601f82011682018060405250810190611b669190612ae3565b611ba5576040517f08c379a0000000000000000000000000000000000000000000000000000000008152600401611b9c906133e8565b60405180910390fd5b8173ffffffffffffffffffffffffffffffffffffffff167fc0c6ac36718cda96fac02ecd8ae8aad366fb1ce2b294e1c2de0bee39ddd328af82604051611beb9190613448565b60405180910390a2505050565b600f60009054906101000a900473ffffffffffffffffffffffffffffffffffffffff1681565b6000339050600960009054906101000a900460ff1615611c73576040517f08c379a0000000000000000000000000000000000000000000000000000000008152600401611c6a906133a8565b60405180910390fd5b60008211611cb6576040517f08c379a0000000000000000000000000000000000000000000000000000000008152600401611cad90613428565b60405180910390fd5b60045460055483611cc7919061359d565b1115611d08576040517f08c379a0000000000000000000000000000000000000000000000000000000008152600401611cff90613308565b60405180910390fd5b81600a60008373ffffffffffffffffffffffffffffffffffffffff1673ffffffffffffffffffffffffffffffffffffffff1681526020019081526020016000206000828254611d57919061359d565b925050819055508160056000828254611d70919061359d565b925050819055508073ffffffffffffffffffffffffffffffffffffffff167f9c4f7a1cc1751ba83a1ddccc2da94b1fcfc4efaa2c546f277e551b2dd9c0500583604051611dbd9190613448565b60405180910390a26004546005541415611dda57611dd9612640565b5b600d60009054906101000a900473ffffffffffffffffffffffffffffffffffffffff1673ffffffffffffffffffffffffffffffffffffffff166323b872dd8230856040518463ffffffff1660e01b8152600401611e3993929190613046565b602060405180830381600087803b158015611e5357600080fd5b505af1158015611e67573d6000803e3d6000fd5b505050506040513d601f19601f82011682018060405250810190611e8b9190612ae3565b611eca576040517f08c379a0000000000000000000000000000000000000000000000000000000008152600401611ec1906132e8565b60405180910390fd5b5050565b600160009054906101000a900473ffffffffffffffffffffffffffffffffffffffff1673ffffffffffffffffffffffffffffffffffffffff163373ffffffffffffffffffffffffffffffffffffffff1614611f5e576040517f08c379a0000000000000000000000000000000000000000000000000000000008152600401611f55906133c8565b60405180910390fd5b600960009054906101000a900460ff16611fad576040517f08c379a0000000000000000000000000000000000000000000000000000000008152600401611fa490613388565b60405180910390fd5b600d60009054906101000a900473ffffffffffffffffffffffffffffffffffffffff1673ffffffffffffffffffffffffffffffffffffffff1663095ea7b3600e60009054906101000a900473ffffffffffffffffffffffffffffffffffffffff166004546040518363ffffffff1660e01b815260040161202e9291906130af565b602060405180830381600087803b15801561204857600080fd5b505af115801561205c573d6000803e3d6000fd5b505050506040513d601f19601f820116820180604052508101906120809190612ae3565b6120bf576040517f08c379a00000000000000000000000000000000000000000000000000000000081526004016120b690613368565b60405180910390fd5b565b60075481565b601160009054906101000a900473ffffffffffffffffffffffffffffffffffffffff1681565b60003390506000600b60008373ffffffffffffffffffffffffffffffffffffffff1673ffffffffffffffffffffffffffffffffffffffff16815260200190815260200160002054905060008111612179576040517f08c379a000000000000000000000000000000000000000000000000000000000815260040161217090613328565b60405180910390fd5b806006600082825461218b91906135f3565b925050819055506121d16040518060400160405280600681526020017f73656e646572000000000000000000000000000000000000000000000000000081525083612689565b6122106040518060400160405280600681526020017f616d6f756e740000000000000000000000000000000000000000000000000000815250826125a4565b6122516040518060400160405280600581526020017f746f74616c0000000000000000000000000000000000000000000000000000008152506006546125a4565b600b60008373ffffffffffffffffffffffffffffffffffffffff1673ffffffffffffffffffffffffffffffffffffffff168152602001908152602001600020600090558173ffffffffffffffffffffffffffffffffffffffff167f97470f6911e16b5918a53053f8d1a686e0acaf6a4bfc7b79d064aa24b9f05713826040516122da9190613448565b60405180910390a25050565b60085481565b60008054906101000a900473ffffffffffffffffffffffffffffffffffffffff1673ffffffffffffffffffffffffffffffffffffffff163373ffffffffffffffffffffffffffffffffffffffff1614806123935750600160009054906101000a900473ffffffffffffffffffffffffffffffffffffffff1673ffffffffffffffffffffffffffffffffffffffff163373ffffffffffffffffffffffffffffffffffffffff16145b6123d2576040517f08c379a00000000000000000000000000000000000000000000000000000000081526004016123c9906132a8565b60405180910390fd5b6123da612725565b565b600160009054906101000a900473ffffffffffffffffffffffffffffffffffffffff1673ffffffffffffffffffffffffffffffffffffffff163373ffffffffffffffffffffffffffffffffffffffff161461246c576040517f08c379a0000000000000000000000000000000000000000000000000000000008152600401612463906133c8565b60405180910390fd5b600960009054906101000a900460ff166124bb576040517f08c379a00000000000000000000000000000000000000000000000000000000081526004016124b290613388565b60405180910390fd5b600e60009054906101000a900473ffffffffffffffffffffffffffffffffffffffff1673ffffffffffffffffffffffffffffffffffffffff166324b8fbf68484846040518463ffffffff1660e01b815260040161251a9392919061307d565b600060405180830381600087803b15801561253457600080fd5b505af1158015612548573d6000803e3d6000fd5b5050505082600260006101000a81548173ffffffffffffffffffffffffffffffffffffffff021916908373ffffffffffffffffffffffffffffffffffffffff16021790555081816003919061259e9291906127ff565b50505050565b61263c82826040516024016125ba929190613278565b6040516020818303038152906040527f9710a9d0000000000000000000000000000000000000000000000000000000007bffffffffffffffffffffffffffffffffffffffffffffffffffffffff19166020820180517bffffffffffffffffffffffffffffffffffffffffffffffffffffffff83818316178352505050506127d6565b5050565b6001600960006101000a81548160ff0219169083151502179055507f2e136745550967f28b779ce8c395ca060a2f844edfb5b06631fe677f66f9e30560405160405180910390a1565b612721828260405160240161269f92919061320a565b6040516020818303038152906040527f319af333000000000000000000000000000000000000000000000000000000007bffffffffffffffffffffffffffffffffffffffffffffffffffffffff19166020820180517bffffffffffffffffffffffffffffffffffffffffffffffffffffffff83818316178352505050506127d6565b5050565b600e60009054906101000a900473ffffffffffffffffffffffffffffffffffffffff1673ffffffffffffffffffffffffffffffffffffffff166384ac33ec600260009054906101000a900473ffffffffffffffffffffffffffffffffffffffff166040518263ffffffff1660e01b81526004016127a2919061302b565b600060405180830381600087803b1580156127bc57600080fd5b505af11580156127d0573d6000803e3d6000fd5b50505050565b60008151905060006a636f6e736f6c652e6c6f679050602083016000808483855afa5050505050565b82805461280b9061376a565b90600052602060002090601f01602090048101928261282d5760008555612874565b82601f1061284657803560ff1916838001178555612874565b82800160010185558215612874579182015b82811115612873578235825591602001919060010190612858565b5b5090506128819190612885565b5090565b5b8082111561289e576000816000905550600101612886565b5090565b60006128b56128b084613503565b6134de565b9050828152602081018484840111156128d1576128d0613869565b5b6128dc848285613728565b509392505050565b60006128f76128f284613534565b6134de565b90508281526020810184848401111561291357612912613869565b5b61291e848285613728565b509392505050565b60008135905061293581613aea565b92915050565b60008151905061294a81613b01565b92915050565b60008083601f8401126129665761296561385f565b5b8235905067ffffffffffffffff8111156129835761298261385a565b5b60208301915083600182028301111561299f5761299e613864565b5b9250929050565b600082601f8301126129bb576129ba61385f565b5b81356129cb8482602086016128a2565b91505092915050565b6000815190506129e381613b18565b92915050565b6000815190506129f881613b2f565b92915050565b600082601f830112612a1357612a1261385f565b5b8135612a238482602086016128e4565b91505092915050565b600081359050612a3b81613b46565b92915050565b600081519050612a5081613b46565b92915050565b600060208284031215612a6c57612a6b613873565b5b6000612a7a84828501612926565b91505092915050565b600080600060408486031215612a9c57612a9b613873565b5b6000612aaa86828701612926565b935050602084013567ffffffffffffffff811115612acb57612aca61386e565b5b612ad786828701612950565b92509250509250925092565b600060208284031215612af957612af8613873565b5b6000612b078482850161293b565b91505092915050565b600060208284031215612b2657612b25613873565b5b6000612b34848285016129d4565b91505092915050565b600060208284031215612b5357612b52613873565b5b6000612b61848285016129e9565b91505092915050565b600060208284031215612b8057612b7f613873565b5b600082013567ffffffffffffffff811115612b9e57612b9d61386e565b5b612baa848285016129fe565b91505092915050565b600080600060608486031215612bcc57612bcb613873565b5b600084013567ffffffffffffffff811115612bea57612be961386e565b5b612bf6868287016129fe565b9350506020612c0786828701612926565b9250506040612c1886828701612a2c565b9150509250925092565b600080600080600060a08688031215612c3e57612c3d613873565b5b600086013567ffffffffffffffff811115612c5c57612c5b61386e565b5b612c68888289016129fe565b9550506020612c7988828901612926565b9450506040612c8a88828901612a2c565b9350506060612c9b88828901612a2c565b925050608086013567ffffffffffffffff811115612cbc57612cbb61386e565b5b612cc8888289016129a6565b9150509295509295909350565b600060208284031215612ceb57612cea613873565b5b6000612cf984828501612a2c565b91505092915050565b600060208284031215612d1857612d17613873565b5b6000612d2684828501612a41565b91505092915050565b612d3881613627565b82525050565b612d4781613639565b82525050565b612d5681613645565b82525050565b6000612d68838561357b565b9350612d75838584613728565b612d7e83613878565b840190509392505050565b6000612d9482613565565b612d9e818561357b565b9350612dae818560208601613737565b612db781613878565b840191505092915050565b612dcb816136aa565b82525050565b612dda816136bc565b82525050565b612de9816136ce565b82525050565b612df8816136e0565b82525050565b612e07816136f2565b82525050565b6000612e1882613570565b612e22818561358c565b9350612e32818560208601613737565b612e3b81613878565b840191505092915050565b6000612e53602e8361358c565b9150612e5e82613889565b604082019050919050565b6000612e7660188361358c565b9150612e81826138d8565b602082019050919050565b6000612e9960178361358c565b9150612ea482613901565b602082019050919050565b6000612ebc601e8361358c565b9150612ec78261392a565b602082019050919050565b6000612edf60178361358c565b9150612eea82613953565b602082019050919050565b6000612f02601b8361358c565b9150612f0d8261397c565b602082019050919050565b6000612f25601d8361358c565b9150612f30826139a5565b602082019050919050565b6000612f48601b8361358c565b9150612f53826139ce565b602082019050919050565b6000612f6b60178361358c565b9150612f76826139f7565b602082019050919050565b6000612f8e60248361358c565b9150612f9982613a20565b604082019050919050565b6000612fb160168361358c565b9150612fbc82613a6f565b602082019050919050565b6000612fd4601d8361358c565b9150612fdf82613a98565b602082019050919050565b6000612ff760178361358c565b915061300282613ac1565b602082019050919050565b61301681613693565b82525050565b6130258161369d565b82525050565b60006020820190506130406000830184612d2f565b92915050565b600060608201905061305b6000830186612d2f565b6130686020830185612d2f565b613075604083018461300d565b949350505050565b60006040820190506130926000830186612d2f565b81810360208301526130a5818486612d5c565b9050949350505050565b60006040820190506130c46000830185612d2f565b6130d1602083018461300d565b9392505050565b60006020820190506130ed6000830184612d3e565b92915050565b60006080820190506131086000830187612d4d565b613115602083018661300d565b6131226040830185612d4d565b81810360608301526131348184612d89565b905095945050505050565b600060208201905081810360008301526131598184612d89565b905092915050565b60006020820190506131766000830184612dc2565b92915050565b60006020820190506131916000830184612dd1565b92915050565b60006020820190506131ac6000830184612de0565b92915050565b60006020820190506131c76000830184612def565b92915050565b60006020820190506131e26000830184612dfe565b92915050565b600060208201905081810360008301526132028184612e0d565b905092915050565b600060408201905081810360008301526132248185612e0d565b90506132336020830184612d2f565b9392505050565b600060608201905081810360008301526132548186612e0d565b90506132636020830185612d2f565b613270604083018461300d565b949350505050565b600060408201905081810360008301526132928185612e0d565b90506132a1602083018461300d565b9392505050565b600060208201905081810360008301526132c181612e46565b9050919050565b600060208201905081810360008301526132e181612e69565b9050919050565b6000602082019050818103600083015261330181612e8c565b9050919050565b6000602082019050818103600083015261332181612eaf565b9050919050565b6000602082019050818103600083015261334181612ed2565b9050919050565b6000602082019050818103600083015261336181612ef5565b9050919050565b6000602082019050818103600083015261338181612f18565b9050919050565b600060208201905081810360008301526133a181612f3b565b9050919050565b600060208201905081810360008301526133c181612f5e565b9050919050565b600060208201905081810360008301526133e181612f81565b9050919050565b6000602082019050818103600083015261340181612fa4565b9050919050565b6000602082019050818103600083015261342181612fc7565b9050919050565b6000602082019050818103600083015261344181612fea565b9050919050565b600060208201905061345d600083018461300d565b92915050565b6000604082019050613478600083018561300d565b613485602083018461300d565b9392505050565b60006060820190506134a1600083018661300d565b6134ae602083018561300d565b6134bb6040830184612d4d565b949350505050565b60006020820190506134d8600083018461301c565b92915050565b60006134e86134f9565b90506134f4828261379c565b919050565b6000604051905090565b600067ffffffffffffffff82111561351e5761351d61382b565b5b61352782613878565b9050602081019050919050565b600067ffffffffffffffff82111561354f5761354e61382b565b5b61355882613878565b9050602081019050919050565b600081519050919050565b600081519050919050565b600082825260208201905092915050565b600082825260208201905092915050565b60006135a882613693565b91506135b383613693565b9250827fffffffffffffffffffffffffffffffffffffffffffffffffffffffffffffffff038211156135e8576135e76137cd565b5b828201905092915050565b60006135fe82613693565b915061360983613693565b92508282101561361c5761361b6137cd565b5b828203905092915050565b600061363282613673565b9050919050565b60008115159050919050565b6000819050919050565b600061365a82613627565b9050919050565b600061366c82613627565b9050919050565b600073ffffffffffffffffffffffffffffffffffffffff82169050919050565b6000819050919050565b600060ff82169050919050565b60006136b582613704565b9050919050565b60006136c782613704565b9050919050565b60006136d982613704565b9050919050565b60006136eb82613704565b9050919050565b60006136fd82613704565b9050919050565b600061370f82613716565b9050919050565b600061372182613673565b9050919050565b82818337600083830152505050565b60005b8381101561375557808201518184015260208101905061373a565b83811115613764576000848401525b50505050565b6000600282049050600182168061378257607f821691505b60208210811415613796576137956137fc565b5b50919050565b6137a582613878565b810181811067ffffffffffffffff821117156137c4576137c361382b565b5b80604052505050565b7f4e487b7100000000000000000000000000000000000000000000000000000000600052601160045260246000fd5b7f4e487b7100000000000000000000000000000000000000000000000000000000600052602260045260246000fd5b7f4e487b7100000000000000000000000000000000000000000000000000000000600052604160045260246000fd5b600080fd5b600080fd5b600080fd5b600080fd5b600080fd5b600080fd5b6000601f19601f8301169050919050565b7f52656e506f6f6c3a2043616c6c6572206973206e6f74206f776e6572206e6f7260008201527f206e6f6465206f70657261746f72000000000000000000000000000000000000602082015250565b7f52656e506f6f6c3a205769746864726177206661696c65640000000000000000600082015250565b7f52656e506f6f6c3a204465706f736974206661696c6564000000000000000000600082015250565b7f52656e506f6f6c3a20416d6f756e742073757270617373657320626f6e640000600082015250565b7f52656e506f6f6c3a20696e76616c696420616d6f756e74000000000000000000600082015250565b7f52656e506f6f6c3a20496e73756666696369656e742066756e64730000000000600082015250565b7f52656e506f6f6c3a20426f6e64207472616e73666572206661696c6564000000600082015250565b7f52656e506f6f6c3a20506f6f6c206973206e6f74206c6f636b65640000000000600082015250565b7f52656e506f6f6c3a20506f6f6c206973206c6f636b6564000000000000000000600082015250565b7f52656e506f6f6c3a2043616c6c6572206973206e6f74206e6f6465206f70657260008201527f61746f7200000000000000000000000000000000000000000000000000000000602082015250565b7f52656e506f6f6c3a20526566756e64206661696c656400000000000000000000600082015250565b7f52656e506f6f6c3a20506f6f6c2062616c616e6365206973207a65726f000000600082015250565b7f52656e506f6f6c3a20496e76616c696420616d6f756e74000000000000000000600082015250565b613af381613627565b8114613afe57600080fd5b50565b613b0a81613639565b8114613b1557600080fd5b50565b613b218161364f565b8114613b2c57600080fd5b50565b613b3881613661565b8114613b4357600080fd5b50565b613b4f81613693565b8114613b5a57600080fd5b5056fea26469706673582212207d96ebaeb478f332f3658c962f9ed8850fd5cd0779d6164b29c57fefbfa9668364736f6c63430008070033",
  "linkReferences": {},
  "deployedLinkReferences": {}
}