{
  "_format": "hh-sol-artifact-1",
  "contractName": "RenPool",
  "sourceName": "contracts/RenPool.sol",
  "abi": [
    {
      "inputs": [
        {
          "internalType": "address",
          "name": "_renTokenAddr",
          "type": "address"
        },
        {
          "internalType": "address",
          "name": "_darknodeRegistryAddr",
          "type": "address"
        },
        {
          "internalType": "address",
          "name": "_darknodePaymentAddr",
          "type": "address"
        },
        {
          "internalType": "address",
          "name": "_claimRewardsAddr",
          "type": "address"
        },
        {
          "internalType": "address",
          "name": "_gatewayRegistryAddr",
          "type": "address"
        },
        {
          "internalType": "address",
          "name": "_owner",
          "type": "address"
        },
        {
          "internalType": "address",
          "name": "_nodeOperator",
          "type": "address"
        },
        {
          "internalType": "uint256",
          "name": "_bond",
          "type": "uint256"
        }
      ],
      "stateMutability": "nonpayable",
      "type": "constructor"
    },
    {
      "anonymous": false,
      "inputs": [
        {
          "indexed": true,
          "internalType": "address",
          "name": "_from",
          "type": "address"
        },
        {
          "indexed": false,
          "internalType": "uint256",
          "name": "_amount",
          "type": "uint256"
        }
      ],
      "name": "EthDeposited",
      "type": "event"
    },
    {
      "anonymous": false,
      "inputs": [
        {
          "indexed": true,
          "internalType": "address",
          "name": "_from",
          "type": "address"
        },
        {
          "indexed": false,
          "internalType": "uint256",
          "name": "_amount",
          "type": "uint256"
        }
      ],
      "name": "EthWithdrawn",
      "type": "event"
    },
    {
      "anonymous": false,
      "inputs": [],
      "name": "PoolLocked",
      "type": "event"
    },
    {
      "anonymous": false,
      "inputs": [],
      "name": "PoolUnlocked",
      "type": "event"
    },
    {
      "anonymous": false,
      "inputs": [
        {
          "indexed": true,
          "internalType": "address",
          "name": "_from",
          "type": "address"
        },
        {
          "indexed": false,
          "internalType": "uint256",
          "name": "_amount",
          "type": "uint256"
        }
      ],
      "name": "RenDeposited",
      "type": "event"
    },
    {
      "anonymous": false,
      "inputs": [
        {
          "indexed": true,
          "internalType": "address",
          "name": "_from",
          "type": "address"
        },
        {
          "indexed": false,
          "internalType": "uint256",
          "name": "_amount",
          "type": "uint256"
        }
      ],
      "name": "RenWithdrawalRequestCancelled",
      "type": "event"
    },
    {
      "anonymous": false,
      "inputs": [
        {
          "indexed": true,
          "internalType": "address",
          "name": "_from",
          "type": "address"
        },
        {
          "indexed": false,
          "internalType": "uint256",
          "name": "_amount",
          "type": "uint256"
        }
      ],
      "name": "RenWithdrawalRequestFulfilled",
      "type": "event"
    },
    {
      "anonymous": false,
      "inputs": [
        {
          "indexed": true,
          "internalType": "address",
          "name": "_from",
          "type": "address"
        },
        {
          "indexed": false,
          "internalType": "uint256",
          "name": "_amount",
          "type": "uint256"
        }
      ],
      "name": "RenWithdrawalRequested",
      "type": "event"
    },
    {
      "anonymous": false,
      "inputs": [
        {
          "indexed": true,
          "internalType": "address",
          "name": "_from",
          "type": "address"
        },
        {
          "indexed": false,
          "internalType": "uint256",
          "name": "_amount",
          "type": "uint256"
        }
      ],
      "name": "RenWithdrawn",
      "type": "event"
    },
    {
      "anonymous": false,
      "inputs": [
        {
          "indexed": true,
          "internalType": "address",
          "name": "_from",
          "type": "address"
        },
        {
          "indexed": false,
          "internalType": "uint256",
          "name": "_amount",
          "type": "uint256"
        },
        {
          "indexed": false,
          "internalType": "uint256",
          "name": "_nonce",
          "type": "uint256"
        }
      ],
      "name": "RewardsClaimed",
      "type": "event"
    },
    {
      "anonymous": false,
      "inputs": [
        {
          "indexed": true,
          "internalType": "address",
          "name": "_from",
          "type": "address"
        },
        {
          "indexed": false,
          "internalType": "uint256",
          "name": "_mintedAmount",
          "type": "uint256"
        }
      ],
      "name": "RewardsMinted",
      "type": "event"
    },
    {
      "inputs": [],
      "name": "DECIMALS",
      "outputs": [
        {
          "internalType": "uint8",
          "name": "",
          "type": "uint8"
        }
      ],
      "stateMutability": "view",
      "type": "function"
    },
    {
      "inputs": [],
      "name": "approveBondTransfer",
      "outputs": [],
      "stateMutability": "nonpayable",
      "type": "function"
    },
    {
      "inputs": [
        {
          "internalType": "address",
          "name": "_target",
          "type": "address"
        }
      ],
      "name": "balanceOf",
      "outputs": [
        {
          "internalType": "uint256",
          "name": "",
          "type": "uint256"
        }
      ],
      "stateMutability": "view",
      "type": "function"
    },
    {
      "inputs": [
        {
          "internalType": "address",
          "name": "",
          "type": "address"
        }
      ],
      "name": "balances",
      "outputs": [
        {
          "internalType": "uint256",
          "name": "",
          "type": "uint256"
        }
      ],
      "stateMutability": "view",
      "type": "function"
    },
    {
      "inputs": [],
      "name": "bond",
      "outputs": [
        {
          "internalType": "uint256",
          "name": "",
          "type": "uint256"
        }
      ],
      "stateMutability": "view",
      "type": "function"
    },
    {
      "inputs": [],
      "name": "cancelWithdrawalRequest",
      "outputs": [],
      "stateMutability": "nonpayable",
      "type": "function"
    },
    {
      "inputs": [],
      "name": "claimRewards",
      "outputs": [
        {
          "internalType": "contract IClaimRewardsV1",
          "name": "",
          "type": "address"
        }
      ],
      "stateMutability": "view",
      "type": "function"
    },
    {
      "inputs": [
        {
          "internalType": "string",
          "name": "_assetSymbol",
          "type": "string"
        },
        {
          "internalType": "address",
          "name": "_recipientAddress",
          "type": "address"
        },
        {
          "internalType": "uint256",
          "name": "_amount",
          "type": "uint256"
        }
      ],
      "name": "claimRewardsToChain",
      "outputs": [
        {
          "internalType": "uint256",
          "name": "",
          "type": "uint256"
        }
      ],
      "stateMutability": "nonpayable",
      "type": "function"
    },
    {
      "inputs": [],
      "name": "darknodeID",
      "outputs": [
        {
          "internalType": "address",
          "name": "",
          "type": "address"
        }
      ],
      "stateMutability": "view",
      "type": "function"
    },
    {
      "inputs": [],
      "name": "darknodePayment",
      "outputs": [
        {
          "internalType": "contract IDarknodePayment",
          "name": "",
          "type": "address"
        }
      ],
      "stateMutability": "view",
      "type": "function"
    },
    {
      "inputs": [],
      "name": "darknodeRegistry",
      "outputs": [
        {
          "internalType": "contract IDarknodeRegistry",
          "name": "",
          "type": "address"
        }
      ],
      "stateMutability": "view",
      "type": "function"
    },
    {
      "inputs": [
        {
          "internalType": "uint256",
          "name": "_amount",
          "type": "uint256"
        }
      ],
      "name": "deposit",
      "outputs": [],
      "stateMutability": "nonpayable",
      "type": "function"
    },
    {
      "inputs": [],
      "name": "deregisterDarknode",
      "outputs": [],
      "stateMutability": "nonpayable",
      "type": "function"
    },
    {
      "inputs": [
        {
          "internalType": "address",
          "name": "_target",
          "type": "address"
        }
      ],
      "name": "fulfillWithdrawalRequest",
      "outputs": [],
      "stateMutability": "nonpayable",
      "type": "function"
    },
    {
      "inputs": [],
      "name": "gatewayRegistry",
      "outputs": [
        {
          "internalType": "contract IGatewayRegistry",
          "name": "",
          "type": "address"
        }
      ],
      "stateMutability": "view",
      "type": "function"
    },
    {
      "inputs": [
        {
          "internalType": "string",
          "name": "_assetSymbol",
          "type": "string"
        }
      ],
      "name": "getDarknodeBalance",
      "outputs": [
        {
          "internalType": "uint256",
          "name": "",
          "type": "uint256"
        }
      ],
      "stateMutability": "view",
      "type": "function"
    },
    {
      "inputs": [],
      "name": "isLocked",
      "outputs": [
        {
          "internalType": "bool",
          "name": "",
          "type": "bool"
        }
      ],
      "stateMutability": "view",
      "type": "function"
    },
    {
      "inputs": [],
      "name": "isRegistered",
      "outputs": [
        {
          "internalType": "bool",
          "name": "",
          "type": "bool"
        }
      ],
      "stateMutability": "view",
      "type": "function"
    },
    {
      "inputs": [
        {
          "internalType": "string",
          "name": "_assetSymbol",
          "type": "string"
        },
        {
          "internalType": "address",
          "name": "_recipientAddress",
          "type": "address"
        },
        {
          "internalType": "uint256",
          "name": "_amount",
          "type": "uint256"
        },
        {
          "internalType": "uint256",
          "name": "_nonce",
          "type": "uint256"
        },
        {
          "internalType": "bytes",
          "name": "_sig",
          "type": "bytes"
        }
      ],
      "name": "mintRewards",
      "outputs": [],
      "stateMutability": "nonpayable",
      "type": "function"
    },
    {
      "inputs": [],
      "name": "nodeOperator",
      "outputs": [
        {
          "internalType": "address",
          "name": "",
          "type": "address"
        }
      ],
      "stateMutability": "view",
      "type": "function"
    },
    {
      "inputs": [],
      "name": "nodeOperatorFee",
      "outputs": [
        {
          "internalType": "uint256",
          "name": "",
          "type": "uint256"
        }
      ],
      "stateMutability": "view",
      "type": "function"
    },
    {
      "inputs": [
        {
          "internalType": "address",
          "name": "",
          "type": "address"
        }
      ],
      "name": "nonces",
      "outputs": [
        {
          "internalType": "uint256",
          "name": "",
          "type": "uint256"
        }
      ],
      "stateMutability": "view",
      "type": "function"
    },
    {
      "inputs": [],
      "name": "owner",
      "outputs": [
        {
          "internalType": "address",
          "name": "",
          "type": "address"
        }
      ],
      "stateMutability": "view",
      "type": "function"
    },
    {
      "inputs": [],
      "name": "ownerFee",
      "outputs": [
        {
          "internalType": "uint256",
          "name": "",
          "type": "uint256"
        }
      ],
      "stateMutability": "view",
      "type": "function"
    },
    {
      "inputs": [],
      "name": "publicKey",
      "outputs": [
        {
          "internalType": "bytes",
          "name": "",
          "type": "bytes"
        }
      ],
      "stateMutability": "view",
      "type": "function"
    },
    {
      "inputs": [],
      "name": "refundBond",
      "outputs": [],
      "stateMutability": "nonpayable",
      "type": "function"
    },
    {
      "inputs": [
        {
          "internalType": "address",
          "name": "_darknodeID",
          "type": "address"
        },
        {
          "internalType": "bytes",
          "name": "_publicKey",
          "type": "bytes"
        }
      ],
      "name": "registerDarknode",
      "outputs": [],
      "stateMutability": "nonpayable",
      "type": "function"
    },
    {
      "inputs": [],
      "name": "renToken",
      "outputs": [
        {
          "internalType": "contract IERC20",
          "name": "",
          "type": "address"
        }
      ],
      "stateMutability": "view",
      "type": "function"
    },
    {
      "inputs": [
        {
          "internalType": "uint256",
          "name": "_amount",
          "type": "uint256"
        }
      ],
      "name": "requestWithdrawal",
      "outputs": [],
      "stateMutability": "nonpayable",
      "type": "function"
    },
    {
      "inputs": [],
      "name": "totalPooled",
      "outputs": [
        {
          "internalType": "uint256",
          "name": "",
          "type": "uint256"
        }
      ],
      "stateMutability": "view",
      "type": "function"
    },
    {
      "inputs": [],
      "name": "totalWithdrawalRequested",
      "outputs": [
        {
          "internalType": "uint256",
          "name": "",
          "type": "uint256"
        }
      ],
      "stateMutability": "view",
      "type": "function"
    },
    {
      "inputs": [],
      "name": "unlockPool",
      "outputs": [],
      "stateMutability": "nonpayable",
      "type": "function"
    },
    {
      "inputs": [
        {
          "internalType": "uint256",
          "name": "_amount",
          "type": "uint256"
        }
      ],
      "name": "withdraw",
      "outputs": [],
      "stateMutability": "nonpayable",
      "type": "function"
    },
    {
      "inputs": [],
      "name": "withdrawGas",
      "outputs": [],
      "stateMutability": "nonpayable",
      "type": "function"
    },
    {
      "inputs": [
        {
          "internalType": "address",
          "name": "",
          "type": "address"
        }
      ],
      "name": "withdrawalRequests",
      "outputs": [
        {
          "internalType": "uint256",
          "name": "",
          "type": "uint256"
        }
      ],
      "stateMutability": "view",
      "type": "function"
    },
    {
      "stateMutability": "payable",
      "type": "receive"
    }
  ],
  "bytecode": "0x60806040523480156200001157600080fd5b5060405162003e7e38038062003e7e833981810160405281019062000037919062000296565b826000806101000a81548173ffffffffffffffffffffffffffffffffffffffff021916908373ffffffffffffffffffffffffffffffffffffffff16021790555081600160006101000a81548173ffffffffffffffffffffffffffffffffffffffff021916908373ffffffffffffffffffffffffffffffffffffffff16021790555087600d60006101000a81548173ffffffffffffffffffffffffffffffffffffffff021916908373ffffffffffffffffffffffffffffffffffffffff16021790555086600e60006101000a81548173ffffffffffffffffffffffffffffffffffffffff021916908373ffffffffffffffffffffffffffffffffffffffff16021790555085600f60006101000a81548173ffffffffffffffffffffffffffffffffffffffff021916908373ffffffffffffffffffffffffffffffffffffffff16021790555084601060006101000a81548173ffffffffffffffffffffffffffffffffffffffff021916908373ffffffffffffffffffffffffffffffffffffffff16021790555083601160006101000a81548173ffffffffffffffffffffffffffffffffffffffff021916908373ffffffffffffffffffffffffffffffffffffffff160217905550806004819055506000600960006101000a81548160ff0219169083151502179055506000600960016101000a81548160ff02191690831515021790555060006005819055506000600681905550600560078190555060056008819055505050505050505050620003d6565b6000815190506200027981620003a2565b92915050565b6000815190506200029081620003bc565b92915050565b600080600080600080600080610100898b031215620002ba57620002b96200039d565b5b6000620002ca8b828c0162000268565b9850506020620002dd8b828c0162000268565b9750506040620002f08b828c0162000268565b9650506060620003038b828c0162000268565b9550506080620003168b828c0162000268565b94505060a0620003298b828c0162000268565b93505060c06200033c8b828c0162000268565b92505060e06200034f8b828c016200027f565b9150509295985092959890939650565b60006200036c8262000373565b9050919050565b600073ffffffffffffffffffffffffffffffffffffffff82169050919050565b6000819050919050565b600080fd5b620003ad816200035f565b8114620003b957600080fd5b50565b620003c78162000393565b8114620003d357600080fd5b50565b613a9880620003e66000396000f3fe6080604052600436106102085760003560e01c80637ecebe0011610118578063b6b34c67116100a0578063d693452e1161006f578063d693452e1461077e578063e39f6101146107a9578063e438a77d146107d4578063e714a028146107eb578063e7585aea146108025761025d565b8063b6b34c67146106e8578063b6b55f2514610713578063b7eb85c41461073c578063d5b2a01a146107535761025d565b80639e45e0d0116100e75780639e45e0d0146106015780639ee679e81461062c578063a4e2d63414610655578063aaaa0c4b14610680578063ac347987146106ab5761025d565b80637ecebe001461055757806389026538146105945780638da5cb5b146105ab578063901a6498146105d65761025d565b80632e1a7d4d1161019b57806364c9ec6f1161016a57806364c9ec6f1461045e5780636664e42e146104895780636ec21cc8146104b257806370a08231146104dd57806371bbef361461051a5761025d565b80632e1a7d4d146103b457806334246f9b146103dd578063372500ab1461040857806363ffab31146104335761025d565b8063270016fb116101d7578063270016fb146102e657806327b380f31461030f57806327e235e31461034c5780632e0f2625146103895761025d565b8063023c5b08146102625780631261795d1461028d57806313a0ae2b146102a457806322366844146102bb5761025d565b3661025d573373ffffffffffffffffffffffffffffffffffffffff167f66ff7c8f71ccc7c36152a41920d0d3b46ef3034359f76aa1498ed4478c204b5c346040516102539190613362565b60405180910390a2005b600080fd5b34801561026e57600080fd5b5061027761082b565b6040516102849190612f65565b60405180910390f35b34801561029957600080fd5b506102a2610851565b005b3480156102b057600080fd5b506102b96109c2565b005b3480156102c757600080fd5b506102d0610a73565b6040516102dd9190613012565b60405180910390f35b3480156102f257600080fd5b5061030d600480360381019061030891906129b3565b610a86565b005b34801561031b57600080fd5b50610336600480360381019061033191906129b3565b610e9a565b6040516103439190613362565b60405180910390f35b34801561035857600080fd5b50610373600480360381019061036e91906129b3565b610eb2565b6040516103809190613362565b60405180910390f35b34801561039557600080fd5b5061039e610eca565b6040516103ab91906133dd565b60405180910390f35b3480156103c057600080fd5b506103db60048036038101906103d69190612c32565b610ecf565b005b3480156103e957600080fd5b506103f26111aa565b6040516103ff91906130ec565b60405180910390f35b34801561041457600080fd5b5061041d6111d0565b60405161042a919061309b565b60405180910390f35b34801561043f57600080fd5b506104486111f6565b6040516104559190613079565b60405180910390f35b34801561046a57600080fd5b50610473611284565b6040516104809190613362565b60405180910390f35b34801561049557600080fd5b506104b060048036038101906104ab9190612b7f565b61128a565b005b3480156104be57600080fd5b506104c76114bc565b6040516104d49190613362565b60405180910390f35b3480156104e957600080fd5b5061050460048036038101906104ff91906129b3565b6114c2565b6040516105119190613362565b60405180910390f35b34801561052657600080fd5b50610541600480360381019061053c9190612b10565b61150b565b60405161054e9190613362565b60405180910390f35b34801561056357600080fd5b5061057e600480360381019061057991906129b3565b61166e565b60405161058b9190613362565b60405180910390f35b3480156105a057600080fd5b506105a9611686565b005b3480156105b757600080fd5b506105c06118a2565b6040516105cd9190612f65565b60405180910390f35b3480156105e257600080fd5b506105eb6118c6565b6040516105f89190612f65565b60405180910390f35b34801561060d57600080fd5b506106166118ec565b60405161062391906130d1565b60405180910390f35b34801561063857600080fd5b50610653600480360381019061064e9190612c32565b611912565b005b34801561066157600080fd5b5061066a611b25565b6040516106779190613012565b60405180910390f35b34801561068c57600080fd5b50610695611b38565b6040516106a29190613362565b60405180910390f35b3480156106b757600080fd5b506106d260048036038101906106cd9190612ac7565b611b3e565b6040516106df9190613362565b60405180910390f35b3480156106f457600080fd5b506106fd611c7a565b60405161070a91906130b6565b60405180910390f35b34801561071f57600080fd5b5061073a60048036038101906107359190612c32565b611ca0565b005b34801561074857600080fd5b50610751611f50565b005b34801561075f57600080fd5b50610768612143565b6040516107759190613362565b60405180910390f35b34801561078a57600080fd5b50610793612149565b6040516107a09190613107565b60405180910390f35b3480156107b557600080fd5b506107be61216f565b6040516107cb9190613362565b60405180910390f35b3480156107e057600080fd5b506107e9612175565b005b3480156107f757600080fd5b50610800612265565b005b34801561080e57600080fd5b50610829600480360381019061082491906129e0565b61239f565b005b600160009054906101000a900473ffffffffffffffffffffffffffffffffffffffff1681565b600160009054906101000a900473ffffffffffffffffffffffffffffffffffffffff1673ffffffffffffffffffffffffffffffffffffffff163373ffffffffffffffffffffffffffffffffffffffff16146108e1576040517f08c379a00000000000000000000000000000000000000000000000000000000081526004016108d890613302565b60405180910390fd5b6000479050600160009054906101000a900473ffffffffffffffffffffffffffffffffffffffff1673ffffffffffffffffffffffffffffffffffffffff166108fc829081150290604051600060405180830381858888f1935050505015801561094e573d6000803e3d6000fd5b50600160009054906101000a900473ffffffffffffffffffffffffffffffffffffffff1673ffffffffffffffffffffffffffffffffffffffff167f8455ae6be5d92f1df1c3c1484388e247a36c7e60d72055ae216dbc258f257d4b826040516109b79190613362565b60405180910390a250565b600e60009054906101000a900473ffffffffffffffffffffffffffffffffffffffff1673ffffffffffffffffffffffffffffffffffffffff1663fa89401a600260009054906101000a900473ffffffffffffffffffffffffffffffffffffffff166040518263ffffffff1660e01b8152600401610a3f9190612f65565b600060405180830381600087803b158015610a5957600080fd5b505af1158015610a6d573d6000803e3d6000fd5b50505050565b600960019054906101000a900460ff1681565b60003390506000600b60008473ffffffffffffffffffffffffffffffffffffffff1673ffffffffffffffffffffffffffffffffffffffff16815260200190815260200160002054905060008111610b12576040517f08c379a0000000000000000000000000000000000000000000000000000000008152600401610b0990613242565b60405180910390fd5b600960009054906101000a900460ff16610b61576040517f08c379a0000000000000000000000000000000000000000000000000000000008152600401610b58906132a2565b60405180910390fd5b80600a60008473ffffffffffffffffffffffffffffffffffffffff1673ffffffffffffffffffffffffffffffffffffffff1681526020019081526020016000206000828254610bb091906134b7565b9250508190555080600a60008573ffffffffffffffffffffffffffffffffffffffff1673ffffffffffffffffffffffffffffffffffffffff1681526020019081526020016000206000828254610c06919061353e565b925050819055508060066000828254610c1f919061353e565b92505081905550600b60008473ffffffffffffffffffffffffffffffffffffffff1673ffffffffffffffffffffffffffffffffffffffff16815260200190815260200160002060009055600d60009054906101000a900473ffffffffffffffffffffffffffffffffffffffff1673ffffffffffffffffffffffffffffffffffffffff166323b872dd8330846040518463ffffffff1660e01b8152600401610cc893929190612f80565b602060405180830381600087803b158015610ce257600080fd5b505af1158015610cf6573d6000803e3d6000fd5b505050506040513d601f19601f82011682018060405250810190610d1a9190612a40565b610d59576040517f08c379a0000000000000000000000000000000000000000000000000000000008152600401610d5090613202565b60405180910390fd5b600d60009054906101000a900473ffffffffffffffffffffffffffffffffffffffff1673ffffffffffffffffffffffffffffffffffffffff1663a9059cbb84836040518363ffffffff1660e01b8152600401610db6929190612fe9565b602060405180830381600087803b158015610dd057600080fd5b505af1158015610de4573d6000803e3d6000fd5b505050506040513d601f19601f82011682018060405250810190610e089190612a40565b610e47576040517f08c379a0000000000000000000000000000000000000000000000000000000008152600401610e3e906132e2565b60405180910390fd5b8173ffffffffffffffffffffffffffffffffffffffff167fc0c6ac36718cda96fac02ecd8ae8aad366fb1ce2b294e1c2de0bee39ddd328af82604051610e8d9190613362565b60405180910390a2505050565b600b6020528060005260406000206000915090505481565b600a6020528060005260406000206000915090505481565b601281565b60003390506000600a60008373ffffffffffffffffffffffffffffffffffffffff1673ffffffffffffffffffffffffffffffffffffffff16815260200190815260200160002054905060008311610f5b576040517f08c379a0000000000000000000000000000000000000000000000000000000008152600401610f5290613342565b60405180910390fd5b600081118015610f6b5750828110155b610faa576040517f08c379a0000000000000000000000000000000000000000000000000000000008152600401610fa190613262565b60405180910390fd5b600960009054906101000a900460ff1615610ffa576040517f08c379a0000000000000000000000000000000000000000000000000000000008152600401610ff1906132c2565b60405180910390fd5b826005600082825461100c919061353e565b9250508190555082600a60008473ffffffffffffffffffffffffffffffffffffffff1673ffffffffffffffffffffffffffffffffffffffff1681526020019081526020016000206000828254611062919061353e565b92505081905550600d60009054906101000a900473ffffffffffffffffffffffffffffffffffffffff1673ffffffffffffffffffffffffffffffffffffffff1663a9059cbb83856040518363ffffffff1660e01b81526004016110c6929190612fe9565b602060405180830381600087803b1580156110e057600080fd5b505af11580156110f4573d6000803e3d6000fd5b505050506040513d601f19601f820116820180604052508101906111189190612a40565b611157576040517f08c379a000000000000000000000000000000000000000000000000000000000815260040161114e906131e2565b60405180910390fd5b8173ffffffffffffffffffffffffffffffffffffffff167f315d4ef2c32c6e9b2d2364f5d35c06ffb3427d08357493b104b90799c99c1e3c8460405161119d9190613362565b60405180910390a2505050565b600d60009054906101000a900473ffffffffffffffffffffffffffffffffffffffff1681565b601060009054906101000a900473ffffffffffffffffffffffffffffffffffffffff1681565b60038054611203906136b5565b80601f016020809104026020016040519081016040528092919081815260200182805461122f906136b5565b801561127c5780601f106112515761010080835404028352916020019161127c565b820191906000526020600020905b81548152906001019060200180831161125f57829003601f168201915b505050505081565b60045481565b6000858560405160200161129f929190613144565b60405160208183030381529060405280519060200120905060008385836040516020016112ce939291906133a6565b6040516020818303038152906040528051906020012090506000601160009054906101000a900473ffffffffffffffffffffffffffffffffffffffff1673ffffffffffffffffffffffffffffffffffffffff166364936b1e896040518263ffffffff1660e01b81526004016113439190613122565b60206040518083038186803b15801561135b57600080fd5b505afa15801561136f573d6000803e3d6000fd5b505050506040513d601f19601f820116820180604052508101906113939190612a9a565b73ffffffffffffffffffffffffffffffffffffffff1663159ab14d848885886040518563ffffffff1660e01b81526004016113d1949392919061302d565b602060405180830381600087803b1580156113eb57600080fd5b505af11580156113ff573d6000803e3d6000fd5b505050506040513d601f19601f820116820180604052508101906114239190612c5f565b90506114646040518060400160405280600a81526020017f6d696e74416d6f756e740000000000000000000000000000000000000000000081525082612582565b3373ffffffffffffffffffffffffffffffffffffffff167f5387ab2b2012a616dcfbc6c0f6c6f7a6ef5b3fc7c7740476f7b20b65f50d5972826040516114aa9190613362565b60405180910390a25050505050505050565b60055481565b6000600a60008373ffffffffffffffffffffffffffffffffffffffff1673ffffffffffffffffffffffffffffffffffffffff168152602001908152602001600020549050919050565b600080339050600061271090506000601060009054906101000a900473ffffffffffffffffffffffffffffffffffffffff1673ffffffffffffffffffffffffffffffffffffffff1663a430147f8888856040518463ffffffff1660e01b815260040161157993929190613174565b602060405180830381600087803b15801561159357600080fd5b505af11580156115a7573d6000803e3d6000fd5b505050506040513d601f19601f820116820180604052508101906115cb9190612c5f565b905080600c60008573ffffffffffffffffffffffffffffffffffffffff1673ffffffffffffffffffffffffffffffffffffffff168152602001908152602001600020819055508273ffffffffffffffffffffffffffffffffffffffff167fdacbdde355ba930696a362ea6738feb9f8bd52dfb3d81947558fd3217e23e325868360405161165992919061337d565b60405180910390a28093505050509392505050565b600c6020528060005260406000206000915090505481565b60008054906101000a900473ffffffffffffffffffffffffffffffffffffffff1673ffffffffffffffffffffffffffffffffffffffff163373ffffffffffffffffffffffffffffffffffffffff16148061172d5750600160009054906101000a900473ffffffffffffffffffffffffffffffffffffffff1673ffffffffffffffffffffffffffffffffffffffff163373ffffffffffffffffffffffffffffffffffffffff16145b61176c576040517f08c379a000000000000000000000000000000000000000000000000000000000815260040161176390613302565b60405180910390fd5b6000600d60009054906101000a900473ffffffffffffffffffffffffffffffffffffffff1673ffffffffffffffffffffffffffffffffffffffff166370a08231306040518263ffffffff1660e01b81526004016117c99190612f65565b60206040518083038186803b1580156117e157600080fd5b505afa1580156117f5573d6000803e3d6000fd5b505050506040513d601f19601f820116820180604052508101906118199190612c5f565b11611859576040517f08c379a000000000000000000000000000000000000000000000000000000000815260040161185090613322565b60405180910390fd5b6000600960006101000a81548160ff0219169083151502179055507fde17ec5ba6f9b5379a238e2a199366faccaedccf87879284014517333da74e2660405160405180910390a1565b60008054906101000a900473ffffffffffffffffffffffffffffffffffffffff1681565b600260009054906101000a900473ffffffffffffffffffffffffffffffffffffffff1681565b600e60009054906101000a900473ffffffffffffffffffffffffffffffffffffffff1681565b60003390506000600a60008373ffffffffffffffffffffffffffffffffffffffff1673ffffffffffffffffffffffffffffffffffffffff1681526020019081526020016000205490506000831161199e576040517f08c379a000000000000000000000000000000000000000000000000000000000815260040161199590613342565b60405180910390fd5b6000811180156119ae5750828110155b6119ed576040517f08c379a00000000000000000000000000000000000000000000000000000000081526004016119e490613262565b60405180910390fd5b600960009054906101000a900460ff16611a3c576040517f08c379a0000000000000000000000000000000000000000000000000000000008152600401611a33906132a2565b60405180910390fd5b82600b60008473ffffffffffffffffffffffffffffffffffffffff1673ffffffffffffffffffffffffffffffffffffffff168152602001908152602001600020819055508260066000828254611a9291906134b7565b92505081905550600960019054906101000a900460ff168015611ac457506002600454611abf919061350d565b600654115b15611ad257611ad161261e565b5b8173ffffffffffffffffffffffffffffffffffffffff167fd68fb6899f484313a5048f6f882da08bad2e51f156053cb0888c3a0a0c08259084604051611b189190613362565b60405180910390a2505050565b600960009054906101000a900460ff1681565b60065481565b6000601160009054906101000a900473ffffffffffffffffffffffffffffffffffffffff1673ffffffffffffffffffffffffffffffffffffffff1663efa74f1f836040518263ffffffff1660e01b8152600401611b9b9190613122565b60206040518083038186803b158015611bb357600080fd5b505afa158015611bc7573d6000803e3d6000fd5b505050506040513d601f19601f82011682018060405250810190611beb9190612a6d565b73ffffffffffffffffffffffffffffffffffffffff166370a08231306040518263ffffffff1660e01b8152600401611c239190612f65565b60206040518083038186803b158015611c3b57600080fd5b505afa158015611c4f573d6000803e3d6000fd5b505050506040513d601f19601f82011682018060405250810190611c739190612c5f565b9050919050565b600f60009054906101000a900473ffffffffffffffffffffffffffffffffffffffff1681565b6000339050600960009054906101000a900460ff1615611cf5576040517f08c379a0000000000000000000000000000000000000000000000000000000008152600401611cec906132c2565b60405180910390fd5b60008211611d38576040517f08c379a0000000000000000000000000000000000000000000000000000000008152600401611d2f90613342565b60405180910390fd5b60045460055483611d4991906134b7565b1115611d8a576040517f08c379a0000000000000000000000000000000000000000000000000000000008152600401611d8190613222565b60405180910390fd5b81600a60008373ffffffffffffffffffffffffffffffffffffffff1673ffffffffffffffffffffffffffffffffffffffff1681526020019081526020016000206000828254611dd991906134b7565b925050819055508160056000828254611df291906134b7565b925050819055508073ffffffffffffffffffffffffffffffffffffffff167f9c4f7a1cc1751ba83a1ddccc2da94b1fcfc4efaa2c546f277e551b2dd9c0500583604051611e3f9190613362565b60405180910390a26004546005541415611e5c57611e5b6126ea565b5b600d60009054906101000a900473ffffffffffffffffffffffffffffffffffffffff1673ffffffffffffffffffffffffffffffffffffffff166323b872dd8230856040518463ffffffff1660e01b8152600401611ebb93929190612f80565b602060405180830381600087803b158015611ed557600080fd5b505af1158015611ee9573d6000803e3d6000fd5b505050506040513d601f19601f82011682018060405250810190611f0d9190612a40565b611f4c576040517f08c379a0000000000000000000000000000000000000000000000000000000008152600401611f4390613202565b60405180910390fd5b5050565b600160009054906101000a900473ffffffffffffffffffffffffffffffffffffffff1673ffffffffffffffffffffffffffffffffffffffff163373ffffffffffffffffffffffffffffffffffffffff1614611fe0576040517f08c379a0000000000000000000000000000000000000000000000000000000008152600401611fd790613302565b60405180910390fd5b600960009054906101000a900460ff1661202f576040517f08c379a0000000000000000000000000000000000000000000000000000000008152600401612026906132a2565b60405180910390fd5b600d60009054906101000a900473ffffffffffffffffffffffffffffffffffffffff1673ffffffffffffffffffffffffffffffffffffffff1663095ea7b3600e60009054906101000a900473ffffffffffffffffffffffffffffffffffffffff166004546040518363ffffffff1660e01b81526004016120b0929190612fe9565b602060405180830381600087803b1580156120ca57600080fd5b505af11580156120de573d6000803e3d6000fd5b505050506040513d601f19601f820116820180604052508101906121029190612a40565b612141576040517f08c379a000000000000000000000000000000000000000000000000000000000815260040161213890613282565b60405180910390fd5b565b60075481565b601160009054906101000a900473ffffffffffffffffffffffffffffffffffffffff1681565b60085481565b60008054906101000a900473ffffffffffffffffffffffffffffffffffffffff1673ffffffffffffffffffffffffffffffffffffffff163373ffffffffffffffffffffffffffffffffffffffff16148061221c5750600160009054906101000a900473ffffffffffffffffffffffffffffffffffffffff1673ffffffffffffffffffffffffffffffffffffffff163373ffffffffffffffffffffffffffffffffffffffff16145b61225b576040517f08c379a000000000000000000000000000000000000000000000000000000000815260040161225290613302565b60405180910390fd5b61226361261e565b565b60003390506000600b60008373ffffffffffffffffffffffffffffffffffffffff1673ffffffffffffffffffffffffffffffffffffffff168152602001908152602001600020549050600081116122f1576040517f08c379a00000000000000000000000000000000000000000000000000000000081526004016122e890613242565b60405180910390fd5b8060066000828254612303919061353e565b92505081905550600b60008373ffffffffffffffffffffffffffffffffffffffff1673ffffffffffffffffffffffffffffffffffffffff168152602001908152602001600020600090558173ffffffffffffffffffffffffffffffffffffffff167f97470f6911e16b5918a53053f8d1a686e0acaf6a4bfc7b79d064aa24b9f05713826040516123939190613362565b60405180910390a25050565b600160009054906101000a900473ffffffffffffffffffffffffffffffffffffffff1673ffffffffffffffffffffffffffffffffffffffff163373ffffffffffffffffffffffffffffffffffffffff161461242f576040517f08c379a000000000000000000000000000000000000000000000000000000000815260040161242690613302565b60405180910390fd5b600960009054906101000a900460ff1661247e576040517f08c379a0000000000000000000000000000000000000000000000000000000008152600401612475906132a2565b60405180910390fd5b600e60009054906101000a900473ffffffffffffffffffffffffffffffffffffffff1673ffffffffffffffffffffffffffffffffffffffff166324b8fbf68484846040518463ffffffff1660e01b81526004016124dd93929190612fb7565b600060405180830381600087803b1580156124f757600080fd5b505af115801561250b573d6000803e3d6000fd5b505050506001600960016101000a81548160ff02191690831515021790555082600260006101000a81548173ffffffffffffffffffffffffffffffffffffffff021916908373ffffffffffffffffffffffffffffffffffffffff16021790555081816003919061257c92919061275c565b50505050565b61261a82826040516024016125989291906131b2565b6040516020818303038152906040527f9710a9d0000000000000000000000000000000000000000000000000000000007bffffffffffffffffffffffffffffffffffffffffffffffffffffffff19166020820180517bffffffffffffffffffffffffffffffffffffffffffffffffffffffff8381831617835250505050612733565b5050565b600e60009054906101000a900473ffffffffffffffffffffffffffffffffffffffff1673ffffffffffffffffffffffffffffffffffffffff166384ac33ec600260009054906101000a900473ffffffffffffffffffffffffffffffffffffffff166040518263ffffffff1660e01b815260040161269b9190612f65565b600060405180830381600087803b1580156126b557600080fd5b505af11580156126c9573d6000803e3d6000fd5b505050506000600960016101000a81548160ff021916908315150217905550565b6001600960006101000a81548160ff0219169083151502179055507f2e136745550967f28b779ce8c395ca060a2f844edfb5b06631fe677f66f9e30560405160405180910390a1565b60008151905060006a636f6e736f6c652e6c6f679050602083016000808483855afa5050505050565b828054612768906136b5565b90600052602060002090601f01602090048101928261278a57600085556127d1565b82601f106127a357803560ff19168380011785556127d1565b828001600101855582156127d1579182015b828111156127d05782358255916020019190600101906127b5565b5b5090506127de91906127e2565b5090565b5b808211156127fb5760008160009055506001016127e3565b5090565b600061281261280d8461341d565b6133f8565b90508281526020810184848401111561282e5761282d6137e3565b5b612839848285613673565b509392505050565b600061285461284f8461344e565b6133f8565b9050828152602081018484840111156128705761286f6137e3565b5b61287b848285613673565b509392505050565b600081359050612892816139ef565b92915050565b6000815190506128a781613a06565b92915050565b60008083601f8401126128c3576128c26137d9565b5b8235905067ffffffffffffffff8111156128e0576128df6137d4565b5b6020830191508360018202830111156128fc576128fb6137de565b5b9250929050565b600082601f830112612918576129176137d9565b5b81356129288482602086016127ff565b91505092915050565b60008151905061294081613a1d565b92915050565b60008151905061295581613a34565b92915050565b600082601f8301126129705761296f6137d9565b5b8135612980848260208601612841565b91505092915050565b60008135905061299881613a4b565b92915050565b6000815190506129ad81613a4b565b92915050565b6000602082840312156129c9576129c86137ed565b5b60006129d784828501612883565b91505092915050565b6000806000604084860312156129f9576129f86137ed565b5b6000612a0786828701612883565b935050602084013567ffffffffffffffff811115612a2857612a276137e8565b5b612a34868287016128ad565b92509250509250925092565b600060208284031215612a5657612a556137ed565b5b6000612a6484828501612898565b91505092915050565b600060208284031215612a8357612a826137ed565b5b6000612a9184828501612931565b91505092915050565b600060208284031215612ab057612aaf6137ed565b5b6000612abe84828501612946565b91505092915050565b600060208284031215612add57612adc6137ed565b5b600082013567ffffffffffffffff811115612afb57612afa6137e8565b5b612b078482850161295b565b91505092915050565b600080600060608486031215612b2957612b286137ed565b5b600084013567ffffffffffffffff811115612b4757612b466137e8565b5b612b538682870161295b565b9350506020612b6486828701612883565b9250506040612b7586828701612989565b9150509250925092565b600080600080600060a08688031215612b9b57612b9a6137ed565b5b600086013567ffffffffffffffff811115612bb957612bb86137e8565b5b612bc58882890161295b565b9550506020612bd688828901612883565b9450506040612be788828901612989565b9350506060612bf888828901612989565b925050608086013567ffffffffffffffff811115612c1957612c186137e8565b5b612c2588828901612903565b9150509295509295909350565b600060208284031215612c4857612c476137ed565b5b6000612c5684828501612989565b91505092915050565b600060208284031215612c7557612c746137ed565b5b6000612c838482850161299e565b91505092915050565b612c9581613572565b82525050565b612ca481613584565b82525050565b612cb381613590565b82525050565b6000612cc58385613495565b9350612cd2838584613673565b612cdb836137f2565b840190509392505050565b6000612cf18261347f565b612cfb8185613495565b9350612d0b818560208601613682565b612d14816137f2565b840191505092915050565b612d28816135f5565b82525050565b612d3781613607565b82525050565b612d4681613619565b82525050565b612d558161362b565b82525050565b612d648161363d565b82525050565b6000612d758261348a565b612d7f81856134a6565b9350612d8f818560208601613682565b612d98816137f2565b840191505092915050565b6000612db06018836134a6565b9150612dbb82613803565b602082019050919050565b6000612dd36017836134a6565b9150612dde8261382c565b602082019050919050565b6000612df6601e836134a6565b9150612e0182613855565b602082019050919050565b6000612e196017836134a6565b9150612e248261387e565b602082019050919050565b6000612e3c601b836134a6565b9150612e47826138a7565b602082019050919050565b6000612e5f601d836134a6565b9150612e6a826138d0565b602082019050919050565b6000612e82601b836134a6565b9150612e8d826138f9565b602082019050919050565b6000612ea56017836134a6565b9150612eb082613922565b602082019050919050565b6000612ec86016836134a6565b9150612ed38261394b565b602082019050919050565b6000612eeb6015836134a6565b9150612ef682613974565b602082019050919050565b6000612f0e601d836134a6565b9150612f198261399d565b602082019050919050565b6000612f316017836134a6565b9150612f3c826139c6565b602082019050919050565b612f50816135de565b82525050565b612f5f816135e8565b82525050565b6000602082019050612f7a6000830184612c8c565b92915050565b6000606082019050612f956000830186612c8c565b612fa26020830185612c8c565b612faf6040830184612f47565b949350505050565b6000604082019050612fcc6000830186612c8c565b8181036020830152612fdf818486612cb9565b9050949350505050565b6000604082019050612ffe6000830185612c8c565b61300b6020830184612f47565b9392505050565b60006020820190506130276000830184612c9b565b92915050565b60006080820190506130426000830187612caa565b61304f6020830186612f47565b61305c6040830185612caa565b818103606083015261306e8184612ce6565b905095945050505050565b600060208201905081810360008301526130938184612ce6565b905092915050565b60006020820190506130b06000830184612d1f565b92915050565b60006020820190506130cb6000830184612d2e565b92915050565b60006020820190506130e66000830184612d3d565b92915050565b60006020820190506131016000830184612d4c565b92915050565b600060208201905061311c6000830184612d5b565b92915050565b6000602082019050818103600083015261313c8184612d6a565b905092915050565b6000604082019050818103600083015261315e8185612d6a565b905061316d6020830184612c8c565b9392505050565b6000606082019050818103600083015261318e8186612d6a565b905061319d6020830185612c8c565b6131aa6040830184612f47565b949350505050565b600060408201905081810360008301526131cc8185612d6a565b90506131db6020830184612f47565b9392505050565b600060208201905081810360008301526131fb81612da3565b9050919050565b6000602082019050818103600083015261321b81612dc6565b9050919050565b6000602082019050818103600083015261323b81612de9565b9050919050565b6000602082019050818103600083015261325b81612e0c565b9050919050565b6000602082019050818103600083015261327b81612e2f565b9050919050565b6000602082019050818103600083015261329b81612e52565b9050919050565b600060208201905081810360008301526132bb81612e75565b9050919050565b600060208201905081810360008301526132db81612e98565b9050919050565b600060208201905081810360008301526132fb81612ebb565b9050919050565b6000602082019050818103600083015261331b81612ede565b9050919050565b6000602082019050818103600083015261333b81612f01565b9050919050565b6000602082019050818103600083015261335b81612f24565b9050919050565b60006020820190506133776000830184612f47565b92915050565b60006040820190506133926000830185612f47565b61339f6020830184612f47565b9392505050565b60006060820190506133bb6000830186612f47565b6133c86020830185612f47565b6133d56040830184612caa565b949350505050565b60006020820190506133f26000830184612f56565b92915050565b6000613402613413565b905061340e82826136e7565b919050565b6000604051905090565b600067ffffffffffffffff821115613438576134376137a5565b5b613441826137f2565b9050602081019050919050565b600067ffffffffffffffff821115613469576134686137a5565b5b613472826137f2565b9050602081019050919050565b600081519050919050565b600081519050919050565b600082825260208201905092915050565b600082825260208201905092915050565b60006134c2826135de565b91506134cd836135de565b9250827fffffffffffffffffffffffffffffffffffffffffffffffffffffffffffffffff0382111561350257613501613718565b5b828201905092915050565b6000613518826135de565b9150613523836135de565b92508261353357613532613747565b5b828204905092915050565b6000613549826135de565b9150613554836135de565b92508282101561356757613566613718565b5b828203905092915050565b600061357d826135be565b9050919050565b60008115159050919050565b6000819050919050565b60006135a582613572565b9050919050565b60006135b782613572565b9050919050565b600073ffffffffffffffffffffffffffffffffffffffff82169050919050565b6000819050919050565b600060ff82169050919050565b60006136008261364f565b9050919050565b60006136128261364f565b9050919050565b60006136248261364f565b9050919050565b60006136368261364f565b9050919050565b60006136488261364f565b9050919050565b600061365a82613661565b9050919050565b600061366c826135be565b9050919050565b82818337600083830152505050565b60005b838110156136a0578082015181840152602081019050613685565b838111156136af576000848401525b50505050565b600060028204905060018216806136cd57607f821691505b602082108114156136e1576136e0613776565b5b50919050565b6136f0826137f2565b810181811067ffffffffffffffff8211171561370f5761370e6137a5565b5b80604052505050565b7f4e487b7100000000000000000000000000000000000000000000000000000000600052601160045260246000fd5b7f4e487b7100000000000000000000000000000000000000000000000000000000600052601260045260246000fd5b7f4e487b7100000000000000000000000000000000000000000000000000000000600052602260045260246000fd5b7f4e487b7100000000000000000000000000000000000000000000000000000000600052604160045260246000fd5b600080fd5b600080fd5b600080fd5b600080fd5b600080fd5b600080fd5b6000601f19601f8301169050919050565b7f52656e506f6f6c3a205769746864726177206661696c65640000000000000000600082015250565b7f52656e506f6f6c3a204465706f736974206661696c6564000000000000000000600082015250565b7f52656e506f6f6c3a20416d6f756e742073757270617373657320626f6e640000600082015250565b7f52656e506f6f6c3a20696e76616c696420616d6f756e74000000000000000000600082015250565b7f52656e506f6f6c3a20496e73756666696369656e742066756e64730000000000600082015250565b7f52656e506f6f6c3a20426f6e64207472616e73666572206661696c6564000000600082015250565b7f52656e506f6f6c3a20506f6f6c206973206e6f74206c6f636b65640000000000600082015250565b7f52656e506f6f6c3a20506f6f6c206973206c6f636b6564000000000000000000600082015250565b7f52656e506f6f6c3a20526566756e64206661696c656400000000000000000000600082015250565b7f52656e506f6f6c3a20556e617574686f72697a65640000000000000000000000600082015250565b7f52656e506f6f6c3a20506f6f6c2062616c616e6365206973207a65726f000000600082015250565b7f52656e506f6f6c3a20496e76616c696420616d6f756e74000000000000000000600082015250565b6139f881613572565b8114613a0357600080fd5b50565b613a0f81613584565b8114613a1a57600080fd5b50565b613a268161359a565b8114613a3157600080fd5b50565b613a3d816135ac565b8114613a4857600080fd5b50565b613a54816135de565b8114613a5f57600080fd5b5056fea2646970667358221220c4fbaf9b90d714b85549907fc34b0c8f7b66a578f11445406032ce135792957a64736f6c63430008070033",
  "linkReferences": {},
  "deployedLinkReferences": {}
}