{
  "_format": "hh-sol-artifact-1",
  "contractName": "RenPool",
  "sourceName": "contracts/RenPool.sol",
  "abi": [
    {
      "inputs": [
        {
          "internalType": "address",
          "name": "_renTokenAddr",
          "type": "address"
        },
        {
          "internalType": "address",
          "name": "_darknodeRegistryAddr",
          "type": "address"
        },
        {
          "internalType": "address",
          "name": "_darknodePaymentAddr",
          "type": "address"
        },
        {
          "internalType": "address",
          "name": "_claimRewardsAddr",
          "type": "address"
        },
        {
          "internalType": "address",
          "name": "_gatewayRegistryAddr",
          "type": "address"
        },
        {
          "internalType": "address",
          "name": "_owner",
          "type": "address"
        },
        {
          "internalType": "address",
          "name": "_nodeOperator",
          "type": "address"
        },
        {
          "internalType": "uint256",
          "name": "_bond",
          "type": "uint256"
        }
      ],
      "stateMutability": "nonpayable",
      "type": "constructor"
    },
    {
      "anonymous": false,
      "inputs": [
        {
          "indexed": true,
          "internalType": "address",
          "name": "_from",
          "type": "address"
        },
        {
          "indexed": false,
          "internalType": "uint256",
          "name": "_amount",
          "type": "uint256"
        }
      ],
      "name": "EthDeposited",
      "type": "event"
    },
    {
      "anonymous": false,
      "inputs": [
        {
          "indexed": true,
          "internalType": "address",
          "name": "_from",
          "type": "address"
        },
        {
          "indexed": false,
          "internalType": "uint256",
          "name": "_amount",
          "type": "uint256"
        }
      ],
      "name": "EthWithdrawn",
      "type": "event"
    },
    {
      "anonymous": false,
      "inputs": [],
      "name": "PoolLocked",
      "type": "event"
    },
    {
      "anonymous": false,
      "inputs": [],
      "name": "PoolUnlocked",
      "type": "event"
    },
    {
      "anonymous": false,
      "inputs": [
        {
          "indexed": true,
          "internalType": "address",
          "name": "_from",
          "type": "address"
        },
        {
          "indexed": false,
          "internalType": "uint256",
          "name": "_amount",
          "type": "uint256"
        }
      ],
      "name": "RenDeposited",
      "type": "event"
    },
    {
      "anonymous": false,
      "inputs": [
        {
          "indexed": true,
          "internalType": "address",
          "name": "_from",
          "type": "address"
        },
        {
          "indexed": false,
          "internalType": "uint256",
          "name": "_amount",
          "type": "uint256"
        }
      ],
      "name": "RenWithdrawalRequestCancelled",
      "type": "event"
    },
    {
      "anonymous": false,
      "inputs": [
        {
          "indexed": true,
          "internalType": "address",
          "name": "_from",
          "type": "address"
        },
        {
          "indexed": false,
          "internalType": "uint256",
          "name": "_amount",
          "type": "uint256"
        }
      ],
      "name": "RenWithdrawalRequestFulfilled",
      "type": "event"
    },
    {
      "anonymous": false,
      "inputs": [
        {
          "indexed": true,
          "internalType": "address",
          "name": "_from",
          "type": "address"
        },
        {
          "indexed": false,
          "internalType": "uint256",
          "name": "_amount",
          "type": "uint256"
        }
      ],
      "name": "RenWithdrawalRequested",
      "type": "event"
    },
    {
      "anonymous": false,
      "inputs": [
        {
          "indexed": true,
          "internalType": "address",
          "name": "_from",
          "type": "address"
        },
        {
          "indexed": false,
          "internalType": "uint256",
          "name": "_amount",
          "type": "uint256"
        }
      ],
      "name": "RenWithdrawn",
      "type": "event"
    },
    {
      "anonymous": false,
      "inputs": [
        {
          "indexed": true,
          "internalType": "address",
          "name": "_from",
          "type": "address"
        },
        {
          "indexed": false,
          "internalType": "uint256",
          "name": "_amount",
          "type": "uint256"
        },
        {
          "indexed": false,
          "internalType": "uint256",
          "name": "_nonce",
          "type": "uint256"
        }
      ],
      "name": "RewardsClaimed",
      "type": "event"
    },
    {
      "anonymous": false,
      "inputs": [
        {
          "indexed": true,
          "internalType": "address",
          "name": "_from",
          "type": "address"
        },
        {
          "indexed": false,
          "internalType": "uint256",
          "name": "_mintedAmount",
          "type": "uint256"
        }
      ],
      "name": "RewardsMinted",
      "type": "event"
    },
    {
      "inputs": [],
      "name": "DECIMALS",
      "outputs": [
        {
          "internalType": "uint8",
          "name": "",
          "type": "uint8"
        }
      ],
      "stateMutability": "view",
      "type": "function"
    },
    {
      "inputs": [],
      "name": "approveBondTransfer",
      "outputs": [],
      "stateMutability": "nonpayable",
      "type": "function"
    },
    {
      "inputs": [
        {
          "internalType": "address",
          "name": "_target",
          "type": "address"
        }
      ],
      "name": "balanceOf",
      "outputs": [
        {
          "internalType": "uint256",
          "name": "",
          "type": "uint256"
        }
      ],
      "stateMutability": "view",
      "type": "function"
    },
    {
      "inputs": [
        {
          "internalType": "address",
          "name": "",
          "type": "address"
        }
      ],
      "name": "balances",
      "outputs": [
        {
          "internalType": "uint256",
          "name": "",
          "type": "uint256"
        }
      ],
      "stateMutability": "view",
      "type": "function"
    },
    {
      "inputs": [],
      "name": "bond",
      "outputs": [
        {
          "internalType": "uint256",
          "name": "",
          "type": "uint256"
        }
      ],
      "stateMutability": "view",
      "type": "function"
    },
    {
      "inputs": [
        {
          "internalType": "bytes32",
          "name": "c__0xd43f3d79",
          "type": "bytes32"
        }
      ],
      "name": "c_0xd43f3d79",
      "outputs": [],
      "stateMutability": "pure",
      "type": "function"
    },
    {
      "inputs": [],
      "name": "cancelWithdrawalRequest",
      "outputs": [],
      "stateMutability": "nonpayable",
      "type": "function"
    },
    {
      "inputs": [],
      "name": "claimRewards",
      "outputs": [
        {
          "internalType": "contract IClaimRewardsV1",
          "name": "",
          "type": "address"
        }
      ],
      "stateMutability": "view",
      "type": "function"
    },
    {
      "inputs": [
        {
          "internalType": "string",
          "name": "_assetSymbol",
          "type": "string"
        },
        {
          "internalType": "address",
          "name": "_recipientAddress",
          "type": "address"
        },
        {
          "internalType": "uint256",
          "name": "_amount",
          "type": "uint256"
        }
      ],
      "name": "claimRewardsToChain",
      "outputs": [
        {
          "internalType": "uint256",
          "name": "",
          "type": "uint256"
        }
      ],
      "stateMutability": "nonpayable",
      "type": "function"
    },
    {
      "inputs": [],
      "name": "darknodeID",
      "outputs": [
        {
          "internalType": "address",
          "name": "",
          "type": "address"
        }
      ],
      "stateMutability": "view",
      "type": "function"
    },
    {
      "inputs": [],
      "name": "darknodePayment",
      "outputs": [
        {
          "internalType": "contract IDarknodePayment",
          "name": "",
          "type": "address"
        }
      ],
      "stateMutability": "view",
      "type": "function"
    },
    {
      "inputs": [],
      "name": "darknodeRegistry",
      "outputs": [
        {
          "internalType": "contract IDarknodeRegistry",
          "name": "",
          "type": "address"
        }
      ],
      "stateMutability": "view",
      "type": "function"
    },
    {
      "inputs": [
        {
          "internalType": "uint256",
          "name": "_amount",
          "type": "uint256"
        }
      ],
      "name": "deposit",
      "outputs": [],
      "stateMutability": "nonpayable",
      "type": "function"
    },
    {
      "inputs": [],
      "name": "deregisterDarknode",
      "outputs": [],
      "stateMutability": "nonpayable",
      "type": "function"
    },
    {
      "inputs": [
        {
          "internalType": "address",
          "name": "_target",
          "type": "address"
        }
      ],
      "name": "fulfillWithdrawalRequest",
      "outputs": [],
      "stateMutability": "nonpayable",
      "type": "function"
    },
    {
      "inputs": [],
      "name": "gatewayRegistry",
      "outputs": [
        {
          "internalType": "contract IGatewayRegistry",
          "name": "",
          "type": "address"
        }
      ],
      "stateMutability": "view",
      "type": "function"
    },
    {
      "inputs": [
        {
          "internalType": "string",
          "name": "_assetSymbol",
          "type": "string"
        }
      ],
      "name": "getDarknodeBalance",
      "outputs": [
        {
          "internalType": "uint256",
          "name": "",
          "type": "uint256"
        }
      ],
      "stateMutability": "view",
      "type": "function"
    },
    {
      "inputs": [],
      "name": "isLocked",
      "outputs": [
        {
          "internalType": "bool",
          "name": "",
          "type": "bool"
        }
      ],
      "stateMutability": "view",
      "type": "function"
    },
    {
      "inputs": [],
      "name": "isRegistered",
      "outputs": [
        {
          "internalType": "bool",
          "name": "",
          "type": "bool"
        }
      ],
      "stateMutability": "view",
      "type": "function"
    },
    {
      "inputs": [
        {
          "internalType": "string",
          "name": "_assetSymbol",
          "type": "string"
        },
        {
          "internalType": "address",
          "name": "_recipientAddress",
          "type": "address"
        },
        {
          "internalType": "uint256",
          "name": "_amount",
          "type": "uint256"
        },
        {
          "internalType": "uint256",
          "name": "_nonce",
          "type": "uint256"
        },
        {
          "internalType": "bytes",
          "name": "_sig",
          "type": "bytes"
        }
      ],
      "name": "mintRewards",
      "outputs": [],
      "stateMutability": "nonpayable",
      "type": "function"
    },
    {
      "inputs": [],
      "name": "nodeOperator",
      "outputs": [
        {
          "internalType": "address",
          "name": "",
          "type": "address"
        }
      ],
      "stateMutability": "view",
      "type": "function"
    },
    {
      "inputs": [],
      "name": "nodeOperatorFee",
      "outputs": [
        {
          "internalType": "uint256",
          "name": "",
          "type": "uint256"
        }
      ],
      "stateMutability": "view",
      "type": "function"
    },
    {
      "inputs": [
        {
          "internalType": "address",
          "name": "",
          "type": "address"
        }
      ],
      "name": "nonces",
      "outputs": [
        {
          "internalType": "uint256",
          "name": "",
          "type": "uint256"
        }
      ],
      "stateMutability": "view",
      "type": "function"
    },
    {
      "inputs": [],
      "name": "owner",
      "outputs": [
        {
          "internalType": "address",
          "name": "",
          "type": "address"
        }
      ],
      "stateMutability": "view",
      "type": "function"
    },
    {
      "inputs": [],
      "name": "ownerFee",
      "outputs": [
        {
          "internalType": "uint256",
          "name": "",
          "type": "uint256"
        }
      ],
      "stateMutability": "view",
      "type": "function"
    },
    {
      "inputs": [],
      "name": "publicKey",
      "outputs": [
        {
          "internalType": "bytes",
          "name": "",
          "type": "bytes"
        }
      ],
      "stateMutability": "view",
      "type": "function"
    },
    {
      "inputs": [],
      "name": "refundBond",
      "outputs": [],
      "stateMutability": "nonpayable",
      "type": "function"
    },
    {
      "inputs": [
        {
          "internalType": "address",
          "name": "_darknodeID",
          "type": "address"
        },
        {
          "internalType": "bytes",
          "name": "_publicKey",
          "type": "bytes"
        }
      ],
      "name": "registerDarknode",
      "outputs": [],
      "stateMutability": "nonpayable",
      "type": "function"
    },
    {
      "inputs": [],
      "name": "renToken",
      "outputs": [
        {
          "internalType": "contract IERC20",
          "name": "",
          "type": "address"
        }
      ],
      "stateMutability": "view",
      "type": "function"
    },
    {
      "inputs": [
        {
          "internalType": "uint256",
          "name": "_amount",
          "type": "uint256"
        }
      ],
      "name": "requestWithdrawal",
      "outputs": [],
      "stateMutability": "nonpayable",
      "type": "function"
    },
    {
      "inputs": [],
      "name": "totalPooled",
      "outputs": [
        {
          "internalType": "uint256",
          "name": "",
          "type": "uint256"
        }
      ],
      "stateMutability": "view",
      "type": "function"
    },
    {
      "inputs": [],
      "name": "totalWithdrawalRequested",
      "outputs": [
        {
          "internalType": "uint256",
          "name": "",
          "type": "uint256"
        }
      ],
      "stateMutability": "view",
      "type": "function"
    },
    {
      "inputs": [],
      "name": "unlockPool",
      "outputs": [],
      "stateMutability": "nonpayable",
      "type": "function"
    },
    {
      "inputs": [
        {
          "internalType": "uint256",
          "name": "_amount",
          "type": "uint256"
        }
      ],
      "name": "withdraw",
      "outputs": [],
      "stateMutability": "nonpayable",
      "type": "function"
    },
    {
      "inputs": [],
      "name": "withdrawGas",
      "outputs": [],
      "stateMutability": "nonpayable",
      "type": "function"
    },
    {
      "inputs": [
        {
          "internalType": "address",
          "name": "",
          "type": "address"
        }
      ],
      "name": "withdrawalRequests",
      "outputs": [
        {
          "internalType": "uint256",
          "name": "",
          "type": "uint256"
        }
      ],
      "stateMutability": "view",
      "type": "function"
    },
    {
      "stateMutability": "payable",
      "type": "receive"
    }
  ],
  "bytecode": "0x60806040523480156200001157600080fd5b5060405162006f4838038062006f4883398181016040528101906200003791906200087d565b6200006b7faeb8f7043815476442f6bf9e5e743cbf36f47021e588ec22839721db0c2a699560001b6200084c60201b60201c565b6200009f7fee0716639710833bc08a1f28ed48dbb6d7fb5b67243449270dfcb0c2902e08f660001b6200084c60201b60201c565b620000d37fa94ad612f9efec6e67ff634cb0fce98233b1c0bf8b3a5491c056a54073557af460001b6200084c60201b60201c565b826000806101000a81548173ffffffffffffffffffffffffffffffffffffffff021916908373ffffffffffffffffffffffffffffffffffffffff160217905550620001477f991f053a3e051d1c0b5968354a35b258d7965d31ae9e238444bdb0e6b12c194060001b6200084c60201b60201c565b6200017b7f52dfe979c9734161a4cac214b6139546872d7ea0df3a6165fe2e07e310b072c260001b6200084c60201b60201c565b81600160006101000a81548173ffffffffffffffffffffffffffffffffffffffff021916908373ffffffffffffffffffffffffffffffffffffffff160217905550620001f07f7d9a69b7d94fe72608ba163907dd22a7821111a273b1421e2f4322347004338460001b6200084c60201b60201c565b620002247f08467ed6af51ff92bfa8e4dab50b1dde3428baec5ae380c328bca8e69204a31260001b6200084c60201b60201c565b87600d60006101000a81548173ffffffffffffffffffffffffffffffffffffffff021916908373ffffffffffffffffffffffffffffffffffffffff160217905550620002997f42a77a914b8ac9c1a21e5265b44877d6bfe834b52f8064636ac2f27c8f90f6a160001b6200084c60201b60201c565b620002cd7f04ddf44800722c370f6f16b688d0dbb4be0bafaac40fa63cc834321b979541e160001b6200084c60201b60201c565b86600e60006101000a81548173ffffffffffffffffffffffffffffffffffffffff021916908373ffffffffffffffffffffffffffffffffffffffff160217905550620003427f961fa866a8842482a2b7d46c8745cfc977651b8e46114c732a1882de39c4092660001b6200084c60201b60201c565b620003767ffbdf111e1b916b4e15a69bbe3cd9044396a0d70a3f22a527913a15ff0f84c24d60001b6200084c60201b60201c565b85600f60006101000a81548173ffffffffffffffffffffffffffffffffffffffff021916908373ffffffffffffffffffffffffffffffffffffffff160217905550620003eb7f6294b7ef317d432a171a0edcb5c9182d74ba183aecf0b6b98bb0d1a8692d6a0960001b6200084c60201b60201c565b6200041f7f8d9593c59a14360025628701067e12fa85f02adaa195737e109b2413e7ddb6bd60001b6200084c60201b60201c565b84601060006101000a81548173ffffffffffffffffffffffffffffffffffffffff021916908373ffffffffffffffffffffffffffffffffffffffff160217905550620004947f0e989f5fae379996d8cc34bd065116c3ecdf561c7a392fb8425ff96929dc8bc560001b6200084c60201b60201c565b620004c87f59832f60d6af7fb49ddb1e87f2e6e18e57651f434b8b1f0cb632705abc719ae960001b6200084c60201b60201c565b83601160006101000a81548173ffffffffffffffffffffffffffffffffffffffff021916908373ffffffffffffffffffffffffffffffffffffffff1602179055506200053d7fb0ff7b25214d932280bcafa91237ac8169d8cbf0018cbfe60e8bbe92e498341960001b6200084c60201b60201c565b620005717f344c33e44ee21e4846bb7b26777d9ff9d6ef98493615139300940da22cd9c1ef60001b6200084c60201b60201c565b80600481905550620005ac7fbf3a83abe92f1c14d80922bed805484368438eceffdff1591d0409ca092e964360001b6200084c60201b60201c565b620005e07f6bc8805e78170ba2584fabceb6d4e9aa1820bbd8592db3c5c858b0c20442e95e60001b6200084c60201b60201c565b6000600960006101000a81548160ff0219169083151502179055506200062f7f0f6bf45b82fd65f9dd65c48eec7df21925ad6ae4cb2b16c5409d1a7bdd69728260001b6200084c60201b60201c565b620006637fea663307d0b960619fdf64c659143a72710a6c8eeca255bad8952de61361392760001b6200084c60201b60201c565b6000600960016101000a81548160ff021916908315150217905550620006b27f7275ced130991bad1b22db13905cbdac02c5d58cea00bcc0cc88c20ae91f545d60001b6200084c60201b60201c565b620006e67f12c8ded6a17958a45f9c92e331b036b3a9542b545973c6bebe9b1ccd39a4e30960001b6200084c60201b60201c565b6000600581905550620007227f40d83f9ffe45696483ccedfd792c70c053c8792f446a9e918049766944fd91b160001b6200084c60201b60201c565b620007567f69e3c493eeb29373fac2728f0299ae7097ac3a97c78c980721b7ca20e4f0ac7d60001b6200084c60201b60201c565b6000600681905550620007927f3f8938beb058ec148584c689eb134005a59c26a91717022ea12a8833322aa6ed60001b6200084c60201b60201c565b620007c67f266db05ec38475e2ac5d66546a45bc28efcc3b233aedaa26fee6be5d2533c26960001b6200084c60201b60201c565b6005600781905550620008027ffdec301f82d7ec02bec4c79c93fc7180950cfab513b43401fb3e2e6ac073040460001b6200084c60201b60201c565b620008367f4d59c4b5f1bd3ef8b6cd1dc716b672a1ff46aa9b76f1f69a8298874a506e22f260001b6200084c60201b60201c565b60056008819055505050505050505050620009bd565b50565b600081519050620008608162000989565b92915050565b6000815190506200087781620009a3565b92915050565b600080600080600080600080610100898b031215620008a157620008a062000984565b5b6000620008b18b828c016200084f565b9850506020620008c48b828c016200084f565b9750506040620008d78b828c016200084f565b9650506060620008ea8b828c016200084f565b9550506080620008fd8b828c016200084f565b94505060a0620009108b828c016200084f565b93505060c0620009238b828c016200084f565b92505060e0620009368b828c0162000866565b9150509295985092959890939650565b600062000953826200095a565b9050919050565b600073ffffffffffffffffffffffffffffffffffffffff82169050919050565b6000819050919050565b600080fd5b620009948162000946565b8114620009a057600080fd5b50565b620009ae816200097a565b8114620009ba57600080fd5b50565b61657b80620009cd6000396000f3fe6080604052600436106102135760003560e01c80637ecebe0011610118578063b6b34c67116100a0578063d693452e1161006f578063d693452e146107de578063e39f610114610809578063e438a77d14610834578063e714a0281461084b578063e7585aea1461086257610294565b8063b6b34c6714610748578063b6b55f2514610773578063b7eb85c41461079c578063d5b2a01a146107b357610294565b80639e45e0d0116100e75780639e45e0d0146106615780639ee679e81461068c578063a4e2d634146106b5578063aaaa0c4b146106e0578063ac3479871461070b57610294565b80637ecebe00146105b757806389026538146105f45780638da5cb5b1461060b578063901a64981461063657610294565b80632e1a7d4d1161019b57806364c9ec6f1161016a57806364c9ec6f146104be5780636664e42e146104e95780636ec21cc81461051257806370a082311461053d57806371bbef361461057a57610294565b80632e1a7d4d1461041457806334246f9b1461043d578063372500ab1461046857806363ffab311461049357610294565b806322366844116101e2578063223668441461031b578063270016fb1461034657806327b380f31461036f57806327e235e3146103ac5780632e0f2625146103e957610294565b8063023c5b08146102995780630d3daff4146102c45780631261795d146102ed57806313a0ae2b1461030457610294565b36610294576102447f75e2f740915a3cc8e356ba3de03b6311a994f3b3e237c881143a486c85f653bf60001b61088b565b3373ffffffffffffffffffffffffffffffffffffffff167f66ff7c8f71ccc7c36152a41920d0d3b46ef3034359f76aa1498ed4478c204b5c3460405161028a9190615e2e565b60405180910390a2005b600080fd5b3480156102a557600080fd5b506102ae61088e565b6040516102bb9190615a31565b60405180910390f35b3480156102d057600080fd5b506102eb60048036038101906102e6919061550c565b61088b565b005b3480156102f957600080fd5b506103026108b4565b005b34801561031057600080fd5b50610319610c61565b005b34801561032757600080fd5b50610330610d96565b60405161033d9190615ade565b60405180910390f35b34801561035257600080fd5b5061036d60048036038101906103689190615452565b610da9565b005b34801561037b57600080fd5b5061039660048036038101906103919190615452565b6116e5565b6040516103a39190615e2e565b60405180910390f35b3480156103b857600080fd5b506103d360048036038101906103ce9190615452565b6116fd565b6040516103e09190615e2e565b60405180910390f35b3480156103f557600080fd5b506103fe611715565b60405161040b9190615ea9565b60405180910390f35b34801561042057600080fd5b5061043b600480360381019061043691906156fe565b61171a565b005b34801561044957600080fd5b50610452611e99565b60405161045f9190615bb8565b60405180910390f35b34801561047457600080fd5b5061047d611ebf565b60405161048a9190615b67565b60405180910390f35b34801561049f57600080fd5b506104a8611ee5565b6040516104b59190615b45565b60405180910390f35b3480156104ca57600080fd5b506104d3611f73565b6040516104e09190615e2e565b60405180910390f35b3480156104f557600080fd5b50610510600480360381019061050b919061564b565b611f79565b005b34801561051e57600080fd5b5061052761238f565b6040516105349190615e2e565b60405180910390f35b34801561054957600080fd5b50610564600480360381019061055f9190615452565b612395565b6040516105719190615e2e565b60405180910390f35b34801561058657600080fd5b506105a1600480360381019061059c91906155dc565b612462565b6040516105ae9190615e2e565b60405180910390f35b3480156105c357600080fd5b506105de60048036038101906105d99190615452565b612802565b6040516105eb9190615e2e565b60405180910390f35b34801561060057600080fd5b5061060961281a565b005b34801561061757600080fd5b50610620612cca565b60405161062d9190615a31565b60405180910390f35b34801561064257600080fd5b5061064b612cee565b6040516106589190615a31565b60405180910390f35b34801561066d57600080fd5b50610676612d14565b6040516106839190615b9d565b60405180910390f35b34801561069857600080fd5b506106b360048036038101906106ae91906156fe565b612d3a565b005b3480156106c157600080fd5b506106ca61344e565b6040516106d79190615ade565b60405180910390f35b3480156106ec57600080fd5b506106f5613461565b6040516107029190615e2e565b60405180910390f35b34801561071757600080fd5b50610732600480360381019061072d9190615593565b613467565b60405161073f9190615e2e565b60405180910390f35b34801561075457600080fd5b5061075d613627565b60405161076a9190615b82565b60405180910390f35b34801561077f57600080fd5b5061079a600480360381019061079591906156fe565b61364d565b005b3480156107a857600080fd5b506107b1613e56565b005b3480156107bf57600080fd5b506107c86142dd565b6040516107d59190615e2e565b60405180910390f35b3480156107ea57600080fd5b506107f36142e3565b6040516108009190615bd3565b60405180910390f35b34801561081557600080fd5b5061081e614309565b60405161082b9190615e2e565b60405180910390f35b34801561084057600080fd5b5061084961430f565b005b34801561085757600080fd5b5061086061458b565b005b34801561086e57600080fd5b506108896004803603810190610884919061547f565b61492d565b005b50565b600160009054906101000a900473ffffffffffffffffffffffffffffffffffffffff1681565b6108e07f983ba2bce402edb5e92b90bd7d72b8def43e16f742b9152a29a0555ae14774f760001b61088b565b61090c7fc0ff43dfd4918538ac6640d01df5d5bfb760597e93c293cf9281da95f15e529d60001b61088b565b6109387f9d2840af77f934b6f40881db99243220eb9b1203441258bb5a07eadf1c6561c860001b61088b565b6109647f970d69fd5eb3bd783025af47566ad16251bec33ad1a6802925dc4f19b13af92460001b61088b565b600160009054906101000a900473ffffffffffffffffffffffffffffffffffffffff1673ffffffffffffffffffffffffffffffffffffffff163373ffffffffffffffffffffffffffffffffffffffff16146109f4576040517f08c379a00000000000000000000000000000000000000000000000000000000081526004016109eb90615dce565b60405180910390fd5b610a207f95683d0c9fef982b0eecb1405d0fc9bfe6371cc1ed9c06dd6c7ca33a2fbad19460001b61088b565b610a4c7fef1ac27622e100adeb7093e414284239fbf589c6794b9fd720f96a65bf7d467260001b61088b565b610a787f05c52e2e757b704ee37cacc85bcd2ad31fe4940327f21c40eee49cc43f40b54c60001b61088b565b610aa47f4e365342f0946657194340f9abcecb6efff5ad753ee4a810ac628874d9af7e9960001b61088b565b610ad07f1cfd4bb9ff4d7b04472d64ac4c71f02514058461560de91cb2d6adf53c42b03760001b61088b565b6000479050610b017f2f887d90a6ab98f6d741d4f5e87bcff7d89d8ec3d643e5ce3fff9a84f8f0431560001b61088b565b610b2d7fff8f4728043ff8198c1aa493e774318cefee1508be4f7bcebfa10ad136884da160001b61088b565b600160009054906101000a900473ffffffffffffffffffffffffffffffffffffffff1673ffffffffffffffffffffffffffffffffffffffff166108fc829081150290604051600060405180830381858888f19350505050158015610b95573d6000803e3d6000fd5b50610bc27ffaca8b38bad904074d007a99936885c24bd108a1a46b38f4c8a00f65f54cd4a460001b61088b565b610bee7f52257046d0c47f4ae30056e2e831a9c4ad542da6194311c529bbaca75e2091a460001b61088b565b600160009054906101000a900473ffffffffffffffffffffffffffffffffffffffff1673ffffffffffffffffffffffffffffffffffffffff167f8455ae6be5d92f1df1c3c1484388e247a36c7e60d72055ae216dbc258f257d4b82604051610c569190615e2e565b60405180910390a250565b610c8d7fe37cf64a6e2d819f234a4ed5d51ffe87eeb65d17ad7e35edd2866d470c0e686360001b61088b565b610cb97f2c9a5bb9934ad26fd47b925cf7e21513a09ad2300a827ed2c6a3a289f35a1d9060001b61088b565b610ce57f610be81338132ba49157beb1959166f8826c8c0f9c6a3330c48198fd0eeb4dca60001b61088b565b600e60009054906101000a900473ffffffffffffffffffffffffffffffffffffffff1673ffffffffffffffffffffffffffffffffffffffff1663fa89401a600260009054906101000a900473ffffffffffffffffffffffffffffffffffffffff166040518263ffffffff1660e01b8152600401610d629190615a31565b600060405180830381600087803b158015610d7c57600080fd5b505af1158015610d90573d6000803e3d6000fd5b50505050565b600960019054906101000a900460ff1681565b610dd57f1b7825aa90ae0390b7d08f70ab0ae77d4e3bb14784180749876c960ac9b0ac1f60001b61088b565b610e017fe5d6d09a3d2fb99a296c779de820bf5b47d0d6f14a8f234e9754c9e868ec0be760001b61088b565b610e2d7f9c1e4b135d12400212e4ad6cd2df6468eda7cf557ee72c89ff703f31750e7a6760001b61088b565b6000339050610e5e7f5910a6bcf8f721265348162504d272c5b0f807035f38eb0c6ca693a94e8deffa60001b61088b565b610e8a7f106075404d6754987900f9233375c5b2945bf733a624630b8d96373a6a8ae95660001b61088b565b6000600b60008473ffffffffffffffffffffffffffffffffffffffff1673ffffffffffffffffffffffffffffffffffffffff168152602001908152602001600020549050610efa7f822f65ddaf2e607f4c7a283fa11fc92b424479b67410f230d15ea4fb4865971560001b61088b565b610f267f7e47b30d64bd58c0773b828730e6c8c6229b9d619842fffda31181ed9a85574160001b61088b565b610f527f6b311aced70799415367572deedaaa37fc2d86dfa5e52389181ee2e4fe4ad8a560001b61088b565b60008111610f95576040517f08c379a0000000000000000000000000000000000000000000000000000000008152600401610f8c90615d0e565b60405180910390fd5b610fc17f55055761879b72e301ad794768d65cf85b05a5442eb810baa507aa0600b5b72260001b61088b565b610fed7fbf5f0e0c4cd66ac25aacc3651d4816f49e3dbeea067ba3e773c5cbec8a378f0760001b61088b565b6110197f597dde0e30053f3ea38523fa6f930598e34b609168b281c7abcbdc2fe7988b7a60001b61088b565b6110457fc33772c7445a06a14b8d406a5b8bb43db3ca4350b24f9f847631fdfba6f604a160001b61088b565b600960009054906101000a900460ff16611094576040517f08c379a000000000000000000000000000000000000000000000000000000000815260040161108b90615d6e565b60405180910390fd5b6110c07f76d1ab5fb8855340dabcf4b821d1f68d704af7d2f9035659d48e2b4efaece8d660001b61088b565b6110ec7f47205d4b1d29ee305649aa041477551249ed1fa9f01ad462ffb65bae290a0ac260001b61088b565b6111187f49bdb3ce7951ecb7bea005dfd30a6772da8f08d236f36e6019501285080662a860001b61088b565b80600a60008473ffffffffffffffffffffffffffffffffffffffff1673ffffffffffffffffffffffffffffffffffffffff16815260200190815260200160002060008282546111679190615f83565b9250508190555061119a7fc032f76a87a7e2826ce0d5088a4138e028bdb3f2cada9ea0e5f689afd2d1ad2960001b61088b565b6111c67f4652e6dbc832be59bc667848acf85b891f1f58ef4839bab6506be1d9763b93a360001b61088b565b80600a60008573ffffffffffffffffffffffffffffffffffffffff1673ffffffffffffffffffffffffffffffffffffffff1681526020019081526020016000206000828254611215919061600a565b925050819055506112487fb0eff535c822e8773d9caeb51f1a3846b17897c05af550dcbad61ee8fd400ca260001b61088b565b6112747f3662a377395bb0c84eac6698ba41046ef66cad594bc79b8a06f8f2d7f9330fcf60001b61088b565b8060066000828254611286919061600a565b925050819055506112b97f84aeb101a1c6c79818056f07d46d65854793d51300a53280f22f03d8cd365b7360001b61088b565b600b60008473ffffffffffffffffffffffffffffffffffffffff1673ffffffffffffffffffffffffffffffffffffffff168152602001908152602001600020600090556113287f6e489e1dfb4efdce3e05d5112a935838636c1a0bc5ad16b2ffc03b2d6f1c2c2560001b61088b565b6113547fa3f97cae11f557a8e84ab2271a1e95206cdd9cd8843ccfc354eb6914467cc83160001b61088b565b6113807fb56281bb47c3206160a8b6d3ecb34db114633f9a0329b9e884d36fc6a6e7c65b60001b61088b565b600d60009054906101000a900473ffffffffffffffffffffffffffffffffffffffff1673ffffffffffffffffffffffffffffffffffffffff166323b872dd8330846040518463ffffffff1660e01b81526004016113df93929190615a4c565b602060405180830381600087803b1580156113f957600080fd5b505af115801561140d573d6000803e3d6000fd5b505050506040513d601f19601f8201168201806040525081019061143191906154df565b611470576040517f08c379a000000000000000000000000000000000000000000000000000000000815260040161146790615cce565b60405180910390fd5b61149c7ffd80b2161784d2215aa16dfd2e9cc91de051ee762a169a1f26993e82048e822460001b61088b565b6114c87fddaa8e4211290e97a33eb5de792407763373670a9146580f0797ae8f6ed1f9f060001b61088b565b6114f47fe8a3fca5146ae0857120f0dd48ae60183563a99196a91a377b18d9a7c9e1db2d60001b61088b565b6115207fd47245ebdbc26f5b023f7c640f49a4b60c2afb5105846adb10a5b76622a9cfee60001b61088b565b600d60009054906101000a900473ffffffffffffffffffffffffffffffffffffffff1673ffffffffffffffffffffffffffffffffffffffff1663a9059cbb84836040518363ffffffff1660e01b815260040161157d929190615ab5565b602060405180830381600087803b15801561159757600080fd5b505af11580156115ab573d6000803e3d6000fd5b505050506040513d601f19601f820116820180604052508101906115cf91906154df565b61160e576040517f08c379a000000000000000000000000000000000000000000000000000000000815260040161160590615dae565b60405180910390fd5b61163a7f971f1c7f983e8348c3a489526c166137069c307e0ce33c5d5d3a060345f78c1660001b61088b565b6116667f857b0616aa26a6db7dbc70360d536dda2d077bcbeaab366731b87902c79fea1c60001b61088b565b6116927fc4b676c6a5574acbd0faa328db7a3daa0ae7a24af83cacd33f095d0f61a632ac60001b61088b565b8173ffffffffffffffffffffffffffffffffffffffff167fc0c6ac36718cda96fac02ecd8ae8aad366fb1ce2b294e1c2de0bee39ddd328af826040516116d89190615e2e565b60405180910390a2505050565b600b6020528060005260406000206000915090505481565b600a6020528060005260406000206000915090505481565b601281565b6117467fd253d371aa496259c53ff219dd6c2b30b672ca88f4e9ce6e35c4c5ecdad2a35860001b61088b565b6117727f5d397fee8e47be68ce42e27ab5a3a160235c2847699309a52e820e730996777160001b61088b565b61179e7f4317e362befb24472a05279a031e77edd03765f728350f384d1d1f4718072aac60001b61088b565b60003390506117cf7fb5328d63929cbd898986ae7afed33543de3b5c7a6c2015c4628db0a52fb80bf660001b61088b565b6117fb7f685ea125b5161ae63a97cedc43503512a137bc61a07314c52339db47435d909160001b61088b565b6000600a60008373ffffffffffffffffffffffffffffffffffffffff1673ffffffffffffffffffffffffffffffffffffffff16815260200190815260200160002054905061186b7f3a277c9cae702c6c504c89ac8f6a4b8177f7f11e3627814bd46813a2c9113a0c60001b61088b565b6118977f5840a65ca05aef07dced3d77a19d16920a7eeb814e3818c43166ab3290b4ec7160001b61088b565b6118c37fdb0b85bfdf80beecca5aecdbcdaca669f202a1a290ff92f2d1db5f858f8dcde860001b61088b565b60008311611906576040517f08c379a00000000000000000000000000000000000000000000000000000000081526004016118fd90615e0e565b60405180910390fd5b6119327fc446d280f23d3aac3cab23dc9c640c2beacde992c46bc46af3308bab77d592b560001b61088b565b61195e7ffe9e6910507ffb03cb54fcd55ac6e3d16b027ae4d336ef57fc75a51647949b4360001b61088b565b61198a7fcc32652760fe0ca43b7c58ad8814773cd7959dc9ef467bf74a793e7af907b8d560001b61088b565b6119b67f72d300426a293f62b4a23ffd15b541eda1a80d5e38aad8063bedb977c7e7388460001b61088b565b6000811180156119c65750828110155b611a05576040517f08c379a00000000000000000000000000000000000000000000000000000000081526004016119fc90615d2e565b60405180910390fd5b611a317f7156d2250145c89faded3bb8e741952a6c78e4c779df3048ff2b6ecf3113fe7d60001b61088b565b611a5d7fb962d4ce4ce9917d2af7dfd8414a0b44b434e50d0555617c9615fe314cfde03b60001b61088b565b611a897f114e7bdd036aa290c59e509dbc3a2c690180101b4f35d979b57cbfeea1db7d6360001b61088b565b611ab57f6b9ef942557d4e31d759cfdce44b891ab322c40bda685bf048ff376547949e4160001b61088b565b600960009054906101000a900460ff1615611b05576040517f08c379a0000000000000000000000000000000000000000000000000000000008152600401611afc90615d8e565b60405180910390fd5b611b317ff436f224082ac585c31fb9f33d95d83113350cac3e1cbe81f8d737b3d65c32c960001b61088b565b611b5d7fbbd2725ab468a68cec20f820724ed618d3599533c2cd503eece66e8495bba69360001b61088b565b611b897f84e32760e32f5881d982bcd2e39de574f44bbfe7ed692571f4feab07537b328b60001b61088b565b8260056000828254611b9b919061600a565b92505081905550611bce7f582f26639188ba751f0d825ddff21eaf885840bd9195bcfcc9d0cda70e8ee2b060001b61088b565b611bfa7fe82805271728f16a8544fa042546935c187ba6662fcdc51fc578db660a93434c60001b61088b565b82600a60008473ffffffffffffffffffffffffffffffffffffffff1673ffffffffffffffffffffffffffffffffffffffff1681526020019081526020016000206000828254611c49919061600a565b92505081905550611c7c7f3d145496fb626ae282c1566beb8d9b6241fae437fb0e4bafd3e36a4968ef9c1a60001b61088b565b611ca87f2b99d4a62170ad60cd9311616b430637778c69f1c9d4216bc1a61f48703b3a5d60001b61088b565b611cd47f9be7c8d8a3dde1332838df312540a9b381968ed9358c283b67a994cf8e69e19f60001b61088b565b600d60009054906101000a900473ffffffffffffffffffffffffffffffffffffffff1673ffffffffffffffffffffffffffffffffffffffff1663a9059cbb83856040518363ffffffff1660e01b8152600401611d31929190615ab5565b602060405180830381600087803b158015611d4b57600080fd5b505af1158015611d5f573d6000803e3d6000fd5b505050506040513d601f19601f82011682018060405250810190611d8391906154df565b611dc2576040517f08c379a0000000000000000000000000000000000000000000000000000000008152600401611db990615cae565b60405180910390fd5b611dee7f0d9de48cb15ac3d9337351b9cce4503ed84ca1681e6c727329d94a2775af4b8960001b61088b565b611e1a7f05cc821254c0266df6bc950cd27545caafe07f6e9a6fef19e132a0234c91737560001b61088b565b611e467fd013653b53b09cd103faa3406aa693b3ee9151c1974fa804824ae3bfdff1026260001b61088b565b8173ffffffffffffffffffffffffffffffffffffffff167f315d4ef2c32c6e9b2d2364f5d35c06ffb3427d08357493b104b90799c99c1e3c84604051611e8c9190615e2e565b60405180910390a2505050565b600d60009054906101000a900473ffffffffffffffffffffffffffffffffffffffff1681565b601060009054906101000a900473ffffffffffffffffffffffffffffffffffffffff1681565b60038054611ef290616181565b80601f0160208091040260200160405190810160405280929190818152602001828054611f1e90616181565b8015611f6b5780601f10611f4057610100808354040283529160200191611f6b565b820191906000526020600020905b815481529060010190602001808311611f4e57829003601f168201915b505050505081565b60045481565b611fa57f1d30e19c0a3dccff1e6fc17ca4c1b94a05c7248f6679c42103df6a9640f1e52f60001b61088b565b611fd17f8f755842022f87b07e5323b604ab9e6bb3784a8d19bab58cb751435e9df3181760001b61088b565b611ffd7f1ed6ba9c1f073a5c1bee896b505100922b4af28491602884bb187f53876a59bf60001b61088b565b60008585604051602001612012929190615c10565b6040516020818303038152906040528051906020012090506120567fae6c306e62247c0d1c4994464d4a84d56441a757e3d71d10c29b594d8cd9202a60001b61088b565b6120827f263614f606e3e1374066fb66a7b1e0bfc76b2b9da372903a1d06d17e6d6ce1ad60001b61088b565b600083858360405160200161209993929190615e72565b6040516020818303038152906040528051906020012090506120dd7fa42606bea1394035bab4e8564fdfad92b2105e3bcf9924da9ff6f033206d32fc60001b61088b565b6121097f8349e9d560842c82407a62a9aff5e4f42cb779631a568028b95ea516bc3ebba060001b61088b565b6000601160009054906101000a900473ffffffffffffffffffffffffffffffffffffffff1673ffffffffffffffffffffffffffffffffffffffff166364936b1e896040518263ffffffff1660e01b81526004016121669190615bee565b60206040518083038186803b15801561217e57600080fd5b505afa158015612192573d6000803e3d6000fd5b505050506040513d601f19601f820116820180604052508101906121b69190615566565b73ffffffffffffffffffffffffffffffffffffffff1663159ab14d848885886040518563ffffffff1660e01b81526004016121f49493929190615af9565b602060405180830381600087803b15801561220e57600080fd5b505af1158015612222573d6000803e3d6000fd5b505050506040513d601f19601f82011682018060405250810190612246919061572b565b90506122747fb6a41f4dc948c75b618f7bd6304c2b98c7dc8163497ef57aae1304ebeb3079d460001b61088b565b6122a07fca567cf18071acdafbe1d94b7fb20f384a90f463eeeac1573df0f91d57c57d9860001b61088b565b6122df6040518060400160405280600a81526020017f6d696e74416d6f756e740000000000000000000000000000000000000000000081525082614e54565b61230b7f73f53fd5cf6da273b63f5f0dcdd6c37b37c856b26f91a72b138e83a5833e0a2e60001b61088b565b6123377f96ff8fe24babf7b2b785db85781763314634fd16d22e35569828445d64570b8360001b61088b565b3373ffffffffffffffffffffffffffffffffffffffff167f5387ab2b2012a616dcfbc6c0f6c6f7a6ef5b3fc7c7740476f7b20b65f50d59728260405161237d9190615e2e565b60405180910390a25050505050505050565b60055481565b60006123c37f31a509deb94499dedc18c845a1da22a74fe4846b54425940d6a93cb3d118200660001b61088b565b6123ef7f3a66f13e243f61519a1b0cfbdfbbfe32a7ec0b8e57637f7de3fc7b2c34064ce360001b61088b565b61241b7fc217b4b50e2fb244bb873656335d721ed2fc97e1e354da90aa63d47dd20b207360001b61088b565b600a60008373ffffffffffffffffffffffffffffffffffffffff1673ffffffffffffffffffffffffffffffffffffffff168152602001908152602001600020549050919050565b60006124907fca487471bdd9aa13489eb5f3f32b62ad60b47bb56cb102ede63f4f0b579f73b760001b61088b565b6124bc7f2535d037b1683a14a92447b3be58ec0750b0b2b70bc9ef63f4ebd40ed571a97d60001b61088b565b6124e87f1d02e48e8d2f47776f581ba5b674c503fe65e743c18d90924ac99dae24a2d19a60001b61088b565b60003390506125197f25677934f7a8624c99feace478e3838c880e59096e3b901f7b530ba074cfa6a060001b61088b565b6125457f85b1b6126a5cce53ea175cb0f11e41fa19e9ef2d1d4c438f1c932ac6eed2d37b60001b61088b565b600061271090506125787ff8a4749223ccd8e9131763b16141e6068ddd41b0b78da9ce6b4283f70bf4d6aa60001b61088b565b6125a47f97da511c387193486c20c1f8c76ae3cc2c0cae6d88d113da83697f4593116cbb60001b61088b565b6000601060009054906101000a900473ffffffffffffffffffffffffffffffffffffffff1673ffffffffffffffffffffffffffffffffffffffff1663a430147f8888856040518463ffffffff1660e01b815260040161260593929190615c40565b602060405180830381600087803b15801561261f57600080fd5b505af1158015612633573d6000803e3d6000fd5b505050506040513d601f19601f82011682018060405250810190612657919061572b565b90506126857fd63c3bdf56ff9a0ed983ac64d4a9694f7cb8486971f2feaaecf13a416875695760001b61088b565b6126b17f32ff0076f11ddeaaae839726a7bf9f22d20f6e94cb8dea49dea61227090570ef60001b61088b565b80600c60008573ffffffffffffffffffffffffffffffffffffffff1673ffffffffffffffffffffffffffffffffffffffff168152602001908152602001600020819055506127217f8fed9a9f3f8b541522b3fe9ae95e41483ab8f28725343c6036ff1f3863c840a060001b61088b565b61274d7f40744a5adc7dede95171f7e6262bd372bff36aeacc869697c2251a9cc926dd9a60001b61088b565b8273ffffffffffffffffffffffffffffffffffffffff167fdacbdde355ba930696a362ea6738feb9f8bd52dfb3d81947558fd3217e23e3258683604051612795929190615e49565b60405180910390a26127c97f1264f49a1a4af51bd542265fdd3e9dfc169dd7839195ce56013f71f967811e9360001b61088b565b6127f57fe668275fd30bb602dddfefeb82075f739e4d0fbd6b95e46d4a55559c5518009560001b61088b565b8093505050509392505050565b600c6020528060005260406000206000915090505481565b6128467f818cdb410e4f26c078fdba77940fe30a00d621e0051b80ccd30aad089d34f8b860001b61088b565b6128727f2ae4b6a05b2cb4a71fc8b8c177f6f7dd78c9ce106d3059ffd4f1f0317b1213e260001b61088b565b61289e7f2e374785db23084721a5fe2e0870a9722f9744b85d19158b4abf53d1270de4b460001b61088b565b6128ca7f5eb57810cc4e65df7db68e0d2bb9f027200c44845bc767a35320e27e6b5b1bde60001b61088b565b60008054906101000a900473ffffffffffffffffffffffffffffffffffffffff1673ffffffffffffffffffffffffffffffffffffffff163373ffffffffffffffffffffffffffffffffffffffff1614806129715750600160009054906101000a900473ffffffffffffffffffffffffffffffffffffffff1673ffffffffffffffffffffffffffffffffffffffff163373ffffffffffffffffffffffffffffffffffffffff16145b6129b0576040517f08c379a00000000000000000000000000000000000000000000000000000000081526004016129a790615dce565b60405180910390fd5b6129dc7f72a661c9ab45ade2bae827d243bd06e4ddf3324183be097bbfb9d9881ec6a90760001b61088b565b612a087ffe209fe01cc143db98cc47788beb782a65fe34bbc35c50359f21821166dd64bb60001b61088b565b612a347fc745dce6b4caa7abbb57e16fe5cc6ece34ef7cb67a7c6a322941b2e913039a8c60001b61088b565b612a607f598041f1972e682f66d793944094e7bd1558156146ae8e4e3e88da8ee30bbd7760001b61088b565b612a8c7f7a138529b906ac0b8444a00eec9b0a4fb5b817ad47804fc90a2482b1d48392c960001b61088b565b612ab87fed353c665479901eb496b4f04bd40aa56048fa154a005fa78d89774a48b4b2ac60001b61088b565b6000600d60009054906101000a900473ffffffffffffffffffffffffffffffffffffffff1673ffffffffffffffffffffffffffffffffffffffff166370a08231306040518263ffffffff1660e01b8152600401612b159190615a31565b60206040518083038186803b158015612b2d57600080fd5b505afa158015612b41573d6000803e3d6000fd5b505050506040513d601f19601f82011682018060405250810190612b65919061572b565b11612ba5576040517f08c379a0000000000000000000000000000000000000000000000000000000008152600401612b9c90615dee565b60405180910390fd5b612bd17f7a4bd7d3b5d4a0b88e7a7929e9102493a1e848c1fb0e60987ca4d0ced711935460001b61088b565b612bfd7fca81ba1a74f335042ae9c17057696a3cc8f51bc9d709a0d6cd8826e53292640b60001b61088b565b612c297f62e3df508415902ecf4b19c17e804dce5f329a8c98c2b74ae818f9f9c5e6b24b60001b61088b565b6000600960006101000a81548160ff021916908315150217905550612c707fa388602cccf298af3053c42d01ce8bcd71c151284b2c40438cc9bde2d32a936b60001b61088b565b612c9c7f81a35da6fbac67976f428cfc58221966c6b96694368149ddcf16417a2c2dd50260001b61088b565b7fde17ec5ba6f9b5379a238e2a199366faccaedccf87879284014517333da74e2660405160405180910390a1565b60008054906101000a900473ffffffffffffffffffffffffffffffffffffffff1681565b600260009054906101000a900473ffffffffffffffffffffffffffffffffffffffff1681565b600e60009054906101000a900473ffffffffffffffffffffffffffffffffffffffff1681565b612d667f26cbf179f7efd8b75a45afd485d03269335503c4c7d663a01da7abc1db505b5a60001b61088b565b612d927f0b35bd650e7f0f6af539cfef1d21764edfe4d988a8a85b7d4a2a7b6ad457939c60001b61088b565b612dbe7ff1f66c3fa7ecd0701591c2499bac3d3e0bbd3da7c2837e657659d89cb9c6b15c60001b61088b565b6000339050612def7ff5febd7ec3845aa06a6d9cf1efe47448a8f7cbb99feb84b68986dd3807dcc4b960001b61088b565b612e1b7fa59de6797f69e60dcc30d88a027c2f0c1f474b3242ea84af0c5cf2c328d76b0060001b61088b565b6000600a60008373ffffffffffffffffffffffffffffffffffffffff1673ffffffffffffffffffffffffffffffffffffffff168152602001908152602001600020549050612e8b7f63b70bc7e84a11b91656cf54d5f0ae86a3b3a5c9e56803971e3e363bb422737460001b61088b565b612eb77fe05341f955bcb0cb8b81f870d8a0b8d8c3dc4ce360adfc4713a276f66f2448c560001b61088b565b612ee37fa5b2c5a92ab65f91a2b2b75c37de52338ce3ac7acc2837994cea8b42e9c3491760001b61088b565b60008311612f26576040517f08c379a0000000000000000000000000000000000000000000000000000000008152600401612f1d90615e0e565b60405180910390fd5b612f527f1e45e73f6b9e4264577e35dc8ffc461a56844bf2ac7102bf0f93a47a9af1354060001b61088b565b612f7e7f657cdacd08421927f813c49d0d19085875e04d6c990b19d8d77a0e176e9f150760001b61088b565b612faa7f1165dd2ecb3273e9c0c8aa3106a83fcfea6bbeadc15cb70ef0581b2d572f052b60001b61088b565b612fd67f15e32cb322af197bb209048a33e9d342f4cee745660e28ff573d49a634ab875260001b61088b565b600081118015612fe65750828110155b613025576040517f08c379a000000000000000000000000000000000000000000000000000000000815260040161301c90615d2e565b60405180910390fd5b6130517f49df5a88bf96bfc8553fd325a0078b9eb3cf693032126677a117620c48088d6160001b61088b565b61307d7fb2fb3f9e569f6ba0e40e71632edce63429d381a386a32e5acc7e93ac9f1ed07260001b61088b565b6130a97f76e76c22ff5cfc1de547fdaef1c663c789f54cf0f035d888dedaae997f9a5af260001b61088b565b6130d57ff7ac82c9fe3334f99b376f7ccc15e3bd486f7608e704396d198c5fbee920910660001b61088b565b600960009054906101000a900460ff16613124576040517f08c379a000000000000000000000000000000000000000000000000000000000815260040161311b90615d6e565b60405180910390fd5b6131507fcf6a12e1cd198bf6ca60da02170f68d4b0e814d5658c2a50b77546e46ed27c0e60001b61088b565b61317c7f39159dbf78f3f0ac68f5624755f255b252ba73efcb09bb11e8a46f55c45a211a60001b61088b565b6131a87f15431f587883f96473e5ecba4d2475bd679f8afd7637a255a26cf99290d7049260001b61088b565b82600b60008473ffffffffffffffffffffffffffffffffffffffff1673ffffffffffffffffffffffffffffffffffffffff168152602001908152602001600020819055506132187fc94424670b2acc58f3a0711c9a20649d861090556658dad55c6c6fdc6e66291b60001b61088b565b6132447f0f351ab7469d1eeea658c04b5a24b4d5465fabefb1d6a152c7e194a2da2f8cf260001b61088b565b82600660008282546132569190615f83565b925050819055506132897f6b70f9eb11dd18a30449e9acff011df2739c2e3fc0a55bedad775864df885f4460001b61088b565b6132b57f08e3f956e37aa93868798b87ba511814ff2a4ed6329842984f7f211932f8929560001b61088b565b600960019054906101000a900460ff1680156132e0575060026004546132db9190615fd9565b600654115b15613376576133117fec092a5c98ddf912a2d86739fc961b862712ee89e85f1db7a177a396660299af60001b61088b565b61333d7f0c57ee4de6b3d52636fc9d97739148d781605612ae8a391edbbfea66c1118c5760001b61088b565b6133697f7f89d70b41db3472dc665c7438929780e988416820c8a638b01c538ee4eef2a660001b61088b565b613371614ef0565b6133a3565b6133a27fc15708d2924af7e37f1495dccfc0c4dc10aa06e6e6e0e0d71b88e00eab1a503a60001b61088b565b5b6133cf7fe0f35eabde6523d6038de32fc93d86b1cc186b0054941c8992e759d6d3c2df3860001b61088b565b6133fb7f07ad238c38e62635ae4f7548bba2ae6cd242311b88a9398a54bd7cdbbcb1e98160001b61088b565b8173ffffffffffffffffffffffffffffffffffffffff167fd68fb6899f484313a5048f6f882da08bad2e51f156053cb0888c3a0a0c082590846040516134419190615e2e565b60405180910390a2505050565b600960009054906101000a900460ff1681565b60065481565b60006134957f3fe2f4324a2e760f0766534b9d6e9f29f9cc27ade7d03a5a6f947093b345f1b860001b61088b565b6134c17f7df27044d66cb6219fbf90afd8ae6dd3bcdb0dc9c873ce799c75241424ee6fc060001b61088b565b6134ed7f468cb06af0b85c63d40b46798f28c621023247e9032f88fd3876e9d71d1d23c460001b61088b565b601160009054906101000a900473ffffffffffffffffffffffffffffffffffffffff1673ffffffffffffffffffffffffffffffffffffffff1663efa74f1f836040518263ffffffff1660e01b81526004016135489190615bee565b60206040518083038186803b15801561356057600080fd5b505afa158015613574573d6000803e3d6000fd5b505050506040513d601f19601f820116820180604052508101906135989190615539565b73ffffffffffffffffffffffffffffffffffffffff166370a08231306040518263ffffffff1660e01b81526004016135d09190615a31565b60206040518083038186803b1580156135e857600080fd5b505afa1580156135fc573d6000803e3d6000fd5b505050506040513d601f19601f82011682018060405250810190613620919061572b565b9050919050565b600f60009054906101000a900473ffffffffffffffffffffffffffffffffffffffff1681565b6136797f6812cf59e4b81ddecd8f2b1f7fbfb48b5182a806c827c0dfd05826d7fdad744960001b61088b565b6136a57f6d077b16afa206e4b568904344b706c3bf698bc65745a3ab81ba91b666ba8bb160001b61088b565b6136d17f961b31b0eb150899b4350ba97c40fb4f4d6656a921731af079df31ea55c6db2560001b61088b565b60003390506137027f3100b3e748ce2c25beefad0a12161300b7eb7aa29cafb67305ef383dc277160f60001b61088b565b61372e7f385b5445321ce7fb324cebb72f2c150ebd70146da3cb1ded1086c09b2ccbec0060001b61088b565b61375a7ff55bde5e737caaf341b382e518d464d8c5b1aa65315865fb88f91b2534783fa260001b61088b565b600960009054906101000a900460ff16156137aa576040517f08c379a00000000000000000000000000000000000000000000000000000000081526004016137a190615d8e565b60405180910390fd5b6137d67f214b43e1a3ddb53264f0b0db58e7b94615fb4ae1c9edd4ed2bf1ddf7dfb68efb60001b61088b565b6138027f50901d754c8ff743aeb1bd9a17e9f767ec52d345e6dfd63e5e10a6fce53adcdf60001b61088b565b61382e7fbf5d8c928a34a9c5c5365b2256612c07d374f9064e0b0ee8d2b00ba83ba0055260001b61088b565b61385a7f501eeb26b24ce8a68e277150ad68774a06a38b18e81e167fba877d2d826d99ee60001b61088b565b6000821161389d576040517f08c379a000000000000000000000000000000000000000000000000000000000815260040161389490615e0e565b60405180910390fd5b6138c97fbb448e98ee5bd5bbc8e90971a18790d4ff69782ebb33c21b28f1d20078f3c6b360001b61088b565b6138f57f77bc78ed40585665c813ba7b08aa8cf6df2b82b2a7a9f5e13d9c65084bb6cdf260001b61088b565b6139217f9b51cdc0b1a01e554d06ae11a86eafd3ea29357887f30cef43e79b2ec6f07e5760001b61088b565b61394d7f89fb973c7fcef47842f79c7ef02a300b67e0b44fbefe8a63caec10f6a1d581cd60001b61088b565b6004546005548361395e9190615f83565b111561399f576040517f08c379a000000000000000000000000000000000000000000000000000000000815260040161399690615cee565b60405180910390fd5b6139cb7fac43ba5f87537e62e043ca97e2cee4541c0b1b8732e5d20736ee5d603909667360001b61088b565b6139f77f5be99f9f14ab7072461a997c5d413e55a81c32b63fd0d3cbf35e34bcf6ba2c0b60001b61088b565b613a237f3c53ff17b87feec27333ff84ed363b3f254d41cdbcf73d860090d7dd2a58fe4160001b61088b565b81600a60008373ffffffffffffffffffffffffffffffffffffffff1673ffffffffffffffffffffffffffffffffffffffff1681526020019081526020016000206000828254613a729190615f83565b92505081905550613aa57f3b65e0ed8fb8940554df654388f38b5444dbd30be91cb6b12bfbd1dbfe3fd55c60001b61088b565b613ad17fb8bcbe9c6ad2a8fac47c3fe3876d62e3fa450a2600649582b90710de362f701a60001b61088b565b8160056000828254613ae39190615f83565b92505081905550613b167fba9a374a98aba0dbe7dd86c7fd20661f0c15f66d54169df91b446c3d188788fc60001b61088b565b613b427fb1f191f0583e4bb4d953dc0f37ac771bdec7046a3d9b5f3b6a4ab7b8aac77f7d60001b61088b565b8073ffffffffffffffffffffffffffffffffffffffff167f9c4f7a1cc1751ba83a1ddccc2da94b1fcfc4efaa2c546f277e551b2dd9c0500583604051613b889190615e2e565b60405180910390a2613bbc7f486fb738975ecec9405ba5e2e93bb2b9065807aaa98d7e84313d1a769cd9174b60001b61088b565b613be87f216de3450f5e193a4873452e4fb786f63c5ab96875e7d91b9d72e9976c2dacb660001b61088b565b6004546005541415613c8557613c207f321714ea0ca82c0ae4ced0eea43387cb70df05aed21dc41a5edb1f2cbf2a544f60001b61088b565b613c4c7f13c519873b6a74031534ae786c5ecb3b839197d8653bd4dd3b886189f68585cf60001b61088b565b613c787ffb903ede64abab5c4a4dd814a6b2bea062f38014eea16741cb13d329498c6e2c60001b61088b565b613c80615098565b613cb2565b613cb17f3b38dc18f36c43c1cdc93d9c9afd8198487661d8fb689de9b4f2f0e6a0e2cd9260001b61088b565b5b613cde7fa59a194aee07e9449a5e12e6a9c1309f3a77274b2c41d17202832fa73cdbb9d260001b61088b565b613d0a7f8bff06d6c050958f0341bd5337c72cf3180a48ea8cffb7bd705e4a0ea2a2cdf860001b61088b565b613d367fc1bdf160f736625adbc4369faa91d20b26d5461ce70399b253a4b03105ee685460001b61088b565b600d60009054906101000a900473ffffffffffffffffffffffffffffffffffffffff1673ffffffffffffffffffffffffffffffffffffffff166323b872dd8230856040518463ffffffff1660e01b8152600401613d9593929190615a4c565b602060405180830381600087803b158015613daf57600080fd5b505af1158015613dc3573d6000803e3d6000fd5b505050506040513d601f19601f82011682018060405250810190613de791906154df565b613e26576040517f08c379a0000000000000000000000000000000000000000000000000000000008152600401613e1d90615cce565b60405180910390fd5b613e527f38c1730c33ac2ca7d80e3b8ec186a9f3f9b7dff06c2b8a678401a78413d288f660001b61088b565b5050565b613e827f983ba2bce402edb5e92b90bd7d72b8def43e16f742b9152a29a0555ae14774f760001b61088b565b613eae7fc0ff43dfd4918538ac6640d01df5d5bfb760597e93c293cf9281da95f15e529d60001b61088b565b613eda7f9d2840af77f934b6f40881db99243220eb9b1203441258bb5a07eadf1c6561c860001b61088b565b613f067f970d69fd5eb3bd783025af47566ad16251bec33ad1a6802925dc4f19b13af92460001b61088b565b600160009054906101000a900473ffffffffffffffffffffffffffffffffffffffff1673ffffffffffffffffffffffffffffffffffffffff163373ffffffffffffffffffffffffffffffffffffffff1614613f96576040517f08c379a0000000000000000000000000000000000000000000000000000000008152600401613f8d90615dce565b60405180910390fd5b613fc27f95683d0c9fef982b0eecb1405d0fc9bfe6371cc1ed9c06dd6c7ca33a2fbad19460001b61088b565b613fee7fef1ac27622e100adeb7093e414284239fbf589c6794b9fd720f96a65bf7d467260001b61088b565b61401a7f90d06bcd2ffadcd0c672766d630a5e192a6df47343607633bc683f5c0f131a8f60001b61088b565b6140467f4241bda9706ccd59d2f916698730326bae7836279367c2bfabaf6282d664a0e360001b61088b565b6140727f1ce7ed20e1651871d107033ede1384abc6575db7d46b56876fe8c43dbdf8bd1160001b61088b565b61409e7fd9a21af0d539c936097a5675a96c298c62ae82b94c030338d706a15ddf8e561c60001b61088b565b600960009054906101000a900460ff166140ed576040517f08c379a00000000000000000000000000000000000000000000000000000000081526004016140e490615d6e565b60405180910390fd5b6141197fc663d70129d4d863ec27f11d5bf1ea3c0238beeaab56b10f7a01d0344c7ad9de60001b61088b565b6141457fe2e45372a779b8f08033320b5550d0bac09caf08e95907923382ec79d0ff017f60001b61088b565b6141717ff6dc33cb68fee699ed81458de372a213024e78b15b0a015f46263bd8ce0dcdb260001b61088b565b61419d7f6b5feba8981a5b615a400148643de70390891b55899d721712cf9d6249c6573260001b61088b565b600d60009054906101000a900473ffffffffffffffffffffffffffffffffffffffff1673ffffffffffffffffffffffffffffffffffffffff1663095ea7b3600e60009054906101000a900473ffffffffffffffffffffffffffffffffffffffff166004546040518363ffffffff1660e01b815260040161421e929190615ab5565b602060405180830381600087803b15801561423857600080fd5b505af115801561424c573d6000803e3d6000fd5b505050506040513d601f19601f8201168201806040525081019061427091906154df565b6142af576040517f08c379a00000000000000000000000000000000000000000000000000000000081526004016142a690615d4e565b60405180910390fd5b6142db7fc014e6b3289b7ed79e4ca81e2c6abedd98221128b0e4d5deacdafb51f0d4c5bf60001b61088b565b565b60075481565b601160009054906101000a900473ffffffffffffffffffffffffffffffffffffffff1681565b60085481565b61433b7f818cdb410e4f26c078fdba77940fe30a00d621e0051b80ccd30aad089d34f8b860001b61088b565b6143677f2ae4b6a05b2cb4a71fc8b8c177f6f7dd78c9ce106d3059ffd4f1f0317b1213e260001b61088b565b6143937f2e374785db23084721a5fe2e0870a9722f9744b85d19158b4abf53d1270de4b460001b61088b565b6143bf7f5eb57810cc4e65df7db68e0d2bb9f027200c44845bc767a35320e27e6b5b1bde60001b61088b565b60008054906101000a900473ffffffffffffffffffffffffffffffffffffffff1673ffffffffffffffffffffffffffffffffffffffff163373ffffffffffffffffffffffffffffffffffffffff1614806144665750600160009054906101000a900473ffffffffffffffffffffffffffffffffffffffff1673ffffffffffffffffffffffffffffffffffffffff163373ffffffffffffffffffffffffffffffffffffffff16145b6144a5576040517f08c379a000000000000000000000000000000000000000000000000000000000815260040161449c90615dce565b60405180910390fd5b6144d17f72a661c9ab45ade2bae827d243bd06e4ddf3324183be097bbfb9d9881ec6a90760001b61088b565b6144fd7ffe209fe01cc143db98cc47788beb782a65fe34bbc35c50359f21821166dd64bb60001b61088b565b6145297f37315b138a4eb1f3e6961d3245e9f125c93e7013153d744cb4e744a5607a183660001b61088b565b6145557f6ed68854798f914348bf7c98baff5db65f282eaa9a709a788599507555af477260001b61088b565b6145817f79bf2ddfe07abf5f091c46b1951be01b9468b1cb19cc3ae745bf2f1a25aa5c2260001b61088b565b614589614ef0565b565b6145b77f9c1de37707e398b1ef2c8fd674c6d609a77b714460ef98eed74986a3e0c59a9b60001b61088b565b6145e37f9880b690349d44bd00c30d83a823c189c97351b9747b76f4821f133ce40a621760001b61088b565b61460f7f071f09138def1d09107b15f7cbd047359e4c5b24fe265bef940564ffd045f6dc60001b61088b565b60003390506146407fa4297625721f48f13f4c994dbac3d6214bc4a1a14b2d59dc565beef32dafc67b60001b61088b565b61466c7f25e231d523b598d7d8e9107f060d4480cceea8cef7acba5c23289a768ec080b960001b61088b565b6000600b60008373ffffffffffffffffffffffffffffffffffffffff1673ffffffffffffffffffffffffffffffffffffffff1681526020019081526020016000205490506146dc7f0945e46252f3b1bdd5d6b058f7cc014e184c7d21c76a983634d6269a65f0eb2c60001b61088b565b6147087f80eb402c0fc27561f19d1e7e68c0279eeae29207c8c857184b14ae4a19c79c8460001b61088b565b6147347f87185c95126b0a5b95a24765d79623c7a8a80645fe6ed86630f575973552247160001b61088b565b60008111614777576040517f08c379a000000000000000000000000000000000000000000000000000000000815260040161476e90615d0e565b60405180910390fd5b6147a37f9479095e5c739fdfc501dd11d560a7418784699a4e1fa050ca62b420c9eb8f2560001b61088b565b6147cf7fbc7e949c9fa429aa39b9ce6abdf5c91a9aa383d19ae7aea7d461ef4962f26a6260001b61088b565b6147fb7ff40deae3c36b7474f3900bf336acd672fa06cc5b2faa275a99f60208a8b2415260001b61088b565b806006600082825461480d919061600a565b925050819055506148407ff3864655fb7564ff57fe9c6a439df1af0fece6a0db5471d85f113807bfae220860001b61088b565b600b60008373ffffffffffffffffffffffffffffffffffffffff1673ffffffffffffffffffffffffffffffffffffffff168152602001908152602001600020600090556148af7f28de215e6016601450469219da10f355a14aa091c80520bcd791d2814f94895c60001b61088b565b6148db7f9a5bcbce21b940dba9cfbee6583452cde02592adaf1d35189ff586522fe4b3fb60001b61088b565b8173ffffffffffffffffffffffffffffffffffffffff167f97470f6911e16b5918a53053f8d1a686e0acaf6a4bfc7b79d064aa24b9f05713826040516149219190615e2e565b60405180910390a25050565b6149597f983ba2bce402edb5e92b90bd7d72b8def43e16f742b9152a29a0555ae14774f760001b61088b565b6149857fc0ff43dfd4918538ac6640d01df5d5bfb760597e93c293cf9281da95f15e529d60001b61088b565b6149b17f9d2840af77f934b6f40881db99243220eb9b1203441258bb5a07eadf1c6561c860001b61088b565b6149dd7f970d69fd5eb3bd783025af47566ad16251bec33ad1a6802925dc4f19b13af92460001b61088b565b600160009054906101000a900473ffffffffffffffffffffffffffffffffffffffff1673ffffffffffffffffffffffffffffffffffffffff163373ffffffffffffffffffffffffffffffffffffffff1614614a6d576040517f08c379a0000000000000000000000000000000000000000000000000000000008152600401614a6490615dce565b60405180910390fd5b614a997f95683d0c9fef982b0eecb1405d0fc9bfe6371cc1ed9c06dd6c7ca33a2fbad19460001b61088b565b614ac57fef1ac27622e100adeb7093e414284239fbf589c6794b9fd720f96a65bf7d467260001b61088b565b614af17f6474bc7b6c4c817e394a7770bcd8e9a3c367d41128bd02f30d9481664cc0edf260001b61088b565b614b1d7f35e3552e64d39c55309e0837bb68952eff825a965df10321e8ef06d8fa5a087960001b61088b565b614b497f5d1afb46bd1a2ae6aaa17481bd18b7019f1797881481135b1c94ccdcafb8339f60001b61088b565b614b757f298439278aab97593ed1479b65d64e72155e1d6df91562f07fe08092674c1a1a60001b61088b565b600960009054906101000a900460ff16614bc4576040517f08c379a0000000000000000000000000000000000000000000000000000000008152600401614bbb90615d6e565b60405180910390fd5b614bf07fefd324418f85207d4866beeb69e0fb6cccc15952ee8f4a6f7e88a2edd1345efc60001b61088b565b614c1c7fdb767e3aa2d03e1795b42198a2f94b68dfbc40904ef33967d1c7dcbd59ba0e6160001b61088b565b614c487fa60ba8065f646238e091b8e848671c7dd02b9e1940d25c74f3399ca8366eb6c860001b61088b565b600e60009054906101000a900473ffffffffffffffffffffffffffffffffffffffff1673ffffffffffffffffffffffffffffffffffffffff166324b8fbf68484846040518463ffffffff1660e01b8152600401614ca793929190615a83565b600060405180830381600087803b158015614cc157600080fd5b505af1158015614cd5573d6000803e3d6000fd5b50505050614d057f8d07e304d85e68966ea24bdf0fc6a7f038d59c72d847080d68a900c263e0a5d460001b61088b565b614d317f56450edd407148d8fa256d2068078a85def32b5856a9371ce8bb7686d799e22e60001b61088b565b6001600960016101000a81548160ff021916908315150217905550614d787f4a0abfe447e7e73bebebee8a0682f9e642fd53b3233707a6511f4541915448b360001b61088b565b614da47f81f757f4fb3bd969b74a83f57ca49e92c4cac6a4f3a8301c07ece5bcfa664ae560001b61088b565b82600260006101000a81548173ffffffffffffffffffffffffffffffffffffffff021916908373ffffffffffffffffffffffffffffffffffffffff160217905550614e117fd9e6438edd8d7ec14bbf4195a3d3b39e874ed0b07be368c470dc37504bc40db660001b61088b565b614e3d7ffa57c2a9e2e4cd25705c563e3ec471be7ee183591824200753623f34f81f46c460001b61088b565b818160039190614e4e9291906151e6565b50505050565b614eec8282604051602401614e6a929190615c7e565b6040516020818303038152906040527f9710a9d0000000000000000000000000000000000000000000000000000000007bffffffffffffffffffffffffffffffffffffffffffffffffffffffff19166020820180517bffffffffffffffffffffffffffffffffffffffffffffffffffffffff83818316178352505050506151bd565b5050565b614f1c7fc6f0eafc16465fcff2bfcf5db8fed53bc9ab9d44b249407ebddca00225f75d8960001b61088b565b614f487f330533b22d1790e609a53398a705433950719ec56bed3778f077aaa3ca0c302660001b61088b565b614f747f5af90a19354250cb53a8c405d0803ec376193cbfcdf5858484dac343300b8e1a60001b61088b565b600e60009054906101000a900473ffffffffffffffffffffffffffffffffffffffff1673ffffffffffffffffffffffffffffffffffffffff166384ac33ec600260009054906101000a900473ffffffffffffffffffffffffffffffffffffffff166040518263ffffffff1660e01b8152600401614ff19190615a31565b600060405180830381600087803b15801561500b57600080fd5b505af115801561501f573d6000803e3d6000fd5b5050505061504f7fcaf230e320175de72e0c1dc3a48749cacdcf93e9f23fce2f32af0ab65a0509cf60001b61088b565b61507b7f6103720bb3d029f67142afa715f25ed641d66813a3c67b3f1a66238e4f5ea82560001b61088b565b6000600960016101000a81548160ff021916908315150217905550565b6150c47f83ea7233f89237db08578bb94cb062f0c8ec22c9edaade0226e2eb81487d9e5060001b61088b565b6150f07fe1dd018c6aee1cc9338e1dfa90d384822028d0488f4a450b9e38a0d19698239760001b61088b565b61511c7fc147cc81800e10a4c70cc63471c0b57923147deb30705b335733b00a7eb6cd9a60001b61088b565b6001600960006101000a81548160ff0219169083151502179055506151637f64007a2bab706e6aeedbb6cf3d4c9a346f4c38c22f8a31b10262e044d5e39fc860001b61088b565b61518f7f50f10bc90a015108201c5258518b8da2d5a55d32f4468a367423669e81727c1f60001b61088b565b7f2e136745550967f28b779ce8c395ca060a2f844edfb5b06631fe677f66f9e30560405160405180910390a1565b60008151905060006a636f6e736f6c652e6c6f679050602083016000808483855afa5050505050565b8280546151f290616181565b90600052602060002090601f016020900481019282615214576000855561525b565b82601f1061522d57803560ff191683800117855561525b565b8280016001018555821561525b579182015b8281111561525a57823582559160200191906001019061523f565b5b509050615268919061526c565b5090565b5b8082111561528557600081600090555060010161526d565b5090565b600061529c61529784615ee9565b615ec4565b9050828152602081018484840111156152b8576152b76162af565b5b6152c384828561613f565b509392505050565b60006152de6152d984615f1a565b615ec4565b9050828152602081018484840111156152fa576152f96162af565b5b61530584828561613f565b509392505050565b60008135905061531c816164bb565b92915050565b600081519050615331816164d2565b92915050565b600081359050615346816164e9565b92915050565b60008083601f840112615362576153616162a5565b5b8235905067ffffffffffffffff81111561537f5761537e6162a0565b5b60208301915083600182028301111561539b5761539a6162aa565b5b9250929050565b600082601f8301126153b7576153b66162a5565b5b81356153c7848260208601615289565b91505092915050565b6000815190506153df81616500565b92915050565b6000815190506153f481616517565b92915050565b600082601f83011261540f5761540e6162a5565b5b813561541f8482602086016152cb565b91505092915050565b6000813590506154378161652e565b92915050565b60008151905061544c8161652e565b92915050565b600060208284031215615468576154676162b9565b5b60006154768482850161530d565b91505092915050565b600080600060408486031215615498576154976162b9565b5b60006154a68682870161530d565b935050602084013567ffffffffffffffff8111156154c7576154c66162b4565b5b6154d38682870161534c565b92509250509250925092565b6000602082840312156154f5576154f46162b9565b5b600061550384828501615322565b91505092915050565b600060208284031215615522576155216162b9565b5b600061553084828501615337565b91505092915050565b60006020828403121561554f5761554e6162b9565b5b600061555d848285016153d0565b91505092915050565b60006020828403121561557c5761557b6162b9565b5b600061558a848285016153e5565b91505092915050565b6000602082840312156155a9576155a86162b9565b5b600082013567ffffffffffffffff8111156155c7576155c66162b4565b5b6155d3848285016153fa565b91505092915050565b6000806000606084860312156155f5576155f46162b9565b5b600084013567ffffffffffffffff811115615613576156126162b4565b5b61561f868287016153fa565b93505060206156308682870161530d565b925050604061564186828701615428565b9150509250925092565b600080600080600060a08688031215615667576156666162b9565b5b600086013567ffffffffffffffff811115615685576156846162b4565b5b615691888289016153fa565b95505060206156a28882890161530d565b94505060406156b388828901615428565b93505060606156c488828901615428565b925050608086013567ffffffffffffffff8111156156e5576156e46162b4565b5b6156f1888289016153a2565b9150509295509295909350565b600060208284031215615714576157136162b9565b5b600061572284828501615428565b91505092915050565b600060208284031215615741576157406162b9565b5b600061574f8482850161543d565b91505092915050565b6157618161603e565b82525050565b61577081616050565b82525050565b61577f8161605c565b82525050565b60006157918385615f61565b935061579e83858461613f565b6157a7836162be565b840190509392505050565b60006157bd82615f4b565b6157c78185615f61565b93506157d781856020860161614e565b6157e0816162be565b840191505092915050565b6157f4816160c1565b82525050565b615803816160d3565b82525050565b615812816160e5565b82525050565b615821816160f7565b82525050565b61583081616109565b82525050565b600061584182615f56565b61584b8185615f72565b935061585b81856020860161614e565b615864816162be565b840191505092915050565b600061587c601883615f72565b9150615887826162cf565b602082019050919050565b600061589f601783615f72565b91506158aa826162f8565b602082019050919050565b60006158c2601e83615f72565b91506158cd82616321565b602082019050919050565b60006158e5601783615f72565b91506158f08261634a565b602082019050919050565b6000615908601b83615f72565b915061591382616373565b602082019050919050565b600061592b601d83615f72565b91506159368261639c565b602082019050919050565b600061594e601b83615f72565b9150615959826163c5565b602082019050919050565b6000615971601783615f72565b915061597c826163ee565b602082019050919050565b6000615994601683615f72565b915061599f82616417565b602082019050919050565b60006159b7601583615f72565b91506159c282616440565b602082019050919050565b60006159da601d83615f72565b91506159e582616469565b602082019050919050565b60006159fd601783615f72565b9150615a0882616492565b602082019050919050565b615a1c816160aa565b82525050565b615a2b816160b4565b82525050565b6000602082019050615a466000830184615758565b92915050565b6000606082019050615a616000830186615758565b615a6e6020830185615758565b615a7b6040830184615a13565b949350505050565b6000604082019050615a986000830186615758565b8181036020830152615aab818486615785565b9050949350505050565b6000604082019050615aca6000830185615758565b615ad76020830184615a13565b9392505050565b6000602082019050615af36000830184615767565b92915050565b6000608082019050615b0e6000830187615776565b615b1b6020830186615a13565b615b286040830185615776565b8181036060830152615b3a81846157b2565b905095945050505050565b60006020820190508181036000830152615b5f81846157b2565b905092915050565b6000602082019050615b7c60008301846157eb565b92915050565b6000602082019050615b9760008301846157fa565b92915050565b6000602082019050615bb26000830184615809565b92915050565b6000602082019050615bcd6000830184615818565b92915050565b6000602082019050615be86000830184615827565b92915050565b60006020820190508181036000830152615c088184615836565b905092915050565b60006040820190508181036000830152615c2a8185615836565b9050615c396020830184615758565b9392505050565b60006060820190508181036000830152615c5a8186615836565b9050615c696020830185615758565b615c766040830184615a13565b949350505050565b60006040820190508181036000830152615c988185615836565b9050615ca76020830184615a13565b9392505050565b60006020820190508181036000830152615cc78161586f565b9050919050565b60006020820190508181036000830152615ce781615892565b9050919050565b60006020820190508181036000830152615d07816158b5565b9050919050565b60006020820190508181036000830152615d27816158d8565b9050919050565b60006020820190508181036000830152615d47816158fb565b9050919050565b60006020820190508181036000830152615d678161591e565b9050919050565b60006020820190508181036000830152615d8781615941565b9050919050565b60006020820190508181036000830152615da781615964565b9050919050565b60006020820190508181036000830152615dc781615987565b9050919050565b60006020820190508181036000830152615de7816159aa565b9050919050565b60006020820190508181036000830152615e07816159cd565b9050919050565b60006020820190508181036000830152615e27816159f0565b9050919050565b6000602082019050615e436000830184615a13565b92915050565b6000604082019050615e5e6000830185615a13565b615e6b6020830184615a13565b9392505050565b6000606082019050615e876000830186615a13565b615e946020830185615a13565b615ea16040830184615776565b949350505050565b6000602082019050615ebe6000830184615a22565b92915050565b6000615ece615edf565b9050615eda82826161b3565b919050565b6000604051905090565b600067ffffffffffffffff821115615f0457615f03616271565b5b615f0d826162be565b9050602081019050919050565b600067ffffffffffffffff821115615f3557615f34616271565b5b615f3e826162be565b9050602081019050919050565b600081519050919050565b600081519050919050565b600082825260208201905092915050565b600082825260208201905092915050565b6000615f8e826160aa565b9150615f99836160aa565b9250827fffffffffffffffffffffffffffffffffffffffffffffffffffffffffffffffff03821115615fce57615fcd6161e4565b5b828201905092915050565b6000615fe4826160aa565b9150615fef836160aa565b925082615fff57615ffe616213565b5b828204905092915050565b6000616015826160aa565b9150616020836160aa565b925082821015616033576160326161e4565b5b828203905092915050565b60006160498261608a565b9050919050565b60008115159050919050565b6000819050919050565b60006160718261603e565b9050919050565b60006160838261603e565b9050919050565b600073ffffffffffffffffffffffffffffffffffffffff82169050919050565b6000819050919050565b600060ff82169050919050565b60006160cc8261611b565b9050919050565b60006160de8261611b565b9050919050565b60006160f08261611b565b9050919050565b60006161028261611b565b9050919050565b60006161148261611b565b9050919050565b60006161268261612d565b9050919050565b60006161388261608a565b9050919050565b82818337600083830152505050565b60005b8381101561616c578082015181840152602081019050616151565b8381111561617b576000848401525b50505050565b6000600282049050600182168061619957607f821691505b602082108114156161ad576161ac616242565b5b50919050565b6161bc826162be565b810181811067ffffffffffffffff821117156161db576161da616271565b5b80604052505050565b7f4e487b7100000000000000000000000000000000000000000000000000000000600052601160045260246000fd5b7f4e487b7100000000000000000000000000000000000000000000000000000000600052601260045260246000fd5b7f4e487b7100000000000000000000000000000000000000000000000000000000600052602260045260246000fd5b7f4e487b7100000000000000000000000000000000000000000000000000000000600052604160045260246000fd5b600080fd5b600080fd5b600080fd5b600080fd5b600080fd5b600080fd5b6000601f19601f8301169050919050565b7f52656e506f6f6c3a205769746864726177206661696c65640000000000000000600082015250565b7f52656e506f6f6c3a204465706f736974206661696c6564000000000000000000600082015250565b7f52656e506f6f6c3a20416d6f756e742073757270617373657320626f6e640000600082015250565b7f52656e506f6f6c3a20696e76616c696420616d6f756e74000000000000000000600082015250565b7f52656e506f6f6c3a20496e73756666696369656e742066756e64730000000000600082015250565b7f52656e506f6f6c3a20426f6e64207472616e73666572206661696c6564000000600082015250565b7f52656e506f6f6c3a20506f6f6c206973206e6f74206c6f636b65640000000000600082015250565b7f52656e506f6f6c3a20506f6f6c206973206c6f636b6564000000000000000000600082015250565b7f52656e506f6f6c3a20526566756e64206661696c656400000000000000000000600082015250565b7f52656e506f6f6c3a20556e617574686f72697a65640000000000000000000000600082015250565b7f52656e506f6f6c3a20506f6f6c2062616c616e6365206973207a65726f000000600082015250565b7f52656e506f6f6c3a20496e76616c696420616d6f756e74000000000000000000600082015250565b6164c48161603e565b81146164cf57600080fd5b50565b6164db81616050565b81146164e657600080fd5b50565b6164f28161605c565b81146164fd57600080fd5b50565b61650981616066565b811461651457600080fd5b50565b61652081616078565b811461652b57600080fd5b50565b616537816160aa565b811461654257600080fd5b5056fea2646970667358221220d1b413200c15d31cb3c760bb1c9647c7ae90a9b5213c395f6cb6b0cfc444f64664736f6c63430008070033",
  "linkReferences": {},
  "deployedLinkReferences": {}
}