{
  "_format": "hh-sol-artifact-1",
  "contractName": "RenPool",
  "sourceName": "contracts/RenPool.sol",
  "abi": [
    {
      "inputs": [
        {
          "internalType": "address",
          "name": "_renTokenAddr",
          "type": "address"
        },
        {
          "internalType": "address",
          "name": "_darknodeRegistryAddr",
          "type": "address"
        },
        {
          "internalType": "address",
          "name": "_darknodePaymentAddr",
          "type": "address"
        },
        {
          "internalType": "address",
          "name": "_claimRewardsAddr",
          "type": "address"
        },
        {
          "internalType": "address",
          "name": "_gatewayRegistryAddr",
          "type": "address"
        },
        {
          "internalType": "address",
          "name": "_owner",
          "type": "address"
        },
        {
          "internalType": "address",
          "name": "_nodeOperator",
          "type": "address"
        },
        {
          "internalType": "uint256",
          "name": "_bond",
          "type": "uint256"
        }
      ],
      "stateMutability": "nonpayable",
      "type": "constructor"
    },
    {
      "anonymous": false,
      "inputs": [
        {
          "indexed": true,
          "internalType": "address",
          "name": "_from",
          "type": "address"
        },
        {
          "indexed": false,
          "internalType": "uint256",
          "name": "_amount",
          "type": "uint256"
        }
      ],
      "name": "EthDeposited",
      "type": "event"
    },
    {
      "anonymous": false,
      "inputs": [
        {
          "indexed": true,
          "internalType": "address",
          "name": "_from",
          "type": "address"
        },
        {
          "indexed": false,
          "internalType": "uint256",
          "name": "_amount",
          "type": "uint256"
        }
      ],
      "name": "EthWithdrawn",
      "type": "event"
    },
    {
      "anonymous": false,
      "inputs": [],
      "name": "PoolLocked",
      "type": "event"
    },
    {
      "anonymous": false,
      "inputs": [],
      "name": "PoolUnlocked",
      "type": "event"
    },
    {
      "anonymous": false,
      "inputs": [
        {
          "indexed": true,
          "internalType": "address",
          "name": "_from",
          "type": "address"
        },
        {
          "indexed": false,
          "internalType": "uint256",
          "name": "_amount",
          "type": "uint256"
        }
      ],
      "name": "RenDeposited",
      "type": "event"
    },
    {
      "anonymous": false,
      "inputs": [
        {
          "indexed": true,
          "internalType": "address",
          "name": "_from",
          "type": "address"
        },
        {
          "indexed": false,
          "internalType": "uint256",
          "name": "_amount",
          "type": "uint256"
        }
      ],
      "name": "RenWithdrawalRequestCancelled",
      "type": "event"
    },
    {
      "anonymous": false,
      "inputs": [
        {
          "indexed": true,
          "internalType": "address",
          "name": "_from",
          "type": "address"
        },
        {
          "indexed": false,
          "internalType": "uint256",
          "name": "_amount",
          "type": "uint256"
        }
      ],
      "name": "RenWithdrawalRequestFulfilled",
      "type": "event"
    },
    {
      "anonymous": false,
      "inputs": [
        {
          "indexed": true,
          "internalType": "address",
          "name": "_from",
          "type": "address"
        },
        {
          "indexed": false,
          "internalType": "uint256",
          "name": "_amount",
          "type": "uint256"
        }
      ],
      "name": "RenWithdrawalRequested",
      "type": "event"
    },
    {
      "anonymous": false,
      "inputs": [
        {
          "indexed": true,
          "internalType": "address",
          "name": "_from",
          "type": "address"
        },
        {
          "indexed": false,
          "internalType": "uint256",
          "name": "_amount",
          "type": "uint256"
        }
      ],
      "name": "RenWithdrawn",
      "type": "event"
    },
    {
      "anonymous": false,
      "inputs": [
        {
          "indexed": true,
          "internalType": "address",
          "name": "_from",
          "type": "address"
        },
        {
          "indexed": false,
          "internalType": "uint256",
          "name": "_amount",
          "type": "uint256"
        },
        {
          "indexed": false,
          "internalType": "uint256",
          "name": "_nonce",
          "type": "uint256"
        }
      ],
      "name": "RewardsClaimed",
      "type": "event"
    },
    {
      "anonymous": false,
      "inputs": [
        {
          "indexed": true,
          "internalType": "address",
          "name": "_from",
          "type": "address"
        },
        {
          "indexed": false,
          "internalType": "uint256",
          "name": "_mintedAmount",
          "type": "uint256"
        }
      ],
      "name": "RewardsMinted",
      "type": "event"
    },
    {
      "inputs": [],
      "name": "DECIMALS",
      "outputs": [
        {
          "internalType": "uint8",
          "name": "",
          "type": "uint8"
        }
      ],
      "stateMutability": "view",
      "type": "function"
    },
    {
      "inputs": [],
      "name": "approveBondTransfer",
      "outputs": [],
      "stateMutability": "nonpayable",
      "type": "function"
    },
    {
      "inputs": [
        {
          "internalType": "address",
          "name": "_target",
          "type": "address"
        }
      ],
      "name": "balanceOf",
      "outputs": [
        {
          "internalType": "uint256",
          "name": "",
          "type": "uint256"
        }
      ],
      "stateMutability": "view",
      "type": "function"
    },
    {
      "inputs": [
        {
          "internalType": "address",
          "name": "",
          "type": "address"
        }
      ],
      "name": "balances",
      "outputs": [
        {
          "internalType": "uint256",
          "name": "",
          "type": "uint256"
        }
      ],
      "stateMutability": "view",
      "type": "function"
    },
    {
      "inputs": [],
      "name": "bond",
      "outputs": [
        {
          "internalType": "uint256",
          "name": "",
          "type": "uint256"
        }
      ],
      "stateMutability": "view",
      "type": "function"
    },
    {
      "inputs": [],
      "name": "cancelWithdrawRequest",
      "outputs": [],
      "stateMutability": "nonpayable",
      "type": "function"
    },
    {
      "inputs": [],
      "name": "claimRewards",
      "outputs": [
        {
          "internalType": "contract IClaimRewardsV1",
          "name": "",
          "type": "address"
        }
      ],
      "stateMutability": "view",
      "type": "function"
    },
    {
      "inputs": [
        {
          "internalType": "string",
          "name": "_assetSymbol",
          "type": "string"
        },
        {
          "internalType": "address",
          "name": "_recipientAddress",
          "type": "address"
        },
        {
          "internalType": "uint256",
          "name": "_amount",
          "type": "uint256"
        }
      ],
      "name": "claimRewardsToChain",
      "outputs": [
        {
          "internalType": "uint256",
          "name": "",
          "type": "uint256"
        }
      ],
      "stateMutability": "nonpayable",
      "type": "function"
    },
    {
      "inputs": [],
      "name": "darknodeID",
      "outputs": [
        {
          "internalType": "address",
          "name": "",
          "type": "address"
        }
      ],
      "stateMutability": "view",
      "type": "function"
    },
    {
      "inputs": [],
      "name": "darknodePayment",
      "outputs": [
        {
          "internalType": "contract IDarknodePayment",
          "name": "",
          "type": "address"
        }
      ],
      "stateMutability": "view",
      "type": "function"
    },
    {
      "inputs": [],
      "name": "darknodeRegistry",
      "outputs": [
        {
          "internalType": "contract IDarknodeRegistry",
          "name": "",
          "type": "address"
        }
      ],
      "stateMutability": "view",
      "type": "function"
    },
    {
      "inputs": [
        {
          "internalType": "uint256",
          "name": "_amount",
          "type": "uint256"
        }
      ],
      "name": "deposit",
      "outputs": [],
      "stateMutability": "nonpayable",
      "type": "function"
    },
    {
      "inputs": [],
      "name": "deregisterDarknode",
      "outputs": [],
      "stateMutability": "nonpayable",
      "type": "function"
    },
    {
      "inputs": [
        {
          "internalType": "address",
          "name": "_target",
          "type": "address"
        }
      ],
      "name": "fulfillWithdrawRequest",
      "outputs": [],
      "stateMutability": "nonpayable",
      "type": "function"
    },
    {
      "inputs": [],
      "name": "gatewayRegistry",
      "outputs": [
        {
          "internalType": "contract IGatewayRegistry",
          "name": "",
          "type": "address"
        }
      ],
      "stateMutability": "view",
      "type": "function"
    },
    {
      "inputs": [
        {
          "internalType": "string",
          "name": "_assetSymbol",
          "type": "string"
        }
      ],
      "name": "getDarknodeBalance",
      "outputs": [
        {
          "internalType": "uint256",
          "name": "",
          "type": "uint256"
        }
      ],
      "stateMutability": "view",
      "type": "function"
    },
    {
      "inputs": [],
      "name": "isLocked",
      "outputs": [
        {
          "internalType": "bool",
          "name": "",
          "type": "bool"
        }
      ],
      "stateMutability": "view",
      "type": "function"
    },
    {
      "inputs": [],
      "name": "isRegistered",
      "outputs": [
        {
          "internalType": "bool",
          "name": "",
          "type": "bool"
        }
      ],
      "stateMutability": "view",
      "type": "function"
    },
    {
      "inputs": [
        {
          "internalType": "string",
          "name": "_assetSymbol",
          "type": "string"
        },
        {
          "internalType": "address",
          "name": "_recipientAddress",
          "type": "address"
        },
        {
          "internalType": "uint256",
          "name": "_amount",
          "type": "uint256"
        },
        {
          "internalType": "uint256",
          "name": "_nonce",
          "type": "uint256"
        },
        {
          "internalType": "bytes",
          "name": "_sig",
          "type": "bytes"
        }
      ],
      "name": "mintRewards",
      "outputs": [],
      "stateMutability": "nonpayable",
      "type": "function"
    },
    {
      "inputs": [],
      "name": "nodeOperator",
      "outputs": [
        {
          "internalType": "address",
          "name": "",
          "type": "address"
        }
      ],
      "stateMutability": "view",
      "type": "function"
    },
    {
      "inputs": [],
      "name": "nodeOperatorFee",
      "outputs": [
        {
          "internalType": "uint256",
          "name": "",
          "type": "uint256"
        }
      ],
      "stateMutability": "view",
      "type": "function"
    },
    {
      "inputs": [
        {
          "internalType": "address",
          "name": "",
          "type": "address"
        }
      ],
      "name": "nonces",
      "outputs": [
        {
          "internalType": "uint256",
          "name": "",
          "type": "uint256"
        }
      ],
      "stateMutability": "view",
      "type": "function"
    },
    {
      "inputs": [],
      "name": "owner",
      "outputs": [
        {
          "internalType": "address",
          "name": "",
          "type": "address"
        }
      ],
      "stateMutability": "view",
      "type": "function"
    },
    {
      "inputs": [],
      "name": "ownerFee",
      "outputs": [
        {
          "internalType": "uint256",
          "name": "",
          "type": "uint256"
        }
      ],
      "stateMutability": "view",
      "type": "function"
    },
    {
      "inputs": [],
      "name": "publicKey",
      "outputs": [
        {
          "internalType": "bytes",
          "name": "",
          "type": "bytes"
        }
      ],
      "stateMutability": "view",
      "type": "function"
    },
    {
      "inputs": [],
      "name": "refundBond",
      "outputs": [],
      "stateMutability": "nonpayable",
      "type": "function"
    },
    {
      "inputs": [
        {
          "internalType": "address",
          "name": "_darknodeID",
          "type": "address"
        },
        {
          "internalType": "bytes",
          "name": "_publicKey",
          "type": "bytes"
        }
      ],
      "name": "registerDarknode",
      "outputs": [],
      "stateMutability": "nonpayable",
      "type": "function"
    },
    {
      "inputs": [],
      "name": "renToken",
      "outputs": [
        {
          "internalType": "contract IERC20",
          "name": "",
          "type": "address"
        }
      ],
      "stateMutability": "view",
      "type": "function"
    },
    {
      "inputs": [
        {
          "internalType": "uint256",
          "name": "_amount",
          "type": "uint256"
        }
      ],
      "name": "requestWithdraw",
      "outputs": [],
      "stateMutability": "nonpayable",
      "type": "function"
    },
    {
      "inputs": [],
      "name": "totalPooled",
      "outputs": [
        {
          "internalType": "uint256",
          "name": "",
          "type": "uint256"
        }
      ],
      "stateMutability": "view",
      "type": "function"
    },
    {
      "inputs": [],
      "name": "totalWithdrawalRequested",
      "outputs": [
        {
          "internalType": "uint256",
          "name": "",
          "type": "uint256"
        }
      ],
      "stateMutability": "view",
      "type": "function"
    },
    {
      "inputs": [],
      "name": "unlockPool",
      "outputs": [],
      "stateMutability": "nonpayable",
      "type": "function"
    },
    {
      "inputs": [
        {
          "internalType": "uint256",
          "name": "_amount",
          "type": "uint256"
        }
      ],
      "name": "withdraw",
      "outputs": [],
      "stateMutability": "nonpayable",
      "type": "function"
    },
    {
      "inputs": [],
      "name": "withdrawGas",
      "outputs": [],
      "stateMutability": "nonpayable",
      "type": "function"
    },
    {
      "inputs": [
        {
          "internalType": "address",
          "name": "",
          "type": "address"
        }
      ],
      "name": "withdrawRequests",
      "outputs": [
        {
          "internalType": "uint256",
          "name": "",
          "type": "uint256"
        }
      ],
      "stateMutability": "view",
      "type": "function"
    },
    {
      "stateMutability": "payable",
      "type": "receive"
    }
  ],
  "bytecode": "0x60806040523480156200001157600080fd5b5060405162003f3638038062003f36833981810160405281019062000037919062000296565b826000806101000a81548173ffffffffffffffffffffffffffffffffffffffff021916908373ffffffffffffffffffffffffffffffffffffffff16021790555081600160006101000a81548173ffffffffffffffffffffffffffffffffffffffff021916908373ffffffffffffffffffffffffffffffffffffffff16021790555087600d60006101000a81548173ffffffffffffffffffffffffffffffffffffffff021916908373ffffffffffffffffffffffffffffffffffffffff16021790555086600e60006101000a81548173ffffffffffffffffffffffffffffffffffffffff021916908373ffffffffffffffffffffffffffffffffffffffff16021790555085600f60006101000a81548173ffffffffffffffffffffffffffffffffffffffff021916908373ffffffffffffffffffffffffffffffffffffffff16021790555084601060006101000a81548173ffffffffffffffffffffffffffffffffffffffff021916908373ffffffffffffffffffffffffffffffffffffffff16021790555083601160006101000a81548173ffffffffffffffffffffffffffffffffffffffff021916908373ffffffffffffffffffffffffffffffffffffffff160217905550806004819055506000600960006101000a81548160ff0219169083151502179055506000600960016101000a81548160ff02191690831515021790555060006005819055506000600681905550600560078190555060056008819055505050505050505050620003d6565b6000815190506200027981620003a2565b92915050565b6000815190506200029081620003bc565b92915050565b600080600080600080600080610100898b031215620002ba57620002b96200039d565b5b6000620002ca8b828c0162000268565b9850506020620002dd8b828c0162000268565b9750506040620002f08b828c0162000268565b9650506060620003038b828c0162000268565b9550506080620003168b828c0162000268565b94505060a0620003298b828c0162000268565b93505060c06200033c8b828c0162000268565b92505060e06200034f8b828c016200027f565b9150509295985092959890939650565b60006200036c8262000373565b9050919050565b600073ffffffffffffffffffffffffffffffffffffffff82169050919050565b6000819050919050565b600080fd5b620003ad816200035f565b8114620003b957600080fd5b50565b620003c78162000393565b8114620003d357600080fd5b50565b613b5080620003e66000396000f3fe6080604052600436106102085760003560e01c80637ecebe0011610118578063b6b34c67116100a0578063d693452e1161006f578063d693452e1461077e578063e19e7168146107a9578063e39f6101146107c0578063e438a77d146107eb578063e7585aea146108025761025d565b8063b6b34c67146106e8578063b6b55f2514610713578063b7eb85c41461073c578063d5b2a01a146107535761025d565b80639e45e0d0116100e75780639e45e0d014610601578063a4e2d6341461062c578063aaaa0c4b14610657578063ac34798714610682578063b46ff3c3146106bf5761025d565b80637ecebe001461055757806389026538146105945780638da5cb5b146105ab578063901a6498146105d65761025d565b8063372500ab1161019b5780636664e42e1161016a5780636664e42e146104605780636ec21cc81461048957806370a08231146104b457806371bbef36146104f1578063745400c91461052e5761025d565b8063372500ab146103a257806352df49ec146103cd57806363ffab311461040a57806364c9ec6f146104355761025d565b806327e235e3116101d757806327e235e3146102e65780632e0f2625146103235780632e1a7d4d1461034e57806334246f9b146103775761025d565b8063023c5b08146102625780631261795d1461028d57806313a0ae2b146102a457806322366844146102bb5761025d565b3661025d573373ffffffffffffffffffffffffffffffffffffffff167f66ff7c8f71ccc7c36152a41920d0d3b46ef3034359f76aa1498ed4478c204b5c3460405161025391906133a5565b60405180910390a2005b600080fd5b34801561026e57600080fd5b5061027761082b565b6040516102849190612f88565b60405180910390f35b34801561029957600080fd5b506102a2610851565b005b3480156102b057600080fd5b506102b96109c2565b005b3480156102c757600080fd5b506102d0610a73565b6040516102dd9190613035565b60405180910390f35b3480156102f257600080fd5b5061030d600480360381019061030891906129b3565b610a86565b60405161031a91906133a5565b60405180910390f35b34801561032f57600080fd5b50610338610a9e565b6040516103459190613420565b60405180910390f35b34801561035a57600080fd5b5061037560048036038101906103709190612c32565b610aa3565b005b34801561038357600080fd5b5061038c610d7e565b604051610399919061310f565b60405180910390f35b3480156103ae57600080fd5b506103b7610da4565b6040516103c491906130be565b60405180910390f35b3480156103d957600080fd5b506103f460048036038101906103ef91906129b3565b610dca565b60405161040191906133a5565b60405180910390f35b34801561041657600080fd5b5061041f610de2565b60405161042c919061309c565b60405180910390f35b34801561044157600080fd5b5061044a610e70565b60405161045791906133a5565b60405180910390f35b34801561046c57600080fd5b5061048760048036038101906104829190612b7f565b610e76565b005b34801561049557600080fd5b5061049e6110a8565b6040516104ab91906133a5565b60405180910390f35b3480156104c057600080fd5b506104db60048036038101906104d691906129b3565b6110ae565b6040516104e891906133a5565b60405180910390f35b3480156104fd57600080fd5b5061051860048036038101906105139190612b10565b6110f7565b60405161052591906133a5565b60405180910390f35b34801561053a57600080fd5b5061055560048036038101906105509190612c32565b61125a565b005b34801561056357600080fd5b5061057e600480360381019061057991906129b3565b61146d565b60405161058b91906133a5565b60405180910390f35b3480156105a057600080fd5b506105a9611485565b005b3480156105b757600080fd5b506105c06116a1565b6040516105cd9190612f88565b60405180910390f35b3480156105e257600080fd5b506105eb6116c5565b6040516105f89190612f88565b60405180910390f35b34801561060d57600080fd5b506106166116eb565b60405161062391906130f4565b60405180910390f35b34801561063857600080fd5b50610641611711565b60405161064e9190613035565b60405180910390f35b34801561066357600080fd5b5061066c611724565b60405161067991906133a5565b60405180910390f35b34801561068e57600080fd5b506106a960048036038101906106a49190612ac7565b61172a565b6040516106b691906133a5565b60405180910390f35b3480156106cb57600080fd5b506106e660048036038101906106e191906129b3565b611866565b005b3480156106f457600080fd5b506106fd611c7a565b60405161070a91906130d9565b60405180910390f35b34801561071f57600080fd5b5061073a60048036038101906107359190612c32565b611ca0565b005b34801561074857600080fd5b50610751611f50565b005b34801561075f57600080fd5b50610768612143565b60405161077591906133a5565b60405180910390f35b34801561078a57600080fd5b50610793612149565b6040516107a0919061312a565b60405180910390f35b3480156107b557600080fd5b506107be61216f565b005b3480156107cc57600080fd5b506107d56122a9565b6040516107e291906133a5565b60405180910390f35b3480156107f757600080fd5b506108006122af565b005b34801561080e57600080fd5b50610829600480360381019061082491906129e0565b61239f565b005b600160009054906101000a900473ffffffffffffffffffffffffffffffffffffffff1681565b600160009054906101000a900473ffffffffffffffffffffffffffffffffffffffff1673ffffffffffffffffffffffffffffffffffffffff163373ffffffffffffffffffffffffffffffffffffffff16146108e1576040517f08c379a00000000000000000000000000000000000000000000000000000000081526004016108d890613325565b60405180910390fd5b6000479050600160009054906101000a900473ffffffffffffffffffffffffffffffffffffffff1673ffffffffffffffffffffffffffffffffffffffff166108fc829081150290604051600060405180830381858888f1935050505015801561094e573d6000803e3d6000fd5b50600160009054906101000a900473ffffffffffffffffffffffffffffffffffffffff1673ffffffffffffffffffffffffffffffffffffffff167f8455ae6be5d92f1df1c3c1484388e247a36c7e60d72055ae216dbc258f257d4b826040516109b791906133a5565b60405180910390a250565b600e60009054906101000a900473ffffffffffffffffffffffffffffffffffffffff1673ffffffffffffffffffffffffffffffffffffffff1663fa89401a600260009054906101000a900473ffffffffffffffffffffffffffffffffffffffff166040518263ffffffff1660e01b8152600401610a3f9190612f88565b600060405180830381600087803b158015610a5957600080fd5b505af1158015610a6d573d6000803e3d6000fd5b50505050565b600960019054906101000a900460ff1681565b600a6020528060005260406000206000915090505481565b601281565b60003390506000600a60008373ffffffffffffffffffffffffffffffffffffffff1673ffffffffffffffffffffffffffffffffffffffff16815260200190815260200160002054905060008311610b2f576040517f08c379a0000000000000000000000000000000000000000000000000000000008152600401610b2690613385565b60405180910390fd5b600081118015610b3f5750828110155b610b7e576040517f08c379a0000000000000000000000000000000000000000000000000000000008152600401610b75906132a5565b60405180910390fd5b600960009054906101000a900460ff1615610bce576040517f08c379a0000000000000000000000000000000000000000000000000000000008152600401610bc590613305565b60405180910390fd5b8260056000828254610be09190613581565b9250508190555082600a60008473ffffffffffffffffffffffffffffffffffffffff1673ffffffffffffffffffffffffffffffffffffffff1681526020019081526020016000206000828254610c369190613581565b92505081905550600d60009054906101000a900473ffffffffffffffffffffffffffffffffffffffff1673ffffffffffffffffffffffffffffffffffffffff1663a9059cbb83856040518363ffffffff1660e01b8152600401610c9a92919061300c565b602060405180830381600087803b158015610cb457600080fd5b505af1158015610cc8573d6000803e3d6000fd5b505050506040513d601f19601f82011682018060405250810190610cec9190612a40565b610d2b576040517f08c379a0000000000000000000000000000000000000000000000000000000008152600401610d2290613225565b60405180910390fd5b8173ffffffffffffffffffffffffffffffffffffffff167f315d4ef2c32c6e9b2d2364f5d35c06ffb3427d08357493b104b90799c99c1e3c84604051610d7191906133a5565b60405180910390a2505050565b600d60009054906101000a900473ffffffffffffffffffffffffffffffffffffffff1681565b601060009054906101000a900473ffffffffffffffffffffffffffffffffffffffff1681565b600b6020528060005260406000206000915090505481565b60038054610def906136f8565b80601f0160208091040260200160405190810160405280929190818152602001828054610e1b906136f8565b8015610e685780601f10610e3d57610100808354040283529160200191610e68565b820191906000526020600020905b815481529060010190602001808311610e4b57829003601f168201915b505050505081565b60045481565b60008585604051602001610e8b929190613167565b6040516020818303038152906040528051906020012090506000838583604051602001610eba939291906133e9565b6040516020818303038152906040528051906020012090506000601160009054906101000a900473ffffffffffffffffffffffffffffffffffffffff1673ffffffffffffffffffffffffffffffffffffffff166364936b1e896040518263ffffffff1660e01b8152600401610f2f9190613145565b60206040518083038186803b158015610f4757600080fd5b505afa158015610f5b573d6000803e3d6000fd5b505050506040513d601f19601f82011682018060405250810190610f7f9190612a9a565b73ffffffffffffffffffffffffffffffffffffffff1663159ab14d848885886040518563ffffffff1660e01b8152600401610fbd9493929190613050565b602060405180830381600087803b158015610fd757600080fd5b505af1158015610feb573d6000803e3d6000fd5b505050506040513d601f19601f8201168201806040525081019061100f9190612c5f565b90506110506040518060400160405280600a81526020017f6d696e74416d6f756e740000000000000000000000000000000000000000000081525082612582565b3373ffffffffffffffffffffffffffffffffffffffff167f5387ab2b2012a616dcfbc6c0f6c6f7a6ef5b3fc7c7740476f7b20b65f50d59728260405161109691906133a5565b60405180910390a25050505050505050565b60055481565b6000600a60008373ffffffffffffffffffffffffffffffffffffffff1673ffffffffffffffffffffffffffffffffffffffff168152602001908152602001600020549050919050565b600080339050600061271090506000601060009054906101000a900473ffffffffffffffffffffffffffffffffffffffff1673ffffffffffffffffffffffffffffffffffffffff1663a430147f8888856040518463ffffffff1660e01b815260040161116593929190613197565b602060405180830381600087803b15801561117f57600080fd5b505af1158015611193573d6000803e3d6000fd5b505050506040513d601f19601f820116820180604052508101906111b79190612c5f565b905080600c60008573ffffffffffffffffffffffffffffffffffffffff1673ffffffffffffffffffffffffffffffffffffffff168152602001908152602001600020819055508273ffffffffffffffffffffffffffffffffffffffff167fdacbdde355ba930696a362ea6738feb9f8bd52dfb3d81947558fd3217e23e32586836040516112459291906133c0565b60405180910390a28093505050509392505050565b60003390506000600a60008373ffffffffffffffffffffffffffffffffffffffff1673ffffffffffffffffffffffffffffffffffffffff168152602001908152602001600020549050600083116112e6576040517f08c379a00000000000000000000000000000000000000000000000000000000081526004016112dd90613385565b60405180910390fd5b6000811180156112f65750828110155b611335576040517f08c379a000000000000000000000000000000000000000000000000000000000815260040161132c906132a5565b60405180910390fd5b600960009054906101000a900460ff16611384576040517f08c379a000000000000000000000000000000000000000000000000000000000815260040161137b906132e5565b60405180910390fd5b82600b60008473ffffffffffffffffffffffffffffffffffffffff1673ffffffffffffffffffffffffffffffffffffffff1681526020019081526020016000208190555082600660008282546113da91906134fa565b92505081905550600960019054906101000a900460ff16801561140c575060026004546114079190613550565b600654115b1561141a5761141961261e565b5b8173ffffffffffffffffffffffffffffffffffffffff167fd68fb6899f484313a5048f6f882da08bad2e51f156053cb0888c3a0a0c0825908460405161146091906133a5565b60405180910390a2505050565b600c6020528060005260406000206000915090505481565b60008054906101000a900473ffffffffffffffffffffffffffffffffffffffff1673ffffffffffffffffffffffffffffffffffffffff163373ffffffffffffffffffffffffffffffffffffffff16148061152c5750600160009054906101000a900473ffffffffffffffffffffffffffffffffffffffff1673ffffffffffffffffffffffffffffffffffffffff163373ffffffffffffffffffffffffffffffffffffffff16145b61156b576040517f08c379a000000000000000000000000000000000000000000000000000000000815260040161156290613205565b60405180910390fd5b6000600d60009054906101000a900473ffffffffffffffffffffffffffffffffffffffff1673ffffffffffffffffffffffffffffffffffffffff166370a08231306040518263ffffffff1660e01b81526004016115c89190612f88565b60206040518083038186803b1580156115e057600080fd5b505afa1580156115f4573d6000803e3d6000fd5b505050506040513d601f19601f820116820180604052508101906116189190612c5f565b11611658576040517f08c379a000000000000000000000000000000000000000000000000000000000815260040161164f90613365565b60405180910390fd5b6000600960006101000a81548160ff0219169083151502179055507fde17ec5ba6f9b5379a238e2a199366faccaedccf87879284014517333da74e2660405160405180910390a1565b60008054906101000a900473ffffffffffffffffffffffffffffffffffffffff1681565b600260009054906101000a900473ffffffffffffffffffffffffffffffffffffffff1681565b600e60009054906101000a900473ffffffffffffffffffffffffffffffffffffffff1681565b600960009054906101000a900460ff1681565b60065481565b6000601160009054906101000a900473ffffffffffffffffffffffffffffffffffffffff1673ffffffffffffffffffffffffffffffffffffffff1663efa74f1f836040518263ffffffff1660e01b81526004016117879190613145565b60206040518083038186803b15801561179f57600080fd5b505afa1580156117b3573d6000803e3d6000fd5b505050506040513d601f19601f820116820180604052508101906117d79190612a6d565b73ffffffffffffffffffffffffffffffffffffffff166370a08231306040518263ffffffff1660e01b815260040161180f9190612f88565b60206040518083038186803b15801561182757600080fd5b505afa15801561183b573d6000803e3d6000fd5b505050506040513d601f19601f8201168201806040525081019061185f9190612c5f565b9050919050565b60003390506000600b60008473ffffffffffffffffffffffffffffffffffffffff1673ffffffffffffffffffffffffffffffffffffffff168152602001908152602001600020549050600081116118f2576040517f08c379a00000000000000000000000000000000000000000000000000000000081526004016118e990613285565b60405180910390fd5b600960009054906101000a900460ff16611941576040517f08c379a0000000000000000000000000000000000000000000000000000000008152600401611938906132e5565b60405180910390fd5b80600a60008473ffffffffffffffffffffffffffffffffffffffff1673ffffffffffffffffffffffffffffffffffffffff168152602001908152602001600020600082825461199091906134fa565b9250508190555080600a60008573ffffffffffffffffffffffffffffffffffffffff1673ffffffffffffffffffffffffffffffffffffffff16815260200190815260200160002060008282546119e69190613581565b9250508190555080600660008282546119ff9190613581565b92505081905550600b60008473ffffffffffffffffffffffffffffffffffffffff1673ffffffffffffffffffffffffffffffffffffffff16815260200190815260200160002060009055600d60009054906101000a900473ffffffffffffffffffffffffffffffffffffffff1673ffffffffffffffffffffffffffffffffffffffff166323b872dd8330846040518463ffffffff1660e01b8152600401611aa893929190612fa3565b602060405180830381600087803b158015611ac257600080fd5b505af1158015611ad6573d6000803e3d6000fd5b505050506040513d601f19601f82011682018060405250810190611afa9190612a40565b611b39576040517f08c379a0000000000000000000000000000000000000000000000000000000008152600401611b3090613245565b60405180910390fd5b600d60009054906101000a900473ffffffffffffffffffffffffffffffffffffffff1673ffffffffffffffffffffffffffffffffffffffff1663a9059cbb84836040518363ffffffff1660e01b8152600401611b9692919061300c565b602060405180830381600087803b158015611bb057600080fd5b505af1158015611bc4573d6000803e3d6000fd5b505050506040513d601f19601f82011682018060405250810190611be89190612a40565b611c27576040517f08c379a0000000000000000000000000000000000000000000000000000000008152600401611c1e90613345565b60405180910390fd5b8173ffffffffffffffffffffffffffffffffffffffff167fc0c6ac36718cda96fac02ecd8ae8aad366fb1ce2b294e1c2de0bee39ddd328af82604051611c6d91906133a5565b60405180910390a2505050565b600f60009054906101000a900473ffffffffffffffffffffffffffffffffffffffff1681565b6000339050600960009054906101000a900460ff1615611cf5576040517f08c379a0000000000000000000000000000000000000000000000000000000008152600401611cec90613305565b60405180910390fd5b60008211611d38576040517f08c379a0000000000000000000000000000000000000000000000000000000008152600401611d2f90613385565b60405180910390fd5b60045460055483611d4991906134fa565b1115611d8a576040517f08c379a0000000000000000000000000000000000000000000000000000000008152600401611d8190613265565b60405180910390fd5b81600a60008373ffffffffffffffffffffffffffffffffffffffff1673ffffffffffffffffffffffffffffffffffffffff1681526020019081526020016000206000828254611dd991906134fa565b925050819055508160056000828254611df291906134fa565b925050819055508073ffffffffffffffffffffffffffffffffffffffff167f9c4f7a1cc1751ba83a1ddccc2da94b1fcfc4efaa2c546f277e551b2dd9c0500583604051611e3f91906133a5565b60405180910390a26004546005541415611e5c57611e5b6126ea565b5b600d60009054906101000a900473ffffffffffffffffffffffffffffffffffffffff1673ffffffffffffffffffffffffffffffffffffffff166323b872dd8230856040518463ffffffff1660e01b8152600401611ebb93929190612fa3565b602060405180830381600087803b158015611ed557600080fd5b505af1158015611ee9573d6000803e3d6000fd5b505050506040513d601f19601f82011682018060405250810190611f0d9190612a40565b611f4c576040517f08c379a0000000000000000000000000000000000000000000000000000000008152600401611f4390613245565b60405180910390fd5b5050565b600160009054906101000a900473ffffffffffffffffffffffffffffffffffffffff1673ffffffffffffffffffffffffffffffffffffffff163373ffffffffffffffffffffffffffffffffffffffff1614611fe0576040517f08c379a0000000000000000000000000000000000000000000000000000000008152600401611fd790613325565b60405180910390fd5b600960009054906101000a900460ff1661202f576040517f08c379a0000000000000000000000000000000000000000000000000000000008152600401612026906132e5565b60405180910390fd5b600d60009054906101000a900473ffffffffffffffffffffffffffffffffffffffff1673ffffffffffffffffffffffffffffffffffffffff1663095ea7b3600e60009054906101000a900473ffffffffffffffffffffffffffffffffffffffff166004546040518363ffffffff1660e01b81526004016120b092919061300c565b602060405180830381600087803b1580156120ca57600080fd5b505af11580156120de573d6000803e3d6000fd5b505050506040513d601f19601f820116820180604052508101906121029190612a40565b612141576040517f08c379a0000000000000000000000000000000000000000000000000000000008152600401612138906132c5565b60405180910390fd5b565b60075481565b601160009054906101000a900473ffffffffffffffffffffffffffffffffffffffff1681565b60003390506000600b60008373ffffffffffffffffffffffffffffffffffffffff1673ffffffffffffffffffffffffffffffffffffffff168152602001908152602001600020549050600081116121fb576040517f08c379a00000000000000000000000000000000000000000000000000000000081526004016121f290613285565b60405180910390fd5b806006600082825461220d9190613581565b92505081905550600b60008373ffffffffffffffffffffffffffffffffffffffff1673ffffffffffffffffffffffffffffffffffffffff168152602001908152602001600020600090558173ffffffffffffffffffffffffffffffffffffffff167f97470f6911e16b5918a53053f8d1a686e0acaf6a4bfc7b79d064aa24b9f057138260405161229d91906133a5565b60405180910390a25050565b60085481565b60008054906101000a900473ffffffffffffffffffffffffffffffffffffffff1673ffffffffffffffffffffffffffffffffffffffff163373ffffffffffffffffffffffffffffffffffffffff1614806123565750600160009054906101000a900473ffffffffffffffffffffffffffffffffffffffff1673ffffffffffffffffffffffffffffffffffffffff163373ffffffffffffffffffffffffffffffffffffffff16145b612395576040517f08c379a000000000000000000000000000000000000000000000000000000000815260040161238c90613205565b60405180910390fd5b61239d61261e565b565b600160009054906101000a900473ffffffffffffffffffffffffffffffffffffffff1673ffffffffffffffffffffffffffffffffffffffff163373ffffffffffffffffffffffffffffffffffffffff161461242f576040517f08c379a000000000000000000000000000000000000000000000000000000000815260040161242690613325565b60405180910390fd5b600960009054906101000a900460ff1661247e576040517f08c379a0000000000000000000000000000000000000000000000000000000008152600401612475906132e5565b60405180910390fd5b600e60009054906101000a900473ffffffffffffffffffffffffffffffffffffffff1673ffffffffffffffffffffffffffffffffffffffff166324b8fbf68484846040518463ffffffff1660e01b81526004016124dd93929190612fda565b600060405180830381600087803b1580156124f757600080fd5b505af115801561250b573d6000803e3d6000fd5b505050506001600960016101000a81548160ff02191690831515021790555082600260006101000a81548173ffffffffffffffffffffffffffffffffffffffff021916908373ffffffffffffffffffffffffffffffffffffffff16021790555081816003919061257c92919061275c565b50505050565b61261a82826040516024016125989291906131d5565b6040516020818303038152906040527f9710a9d0000000000000000000000000000000000000000000000000000000007bffffffffffffffffffffffffffffffffffffffffffffffffffffffff19166020820180517bffffffffffffffffffffffffffffffffffffffffffffffffffffffff8381831617835250505050612733565b5050565b600e60009054906101000a900473ffffffffffffffffffffffffffffffffffffffff1673ffffffffffffffffffffffffffffffffffffffff166384ac33ec600260009054906101000a900473ffffffffffffffffffffffffffffffffffffffff166040518263ffffffff1660e01b815260040161269b9190612f88565b600060405180830381600087803b1580156126b557600080fd5b505af11580156126c9573d6000803e3d6000fd5b505050506000600960016101000a81548160ff021916908315150217905550565b6001600960006101000a81548160ff0219169083151502179055507f2e136745550967f28b779ce8c395ca060a2f844edfb5b06631fe677f66f9e30560405160405180910390a1565b60008151905060006a636f6e736f6c652e6c6f679050602083016000808483855afa5050505050565b828054612768906136f8565b90600052602060002090601f01602090048101928261278a57600085556127d1565b82601f106127a357803560ff19168380011785556127d1565b828001600101855582156127d1579182015b828111156127d05782358255916020019190600101906127b5565b5b5090506127de91906127e2565b5090565b5b808211156127fb5760008160009055506001016127e3565b5090565b600061281261280d84613460565b61343b565b90508281526020810184848401111561282e5761282d613826565b5b6128398482856136b6565b509392505050565b600061285461284f84613491565b61343b565b9050828152602081018484840111156128705761286f613826565b5b61287b8482856136b6565b509392505050565b60008135905061289281613aa7565b92915050565b6000815190506128a781613abe565b92915050565b60008083601f8401126128c3576128c261381c565b5b8235905067ffffffffffffffff8111156128e0576128df613817565b5b6020830191508360018202830111156128fc576128fb613821565b5b9250929050565b600082601f8301126129185761291761381c565b5b81356129288482602086016127ff565b91505092915050565b60008151905061294081613ad5565b92915050565b60008151905061295581613aec565b92915050565b600082601f8301126129705761296f61381c565b5b8135612980848260208601612841565b91505092915050565b60008135905061299881613b03565b92915050565b6000815190506129ad81613b03565b92915050565b6000602082840312156129c9576129c8613830565b5b60006129d784828501612883565b91505092915050565b6000806000604084860312156129f9576129f8613830565b5b6000612a0786828701612883565b935050602084013567ffffffffffffffff811115612a2857612a2761382b565b5b612a34868287016128ad565b92509250509250925092565b600060208284031215612a5657612a55613830565b5b6000612a6484828501612898565b91505092915050565b600060208284031215612a8357612a82613830565b5b6000612a9184828501612931565b91505092915050565b600060208284031215612ab057612aaf613830565b5b6000612abe84828501612946565b91505092915050565b600060208284031215612add57612adc613830565b5b600082013567ffffffffffffffff811115612afb57612afa61382b565b5b612b078482850161295b565b91505092915050565b600080600060608486031215612b2957612b28613830565b5b600084013567ffffffffffffffff811115612b4757612b4661382b565b5b612b538682870161295b565b9350506020612b6486828701612883565b9250506040612b7586828701612989565b9150509250925092565b600080600080600060a08688031215612b9b57612b9a613830565b5b600086013567ffffffffffffffff811115612bb957612bb861382b565b5b612bc58882890161295b565b9550506020612bd688828901612883565b9450506040612be788828901612989565b9350506060612bf888828901612989565b925050608086013567ffffffffffffffff811115612c1957612c1861382b565b5b612c2588828901612903565b9150509295509295909350565b600060208284031215612c4857612c47613830565b5b6000612c5684828501612989565b91505092915050565b600060208284031215612c7557612c74613830565b5b6000612c838482850161299e565b91505092915050565b612c95816135b5565b82525050565b612ca4816135c7565b82525050565b612cb3816135d3565b82525050565b6000612cc583856134d8565b9350612cd28385846136b6565b612cdb83613835565b840190509392505050565b6000612cf1826134c2565b612cfb81856134d8565b9350612d0b8185602086016136c5565b612d1481613835565b840191505092915050565b612d2881613638565b82525050565b612d378161364a565b82525050565b612d468161365c565b82525050565b612d558161366e565b82525050565b612d6481613680565b82525050565b6000612d75826134cd565b612d7f81856134e9565b9350612d8f8185602086016136c5565b612d9881613835565b840191505092915050565b6000612db0602e836134e9565b9150612dbb82613846565b604082019050919050565b6000612dd36018836134e9565b9150612dde82613895565b602082019050919050565b6000612df66017836134e9565b9150612e01826138be565b602082019050919050565b6000612e19601e836134e9565b9150612e24826138e7565b602082019050919050565b6000612e3c6017836134e9565b9150612e4782613910565b602082019050919050565b6000612e5f601b836134e9565b9150612e6a82613939565b602082019050919050565b6000612e82601d836134e9565b9150612e8d82613962565b602082019050919050565b6000612ea5601b836134e9565b9150612eb08261398b565b602082019050919050565b6000612ec86017836134e9565b9150612ed3826139b4565b602082019050919050565b6000612eeb6024836134e9565b9150612ef6826139dd565b604082019050919050565b6000612f0e6016836134e9565b9150612f1982613a2c565b602082019050919050565b6000612f31601d836134e9565b9150612f3c82613a55565b602082019050919050565b6000612f546017836134e9565b9150612f5f82613a7e565b602082019050919050565b612f7381613621565b82525050565b612f828161362b565b82525050565b6000602082019050612f9d6000830184612c8c565b92915050565b6000606082019050612fb86000830186612c8c565b612fc56020830185612c8c565b612fd26040830184612f6a565b949350505050565b6000604082019050612fef6000830186612c8c565b8181036020830152613002818486612cb9565b9050949350505050565b60006040820190506130216000830185612c8c565b61302e6020830184612f6a565b9392505050565b600060208201905061304a6000830184612c9b565b92915050565b60006080820190506130656000830187612caa565b6130726020830186612f6a565b61307f6040830185612caa565b81810360608301526130918184612ce6565b905095945050505050565b600060208201905081810360008301526130b68184612ce6565b905092915050565b60006020820190506130d36000830184612d1f565b92915050565b60006020820190506130ee6000830184612d2e565b92915050565b60006020820190506131096000830184612d3d565b92915050565b60006020820190506131246000830184612d4c565b92915050565b600060208201905061313f6000830184612d5b565b92915050565b6000602082019050818103600083015261315f8184612d6a565b905092915050565b600060408201905081810360008301526131818185612d6a565b90506131906020830184612c8c565b9392505050565b600060608201905081810360008301526131b18186612d6a565b90506131c06020830185612c8c565b6131cd6040830184612f6a565b949350505050565b600060408201905081810360008301526131ef8185612d6a565b90506131fe6020830184612f6a565b9392505050565b6000602082019050818103600083015261321e81612da3565b9050919050565b6000602082019050818103600083015261323e81612dc6565b9050919050565b6000602082019050818103600083015261325e81612de9565b9050919050565b6000602082019050818103600083015261327e81612e0c565b9050919050565b6000602082019050818103600083015261329e81612e2f565b9050919050565b600060208201905081810360008301526132be81612e52565b9050919050565b600060208201905081810360008301526132de81612e75565b9050919050565b600060208201905081810360008301526132fe81612e98565b9050919050565b6000602082019050818103600083015261331e81612ebb565b9050919050565b6000602082019050818103600083015261333e81612ede565b9050919050565b6000602082019050818103600083015261335e81612f01565b9050919050565b6000602082019050818103600083015261337e81612f24565b9050919050565b6000602082019050818103600083015261339e81612f47565b9050919050565b60006020820190506133ba6000830184612f6a565b92915050565b60006040820190506133d56000830185612f6a565b6133e26020830184612f6a565b9392505050565b60006060820190506133fe6000830186612f6a565b61340b6020830185612f6a565b6134186040830184612caa565b949350505050565b60006020820190506134356000830184612f79565b92915050565b6000613445613456565b9050613451828261372a565b919050565b6000604051905090565b600067ffffffffffffffff82111561347b5761347a6137e8565b5b61348482613835565b9050602081019050919050565b600067ffffffffffffffff8211156134ac576134ab6137e8565b5b6134b582613835565b9050602081019050919050565b600081519050919050565b600081519050919050565b600082825260208201905092915050565b600082825260208201905092915050565b600061350582613621565b915061351083613621565b9250827fffffffffffffffffffffffffffffffffffffffffffffffffffffffffffffffff038211156135455761354461375b565b5b828201905092915050565b600061355b82613621565b915061356683613621565b9250826135765761357561378a565b5b828204905092915050565b600061358c82613621565b915061359783613621565b9250828210156135aa576135a961375b565b5b828203905092915050565b60006135c082613601565b9050919050565b60008115159050919050565b6000819050919050565b60006135e8826135b5565b9050919050565b60006135fa826135b5565b9050919050565b600073ffffffffffffffffffffffffffffffffffffffff82169050919050565b6000819050919050565b600060ff82169050919050565b600061364382613692565b9050919050565b600061365582613692565b9050919050565b600061366782613692565b9050919050565b600061367982613692565b9050919050565b600061368b82613692565b9050919050565b600061369d826136a4565b9050919050565b60006136af82613601565b9050919050565b82818337600083830152505050565b60005b838110156136e35780820151818401526020810190506136c8565b838111156136f2576000848401525b50505050565b6000600282049050600182168061371057607f821691505b60208210811415613724576137236137b9565b5b50919050565b61373382613835565b810181811067ffffffffffffffff82111715613752576137516137e8565b5b80604052505050565b7f4e487b7100000000000000000000000000000000000000000000000000000000600052601160045260246000fd5b7f4e487b7100000000000000000000000000000000000000000000000000000000600052601260045260246000fd5b7f4e487b7100000000000000000000000000000000000000000000000000000000600052602260045260246000fd5b7f4e487b7100000000000000000000000000000000000000000000000000000000600052604160045260246000fd5b600080fd5b600080fd5b600080fd5b600080fd5b600080fd5b600080fd5b6000601f19601f8301169050919050565b7f52656e506f6f6c3a2043616c6c6572206973206e6f74206f776e6572206e6f7260008201527f206e6f6465206f70657261746f72000000000000000000000000000000000000602082015250565b7f52656e506f6f6c3a205769746864726177206661696c65640000000000000000600082015250565b7f52656e506f6f6c3a204465706f736974206661696c6564000000000000000000600082015250565b7f52656e506f6f6c3a20416d6f756e742073757270617373657320626f6e640000600082015250565b7f52656e506f6f6c3a20696e76616c696420616d6f756e74000000000000000000600082015250565b7f52656e506f6f6c3a20496e73756666696369656e742066756e64730000000000600082015250565b7f52656e506f6f6c3a20426f6e64207472616e73666572206661696c6564000000600082015250565b7f52656e506f6f6c3a20506f6f6c206973206e6f74206c6f636b65640000000000600082015250565b7f52656e506f6f6c3a20506f6f6c206973206c6f636b6564000000000000000000600082015250565b7f52656e506f6f6c3a2043616c6c6572206973206e6f74206e6f6465206f70657260008201527f61746f7200000000000000000000000000000000000000000000000000000000602082015250565b7f52656e506f6f6c3a20526566756e64206661696c656400000000000000000000600082015250565b7f52656e506f6f6c3a20506f6f6c2062616c616e6365206973207a65726f000000600082015250565b7f52656e506f6f6c3a20496e76616c696420616d6f756e74000000000000000000600082015250565b613ab0816135b5565b8114613abb57600080fd5b50565b613ac7816135c7565b8114613ad257600080fd5b50565b613ade816135dd565b8114613ae957600080fd5b50565b613af5816135ef565b8114613b0057600080fd5b50565b613b0c81613621565b8114613b1757600080fd5b5056fea2646970667358221220772cadf8e84a0e029604600864dde34b22ee63843b25635e36e3306096507bb964736f6c63430008070033",
  "linkReferences": {},
  "deployedLinkReferences": {}
}